{
  "contractName": "BismuthCoin",
  "abi": [
    {
      "inputs": [],
      "stateMutability": "nonpayable",
      "type": "constructor"
    },
    {
      "anonymous": false,
      "inputs": [
        {
          "indexed": true,
          "internalType": "address",
          "name": "addr",
          "type": "address"
        }
      ],
      "name": "AddressFrozen",
      "type": "event"
    },
    {
      "anonymous": false,
      "inputs": [
        {
          "indexed": true,
          "internalType": "address",
          "name": "addr",
          "type": "address"
        }
      ],
      "name": "AddressUnfrozen",
      "type": "event"
    },
    {
      "anonymous": false,
      "inputs": [
        {
          "indexed": true,
          "internalType": "address",
          "name": "owner",
          "type": "address"
        },
        {
          "indexed": true,
          "internalType": "address",
          "name": "spender",
          "type": "address"
        },
        {
          "indexed": false,
          "internalType": "uint256",
          "name": "value",
          "type": "uint256"
        }
      ],
      "name": "Approval",
      "type": "event"
    },
    {
      "anonymous": false,
      "inputs": [
        {
          "indexed": true,
          "internalType": "address",
          "name": "addr",
          "type": "address"
        }
      ],
      "name": "FrozenAddressWiped",
      "type": "event"
    },
    {
      "anonymous": false,
      "inputs": [
        {
          "indexed": true,
          "internalType": "address",
          "name": "oldOwner",
          "type": "address"
        },
        {
          "indexed": true,
          "internalType": "address",
          "name": "newOwner",
          "type": "address"
        }
      ],
      "name": "OwnershipTransferred",
      "type": "event"
    },
    {
      "anonymous": false,
      "inputs": [],
      "name": "Pause",
      "type": "event"
    },
    {
      "anonymous": false,
      "inputs": [
        {
          "indexed": true,
          "internalType": "address",
          "name": "oldSupplyController",
          "type": "address"
        },
        {
          "indexed": true,
          "internalType": "address",
          "name": "newSupplyController",
          "type": "address"
        }
      ],
      "name": "SupplyControllerSet",
      "type": "event"
    },
    {
      "anonymous": false,
      "inputs": [
        {
          "indexed": true,
          "internalType": "address",
          "name": "from",
          "type": "address"
        },
        {
          "indexed": false,
          "internalType": "uint256",
          "name": "value",
          "type": "uint256"
        }
      ],
      "name": "SupplyDecreased",
      "type": "event"
    },
    {
      "anonymous": false,
      "inputs": [
        {
          "indexed": true,
          "internalType": "address",
          "name": "to",
          "type": "address"
        },
        {
          "indexed": false,
          "internalType": "uint256",
          "name": "value",
          "type": "uint256"
        }
      ],
      "name": "SupplyIncreased",
      "type": "event"
    },
    {
      "anonymous": false,
      "inputs": [
        {
          "indexed": true,
          "internalType": "address",
          "name": "from",
          "type": "address"
        },
        {
          "indexed": true,
          "internalType": "address",
          "name": "to",
          "type": "address"
        },
        {
          "indexed": false,
          "internalType": "uint256",
          "name": "value",
          "type": "uint256"
        }
      ],
      "name": "Transfer",
      "type": "event"
    },
    {
      "anonymous": false,
      "inputs": [],
      "name": "Unpause",
      "type": "event"
    },
    {
      "anonymous": false,
      "inputs": [
        {
          "indexed": true,
          "internalType": "address",
          "name": "oldCoinVelocityVerifier",
          "type": "address"
        },
        {
          "indexed": true,
          "internalType": "address",
          "name": "newCoinVelocityVerifier",
          "type": "address"
        }
      ],
      "name": "coinVeolocityVerifierSet",
      "type": "event"
    },
    {
      "inputs": [],
      "name": "coinVelocityVerifier",
      "outputs": [
        {
          "internalType": "address",
          "name": "",
          "type": "address"
        }
      ],
      "stateMutability": "view",
      "type": "function"
    },
    {
      "inputs": [],
      "name": "decimals",
      "outputs": [
        {
          "internalType": "uint8",
          "name": "",
          "type": "uint8"
        }
      ],
      "stateMutability": "view",
      "type": "function"
    },
    {
      "inputs": [],
      "name": "name",
      "outputs": [
        {
          "internalType": "string",
          "name": "",
          "type": "string"
        }
      ],
      "stateMutability": "view",
      "type": "function"
    },
    {
      "inputs": [],
      "name": "owner",
      "outputs": [
        {
          "internalType": "address",
          "name": "",
          "type": "address"
        }
      ],
      "stateMutability": "view",
      "type": "function"
    },
    {
      "inputs": [],
      "name": "paused",
      "outputs": [
        {
          "internalType": "bool",
          "name": "",
          "type": "bool"
        }
      ],
      "stateMutability": "view",
      "type": "function"
    },
    {
      "inputs": [],
      "name": "supplyController",
      "outputs": [
        {
          "internalType": "address",
          "name": "",
          "type": "address"
        }
      ],
      "stateMutability": "view",
      "type": "function"
    },
    {
      "inputs": [],
      "name": "symbol",
      "outputs": [
        {
          "internalType": "string",
          "name": "",
          "type": "string"
        }
      ],
      "stateMutability": "view",
      "type": "function"
    },
    {
      "inputs": [],
      "name": "initialize",
      "outputs": [],
      "stateMutability": "nonpayable",
      "type": "function"
    },
    {
      "inputs": [],
      "name": "totalSupply",
      "outputs": [
        {
          "internalType": "uint256",
          "name": "",
          "type": "uint256"
        }
      ],
      "stateMutability": "view",
      "type": "function"
    },
    {
      "inputs": [
        {
          "internalType": "address",
          "name": "_to",
          "type": "address"
        },
        {
          "internalType": "uint256",
          "name": "_value",
          "type": "uint256"
        }
      ],
      "name": "transfer",
      "outputs": [
        {
          "internalType": "bool",
          "name": "",
          "type": "bool"
        }
      ],
      "stateMutability": "nonpayable",
      "type": "function"
    },
    {
      "inputs": [
        {
          "internalType": "address",
          "name": "_addr",
          "type": "address"
        }
      ],
      "name": "balanceOf",
      "outputs": [
        {
          "internalType": "uint256",
          "name": "",
          "type": "uint256"
        }
      ],
      "stateMutability": "view",
      "type": "function"
    },
    {
      "inputs": [
        {
          "internalType": "address",
          "name": "_from",
          "type": "address"
        },
        {
          "internalType": "address",
          "name": "_to",
          "type": "address"
        },
        {
          "internalType": "uint256",
          "name": "_value",
          "type": "uint256"
        }
      ],
      "name": "transferFrom",
      "outputs": [
        {
          "internalType": "bool",
          "name": "",
          "type": "bool"
        }
      ],
      "stateMutability": "nonpayable",
      "type": "function"
    },
    {
      "inputs": [
        {
          "internalType": "address",
          "name": "_spender",
          "type": "address"
        },
        {
          "internalType": "uint256",
          "name": "_value",
          "type": "uint256"
        }
      ],
      "name": "approve",
      "outputs": [
        {
          "internalType": "bool",
          "name": "",
          "type": "bool"
        }
      ],
      "stateMutability": "nonpayable",
      "type": "function"
    },
    {
      "inputs": [
        {
          "internalType": "address",
          "name": "_owner",
          "type": "address"
        },
        {
          "internalType": "address",
          "name": "_spender",
          "type": "address"
        }
      ],
      "name": "allowance",
      "outputs": [
        {
          "internalType": "uint256",
          "name": "",
          "type": "uint256"
        }
      ],
      "stateMutability": "view",
      "type": "function"
    },
    {
      "inputs": [
        {
          "internalType": "address",
          "name": "_newOwner",
          "type": "address"
        }
      ],
      "name": "transferOwnership",
      "outputs": [],
      "stateMutability": "nonpayable",
      "type": "function"
    },
    {
      "inputs": [],
      "name": "pause",
      "outputs": [],
      "stateMutability": "nonpayable",
      "type": "function"
    },
    {
      "inputs": [],
      "name": "unpause",
      "outputs": [],
      "stateMutability": "nonpayable",
      "type": "function"
    },
    {
      "inputs": [
        {
          "internalType": "address",
          "name": "_newCoinVelocityVerifier",
          "type": "address"
        }
      ],
      "name": "setCoinVelocityVerifier",
      "outputs": [],
      "stateMutability": "nonpayable",
      "type": "function"
    },
    {
      "inputs": [
        {
          "internalType": "address",
          "name": "_addr",
          "type": "address"
        }
      ],
      "name": "freeze",
      "outputs": [],
      "stateMutability": "nonpayable",
      "type": "function"
    },
    {
      "inputs": [
        {
          "internalType": "address",
          "name": "_addr",
          "type": "address"
        }
      ],
      "name": "unfreeze",
      "outputs": [],
      "stateMutability": "nonpayable",
      "type": "function"
    },
    {
      "inputs": [
        {
          "internalType": "address",
          "name": "_addr",
          "type": "address"
        }
      ],
      "name": "wipeFrozenAddress",
      "outputs": [],
      "stateMutability": "nonpayable",
      "type": "function"
    },
    {
      "inputs": [
        {
          "internalType": "address",
          "name": "_addr",
          "type": "address"
        }
      ],
      "name": "isFrozen",
      "outputs": [
        {
          "internalType": "bool",
          "name": "",
          "type": "bool"
        }
      ],
      "stateMutability": "view",
      "type": "function"
    },
    {
      "inputs": [
        {
          "internalType": "address",
          "name": "_newSupplyController",
          "type": "address"
        }
      ],
      "name": "setSupplyController",
      "outputs": [],
      "stateMutability": "nonpayable",
      "type": "function"
    },
    {
      "inputs": [
        {
          "internalType": "uint256",
          "name": "_value",
          "type": "uint256"
        }
      ],
      "name": "increaseSupply",
      "outputs": [
        {
          "internalType": "bool",
          "name": "success",
          "type": "bool"
        }
      ],
      "stateMutability": "nonpayable",
      "type": "function"
    },
    {
      "inputs": [
        {
          "internalType": "uint256",
          "name": "_value",
          "type": "uint256"
        }
      ],
      "name": "decreaseSupply",
      "outputs": [
        {
          "internalType": "bool",
          "name": "success",
          "type": "bool"
        }
      ],
      "stateMutability": "nonpayable",
      "type": "function"
    }
  ],
  "bytecode": "0x608060405260008060006101000a81548160ff0219169083151502179055506000600460146101000a81548160ff0219169083151502179055503480156200004657600080fd5b50620000576200006d60201b60201c565b62000067620001d760201b60201c565b62000368565b60008054906101000a900460ff1615620000ef576040517f08c379a00000000000000000000000000000000000000000000000000000000081526004018080602001828103825260138152602001807f616c726561647920696e697469616c697a65640000000000000000000000000081525060200191505060405180910390fd5b33600460006101000a81548173ffffffffffffffffffffffffffffffffffffffff021916908373ffffffffffffffffffffffffffffffffffffffff1602179055506000600560006101000a81548173ffffffffffffffffffffffffffffffffffffffff021916908373ffffffffffffffffffffffffffffffffffffffff160217905550600060028190555033600760006101000a81548173ffffffffffffffffffffffffffffffffffffffff021916908373ffffffffffffffffffffffffffffffffffffffff16021790555060016000806101000a81548160ff021916908315150217905550565b600460009054906101000a900473ffffffffffffffffffffffffffffffffffffffff1673ffffffffffffffffffffffffffffffffffffffff163373ffffffffffffffffffffffffffffffffffffffff16146200029b576040517f08c379a00000000000000000000000000000000000000000000000000000000081526004018080602001828103825260098152602001807f6f6e6c794f776e6572000000000000000000000000000000000000000000000081525060200191505060405180910390fd5b600460149054906101000a900460ff16156200031f576040517f08c379a000000000000000000000000000000000000000000000000000000000815260040180806020018281038252600e8152602001807f616c72656164792070617573656400000000000000000000000000000000000081525060200191505060405180910390fd5b6001600460146101000a81548160ff0219169083151502179055507f6985a02210a168e66602d3235cb6db0e70f92b3ba4d376a33c0f3d9434bff62560405160405180910390a1565b6132ee80620003786000396000f3fe608060405234801561001057600080fd5b50600436106101735760003560e01c80638456cb59116100de578063a9059cbb11610097578063e2f72f0311610071578063e2f72f0314610717578063e58398361461075b578063e7ba1012146107b5578063f2fde38b146107e957610173565b8063a9059cbb146105f7578063b921e1631461065b578063dd62ed3e1461069f57610173565b80638456cb591461047a5780638d1fdf2f146104845780638da5cb5b146104c857806395d89b41146104fc57806398e52f9a1461057f57806399bc5ec3146105c357610173565b806345c8b1a61161013057806345c8b1a61461032c57806352875bc314610370578063566c65f0146103b45780635c975abb146103f857806370a08231146104185780638129fc1c1461047057610173565b806306fdde0314610178578063095ea7b3146101fb57806318160ddd1461025f57806323b872dd1461027d578063313ce567146103015780633f4ba83a14610322575b600080fd5b61018061082d565b6040518080602001828103825283818151815260200191508051906020019080838360005b838110156101c05780820151818401526020810190506101a5565b50505050905090810190601f1680156101ed5780820380516001836020036101000a031916815260200191505b509250505060405180910390f35b6102476004803603604081101561021157600080fd5b81019080803573ffffffffffffffffffffffffffffffffffffffff16906020019092919080359060200190929190505050610866565b60405180821515815260200191505060405180910390f35b610267610af1565b6040518082815260200191505060405180910390f35b6102e96004803603606081101561029357600080fd5b81019080803573ffffffffffffffffffffffffffffffffffffffff169060200190929190803573ffffffffffffffffffffffffffffffffffffffff16906020019092919080359060200190929190505050610afb565b60405180821515815260200191505060405180910390f35b6103096111df565b604051808260ff16815260200191505060405180910390f35b61032a6111e4565b005b61036e6004803603602081101561034257600080fd5b81019080803573ffffffffffffffffffffffffffffffffffffffff169060200190929190505050611372565b005b6103b26004803603602081101561038657600080fd5b81019080803573ffffffffffffffffffffffffffffffffffffffff169060200190929190505050611592565b005b6103f6600480360360208110156103ca57600080fd5b81019080803573ffffffffffffffffffffffffffffffffffffffff1690602001909291905050506117f3565b005b6104006119b1565b60405180821515815260200191505060405180910390f35b61045a6004803603602081101561042e57600080fd5b81019080803573ffffffffffffffffffffffffffffffffffffffff1690602001909291905050506119c4565b6040518082815260200191505060405180910390f35b610478611a0d565b005b610482611b76565b005b6104c66004803603602081101561049a57600080fd5b81019080803573ffffffffffffffffffffffffffffffffffffffff169060200190929190505050611d05565b005b6104d0611f26565b604051808273ffffffffffffffffffffffffffffffffffffffff16815260200191505060405180910390f35b610504611f4c565b6040518080602001828103825283818151815260200191508051906020019080838360005b83811015610544578082015181840152602081019050610529565b50505050905090810190601f1680156105715780820380516001836020036101000a031916815260200191505b509250505060405180910390f35b6105ab6004803603602081101561059557600080fd5b8101908080359060200190929190505050611f85565b60405180821515815260200191505060405180910390f35b6105cb612316565b604051808273ffffffffffffffffffffffffffffffffffffffff16815260200191505060405180910390f35b6106436004803603604081101561060d57600080fd5b81019080803573ffffffffffffffffffffffffffffffffffffffff1690602001909291908035906020019092919050505061233c565b60405180821515815260200191505060405180910390f35b6106876004803603602081101561067157600080fd5b81019080803590602001909291905050506127c8565b60405180821515815260200191505060405180910390f35b610701600480360360408110156106b557600080fd5b81019080803573ffffffffffffffffffffffffffffffffffffffff169060200190929190803573ffffffffffffffffffffffffffffffffffffffff169060200190929190505050612a82565b6040518082815260200191505060405180910390f35b6107596004803603602081101561072d57600080fd5b81019080803573ffffffffffffffffffffffffffffffffffffffff169060200190929190505050612b09565b005b61079d6004803603602081101561077157600080fd5b81019080803573ffffffffffffffffffffffffffffffffffffffff169060200190929190505050612e2a565b60405180821515815260200191505060405180910390f35b6107bd612e80565b604051808273ffffffffffffffffffffffffffffffffffffffff16815260200191505060405180910390f35b61082b600480360360208110156107ff57600080fd5b81019080803573ffffffffffffffffffffffffffffffffffffffff169060200190929190505050612ea6565b005b6040518060400160405280600381526020017f424343000000000000000000000000000000000000000000000000000000000081525081565b6000600460149054906101000a900460ff16156108eb576040517f08c379a000000000000000000000000000000000000000000000000000000000815260040180806020018281038252600d8152602001807f7768656e4e6f745061757365640000000000000000000000000000000000000081525060200191505060405180910390fd5b600660008473ffffffffffffffffffffffffffffffffffffffff1673ffffffffffffffffffffffffffffffffffffffff16815260200190815260200160002060009054906101000a900460ff1615801561098f5750600660003373ffffffffffffffffffffffffffffffffffffffff1673ffffffffffffffffffffffffffffffffffffffff16815260200190815260200160002060009054906101000a900460ff16155b610a01576040517f08c379a000000000000000000000000000000000000000000000000000000000815260040180806020018281038252600e8152602001807f616464726573732066726f7a656e00000000000000000000000000000000000081525060200191505060405180910390fd5b81600360003373ffffffffffffffffffffffffffffffffffffffff1673ffffffffffffffffffffffffffffffffffffffff16815260200190815260200160002060008573ffffffffffffffffffffffffffffffffffffffff1673ffffffffffffffffffffffffffffffffffffffff168152602001908152602001600020819055508273ffffffffffffffffffffffffffffffffffffffff163373ffffffffffffffffffffffffffffffffffffffff167f8c5be1e5ebec7d5bd14f71427d1e84f3dd0314c0f7b2291e5b200ac8c7c3b925846040518082815260200191505060405180910390a36001905092915050565b6000600254905090565b6000600460149054906101000a900460ff1615610b80576040517f08c379a000000000000000000000000000000000000000000000000000000000815260040180806020018281038252600d8152602001807f7768656e4e6f745061757365640000000000000000000000000000000000000081525060200191505060405180910390fd5b600073ffffffffffffffffffffffffffffffffffffffff168373ffffffffffffffffffffffffffffffffffffffff161415610c23576040517f08c379a000000000000000000000000000000000000000000000000000000000815260040180806020018281038252601f8152602001807f63616e6e6f74207472616e7366657220746f2061646472657373207a65726f0081525060200191505060405180910390fd5b600660008473ffffffffffffffffffffffffffffffffffffffff1673ffffffffffffffffffffffffffffffffffffffff16815260200190815260200160002060009054906101000a900460ff16158015610cc75750600660008573ffffffffffffffffffffffffffffffffffffffff1673ffffffffffffffffffffffffffffffffffffffff16815260200190815260200160002060009054906101000a900460ff16155b8015610d1d5750600660003373ffffffffffffffffffffffffffffffffffffffff1673ffffffffffffffffffffffffffffffffffffffff16815260200190815260200160002060009054906101000a900460ff16155b610d8f576040517f08c379a000000000000000000000000000000000000000000000000000000000815260040180806020018281038252600e8152602001807f616464726573732066726f7a656e00000000000000000000000000000000000081525060200191505060405180910390fd5b600160008573ffffffffffffffffffffffffffffffffffffffff1673ffffffffffffffffffffffffffffffffffffffff16815260200190815260200160002054821115610e44576040517f08c379a00000000000000000000000000000000000000000000000000000000081526004018080602001828103825260128152602001807f696e73756666696369656e742066756e6473000000000000000000000000000081525060200191505060405180910390fd5b600360008573ffffffffffffffffffffffffffffffffffffffff1673ffffffffffffffffffffffffffffffffffffffff16815260200190815260200160002060003373ffffffffffffffffffffffffffffffffffffffff1673ffffffffffffffffffffffffffffffffffffffff16815260200190815260200160002054821115610f36576040517f08c379a00000000000000000000000000000000000000000000000000000000081526004018080602001828103825260168152602001807f696e73756666696369656e7420616c6c6f77616e63650000000000000000000081525060200191505060405180910390fd5b610f8882600160008773ffffffffffffffffffffffffffffffffffffffff1673ffffffffffffffffffffffffffffffffffffffff168152602001908152602001600020546130af90919063ffffffff16565b600160008673ffffffffffffffffffffffffffffffffffffffff1673ffffffffffffffffffffffffffffffffffffffff1681526020019081526020016000208190555061101d82600160008673ffffffffffffffffffffffffffffffffffffffff1673ffffffffffffffffffffffffffffffffffffffff168152602001908152602001600020546130f990919063ffffffff16565b600160008573ffffffffffffffffffffffffffffffffffffffff1673ffffffffffffffffffffffffffffffffffffffff168152602001908152602001600020819055506110ef82600360008773ffffffffffffffffffffffffffffffffffffffff1673ffffffffffffffffffffffffffffffffffffffff16815260200190815260200160002060003373ffffffffffffffffffffffffffffffffffffffff1673ffffffffffffffffffffffffffffffffffffffff168152602001908152602001600020546130af90919063ffffffff16565b600360008673ffffffffffffffffffffffffffffffffffffffff1673ffffffffffffffffffffffffffffffffffffffff16815260200190815260200160002060003373ffffffffffffffffffffffffffffffffffffffff1673ffffffffffffffffffffffffffffffffffffffff168152602001908152602001600020819055508273ffffffffffffffffffffffffffffffffffffffff168473ffffffffffffffffffffffffffffffffffffffff167fddf252ad1be2c89b69c2b068fc378daa952ba7f163c4a11628f55a4df523b3ef846040518082815260200191505060405180910390a3600190509392505050565b601281565b600460009054906101000a900473ffffffffffffffffffffffffffffffffffffffff1673ffffffffffffffffffffffffffffffffffffffff163373ffffffffffffffffffffffffffffffffffffffff16146112a7576040517f08c379a00000000000000000000000000000000000000000000000000000000081526004018080602001828103825260098152602001807f6f6e6c794f776e6572000000000000000000000000000000000000000000000081525060200191505060405180910390fd5b600460149054906101000a900460ff16611329576040517f08c379a00000000000000000000000000000000000000000000000000000000081526004018080602001828103825260108152602001807f616c726561647920756e7061757365640000000000000000000000000000000081525060200191505060405180910390fd5b6000600460146101000a81548160ff0219169083151502179055507f7805862f689e2f13df9f062ff482ad3ad112aca9e0847911ed832e158c525b3360405160405180910390a1565b600560009054906101000a900473ffffffffffffffffffffffffffffffffffffffff1673ffffffffffffffffffffffffffffffffffffffff163373ffffffffffffffffffffffffffffffffffffffff1614611435576040517f08c379a00000000000000000000000000000000000000000000000000000000081526004018080602001828103825260198152602001807f6f6e6c7920636f696e56656c6f6369747956657269666965720000000000000081525060200191505060405180910390fd5b600660008273ffffffffffffffffffffffffffffffffffffffff1673ffffffffffffffffffffffffffffffffffffffff16815260200190815260200160002060009054906101000a900460ff166114f4576040517f08c379a00000000000000000000000000000000000000000000000000000000081526004018080602001828103825260188152602001807f6164647265737320616c726561647920756e66726f7a656e000000000000000081525060200191505060405180910390fd5b6000600660008373ffffffffffffffffffffffffffffffffffffffff1673ffffffffffffffffffffffffffffffffffffffff16815260200190815260200160002060006101000a81548160ff0219169083151502179055508073ffffffffffffffffffffffffffffffffffffffff167fc3776b472ebf54114339eec9e4dc924e7ce307a97f5c1ee72b6d474e6e5e8b7c60405160405180910390a250565b600760009054906101000a900473ffffffffffffffffffffffffffffffffffffffff1673ffffffffffffffffffffffffffffffffffffffff163373ffffffffffffffffffffffffffffffffffffffff16148061163b5750600460009054906101000a900473ffffffffffffffffffffffffffffffffffffffff1673ffffffffffffffffffffffffffffffffffffffff163373ffffffffffffffffffffffffffffffffffffffff16145b6116ad576040517f08c379a000000000000000000000000000000000000000000000000000000000815260040180806020018281038252601e8152602001807f6f6e6c7920537570706c79436f6e74726f6c6c6572206f72204f776e6572000081525060200191505060405180910390fd5b600073ffffffffffffffffffffffffffffffffffffffff168173ffffffffffffffffffffffffffffffffffffffff161415611733576040517f08c379a000000000000000000000000000000000000000000000000000000000815260040180806020018281038252602c81526020018061326b602c913960400191505060405180910390fd5b8073ffffffffffffffffffffffffffffffffffffffff16600760009054906101000a900473ffffffffffffffffffffffffffffffffffffffff1673ffffffffffffffffffffffffffffffffffffffff167f40d53b0b666e4424f29d55244e7e171a1dc332acc11d04ed4abd884629d8cc9760405160405180910390a380600760006101000a81548173ffffffffffffffffffffffffffffffffffffffff021916908373ffffffffffffffffffffffffffffffffffffffff16021790555050565b600560009054906101000a900473ffffffffffffffffffffffffffffffffffffffff1673ffffffffffffffffffffffffffffffffffffffff163373ffffffffffffffffffffffffffffffffffffffff16148061189c5750600460009054906101000a900473ffffffffffffffffffffffffffffffffffffffff1673ffffffffffffffffffffffffffffffffffffffff163373ffffffffffffffffffffffffffffffffffffffff16145b6118f1576040517f08c379a00000000000000000000000000000000000000000000000000000000081526004018080602001828103825260228152602001806132976022913960400191505060405180910390fd5b8073ffffffffffffffffffffffffffffffffffffffff16600560009054906101000a900473ffffffffffffffffffffffffffffffffffffffff1673ffffffffffffffffffffffffffffffffffffffff167f95ff4672767f51ef22b849a36fe7f80b45f5ec99fb57828d24c6a71b0e97414660405160405180910390a380600560006101000a81548173ffffffffffffffffffffffffffffffffffffffff021916908373ffffffffffffffffffffffffffffffffffffffff16021790555050565b600460149054906101000a900460ff1681565b6000600160008373ffffffffffffffffffffffffffffffffffffffff1673ffffffffffffffffffffffffffffffffffffffff168152602001908152602001600020549050919050565b60008054906101000a900460ff1615611a8e576040517f08c379a00000000000000000000000000000000000000000000000000000000081526004018080602001828103825260138152602001807f616c726561647920696e697469616c697a65640000000000000000000000000081525060200191505060405180910390fd5b33600460006101000a81548173ffffffffffffffffffffffffffffffffffffffff021916908373ffffffffffffffffffffffffffffffffffffffff1602179055506000600560006101000a81548173ffffffffffffffffffffffffffffffffffffffff021916908373ffffffffffffffffffffffffffffffffffffffff160217905550600060028190555033600760006101000a81548173ffffffffffffffffffffffffffffffffffffffff021916908373ffffffffffffffffffffffffffffffffffffffff16021790555060016000806101000a81548160ff021916908315150217905550565b600460009054906101000a900473ffffffffffffffffffffffffffffffffffffffff1673ffffffffffffffffffffffffffffffffffffffff163373ffffffffffffffffffffffffffffffffffffffff1614611c39576040517f08c379a00000000000000000000000000000000000000000000000000000000081526004018080602001828103825260098152602001807f6f6e6c794f776e6572000000000000000000000000000000000000000000000081525060200191505060405180910390fd5b600460149054906101000a900460ff1615611cbc576040517f08c379a000000000000000000000000000000000000000000000000000000000815260040180806020018281038252600e8152602001807f616c72656164792070617573656400000000000000000000000000000000000081525060200191505060405180910390fd5b6001600460146101000a81548160ff0219169083151502179055507f6985a02210a168e66602d3235cb6db0e70f92b3ba4d376a33c0f3d9434bff62560405160405180910390a1565b600560009054906101000a900473ffffffffffffffffffffffffffffffffffffffff1673ffffffffffffffffffffffffffffffffffffffff163373ffffffffffffffffffffffffffffffffffffffff1614611dc8576040517f08c379a00000000000000000000000000000000000000000000000000000000081526004018080602001828103825260198152602001807f6f6e6c7920636f696e56656c6f6369747956657269666965720000000000000081525060200191505060405180910390fd5b600660008273ffffffffffffffffffffffffffffffffffffffff1673ffffffffffffffffffffffffffffffffffffffff16815260200190815260200160002060009054906101000a900460ff1615611e88576040517f08c379a00000000000000000000000000000000000000000000000000000000081526004018080602001828103825260168152602001807f6164647265737320616c72656164792066726f7a656e0000000000000000000081525060200191505060405180910390fd5b6001600660008373ffffffffffffffffffffffffffffffffffffffff1673ffffffffffffffffffffffffffffffffffffffff16815260200190815260200160002060006101000a81548160ff0219169083151502179055508073ffffffffffffffffffffffffffffffffffffffff167f90811a8edd3b3c17eeaefffc17f639cc69145d41a359c9843994dc253820369060405160405180910390a250565b600460009054906101000a900473ffffffffffffffffffffffffffffffffffffffff1681565b6040518060400160405280600381526020017f424343000000000000000000000000000000000000000000000000000000000081525081565b6000600760009054906101000a900473ffffffffffffffffffffffffffffffffffffffff1673ffffffffffffffffffffffffffffffffffffffff163373ffffffffffffffffffffffffffffffffffffffff161461204a576040517f08c379a00000000000000000000000000000000000000000000000000000000081526004018080602001828103825260148152602001807f6f6e6c79537570706c79436f6e74726f6c6c657200000000000000000000000081525060200191505060405180910390fd5b60016000600760009054906101000a900473ffffffffffffffffffffffffffffffffffffffff1673ffffffffffffffffffffffffffffffffffffffff1673ffffffffffffffffffffffffffffffffffffffff16815260200190815260200160002054821115612121576040517f08c379a00000000000000000000000000000000000000000000000000000000081526004018080602001828103825260118152602001807f6e6f7420656e6f75676820737570706c7900000000000000000000000000000081525060200191505060405180910390fd5b6121958260016000600760009054906101000a900473ffffffffffffffffffffffffffffffffffffffff1673ffffffffffffffffffffffffffffffffffffffff1673ffffffffffffffffffffffffffffffffffffffff168152602001908152602001600020546130af90919063ffffffff16565b60016000600760009054906101000a900473ffffffffffffffffffffffffffffffffffffffff1673ffffffffffffffffffffffffffffffffffffffff1673ffffffffffffffffffffffffffffffffffffffff1681526020019081526020016000208190555061220f826002546130af90919063ffffffff16565b600281905550600760009054906101000a900473ffffffffffffffffffffffffffffffffffffffff1673ffffffffffffffffffffffffffffffffffffffff167f1b7e18241beced0d7f41fbab1ea8ed468732edbcb74ec4420151654ca71c8a63836040518082815260200191505060405180910390a2600073ffffffffffffffffffffffffffffffffffffffff16600760009054906101000a900473ffffffffffffffffffffffffffffffffffffffff1673ffffffffffffffffffffffffffffffffffffffff167fddf252ad1be2c89b69c2b068fc378daa952ba7f163c4a11628f55a4df523b3ef846040518082815260200191505060405180910390a360019050919050565b600560009054906101000a900473ffffffffffffffffffffffffffffffffffffffff1681565b6000600460149054906101000a900460ff16156123c1576040517f08c379a000000000000000000000000000000000000000000000000000000000815260040180806020018281038252600d8152602001807f7768656e4e6f745061757365640000000000000000000000000000000000000081525060200191505060405180910390fd5b600073ffffffffffffffffffffffffffffffffffffffff168373ffffffffffffffffffffffffffffffffffffffff161415612464576040517f08c379a000000000000000000000000000000000000000000000000000000000815260040180806020018281038252601f8152602001807f63616e6e6f74207472616e7366657220746f2061646472657373207a65726f0081525060200191505060405180910390fd5b600660008473ffffffffffffffffffffffffffffffffffffffff1673ffffffffffffffffffffffffffffffffffffffff16815260200190815260200160002060009054906101000a900460ff161580156125085750600660003373ffffffffffffffffffffffffffffffffffffffff1673ffffffffffffffffffffffffffffffffffffffff16815260200190815260200160002060009054906101000a900460ff16155b61257a576040517f08c379a000000000000000000000000000000000000000000000000000000000815260040180806020018281038252600e8152602001807f616464726573732066726f7a656e00000000000000000000000000000000000081525060200191505060405180910390fd5b600160003373ffffffffffffffffffffffffffffffffffffffff1673ffffffffffffffffffffffffffffffffffffffff1681526020019081526020016000205482111561262f576040517f08c379a00000000000000000000000000000000000000000000000000000000081526004018080602001828103825260128152602001807f696e73756666696369656e742066756e6473000000000000000000000000000081525060200191505060405180910390fd5b61268182600160003373ffffffffffffffffffffffffffffffffffffffff1673ffffffffffffffffffffffffffffffffffffffff168152602001908152602001600020546130af90919063ffffffff16565b600160003373ffffffffffffffffffffffffffffffffffffffff1673ffffffffffffffffffffffffffffffffffffffff1681526020019081526020016000208190555061271682600160008673ffffffffffffffffffffffffffffffffffffffff1673ffffffffffffffffffffffffffffffffffffffff168152602001908152602001600020546130f990919063ffffffff16565b600160008573ffffffffffffffffffffffffffffffffffffffff1673ffffffffffffffffffffffffffffffffffffffff168152602001908152602001600020819055508273ffffffffffffffffffffffffffffffffffffffff163373ffffffffffffffffffffffffffffffffffffffff167fddf252ad1be2c89b69c2b068fc378daa952ba7f163c4a11628f55a4df523b3ef846040518082815260200191505060405180910390a36001905092915050565b6000600760009054906101000a900473ffffffffffffffffffffffffffffffffffffffff1673ffffffffffffffffffffffffffffffffffffffff163373ffffffffffffffffffffffffffffffffffffffff161461288d576040517f08c379a00000000000000000000000000000000000000000000000000000000081526004018080602001828103825260148152602001807f6f6e6c79537570706c79436f6e74726f6c6c657200000000000000000000000081525060200191505060405180910390fd5b6128a2826002546130f990919063ffffffff16565b60028190555061291c8260016000600760009054906101000a900473ffffffffffffffffffffffffffffffffffffffff1673ffffffffffffffffffffffffffffffffffffffff1673ffffffffffffffffffffffffffffffffffffffff168152602001908152602001600020546130f990919063ffffffff16565b60016000600760009054906101000a900473ffffffffffffffffffffffffffffffffffffffff1673ffffffffffffffffffffffffffffffffffffffff1673ffffffffffffffffffffffffffffffffffffffff16815260200190815260200160002081905550600760009054906101000a900473ffffffffffffffffffffffffffffffffffffffff1673ffffffffffffffffffffffffffffffffffffffff167ff5c174d57843e57fea3c649fdde37f015ef08750759cbee88060390566a98797836040518082815260200191505060405180910390a2600760009054906101000a900473ffffffffffffffffffffffffffffffffffffffff1673ffffffffffffffffffffffffffffffffffffffff16600073ffffffffffffffffffffffffffffffffffffffff167fddf252ad1be2c89b69c2b068fc378daa952ba7f163c4a11628f55a4df523b3ef846040518082815260200191505060405180910390a360019050919050565b6000600360008473ffffffffffffffffffffffffffffffffffffffff1673ffffffffffffffffffffffffffffffffffffffff16815260200190815260200160002060008373ffffffffffffffffffffffffffffffffffffffff1673ffffffffffffffffffffffffffffffffffffffff16815260200190815260200160002054905092915050565b600560009054906101000a900473ffffffffffffffffffffffffffffffffffffffff1673ffffffffffffffffffffffffffffffffffffffff163373ffffffffffffffffffffffffffffffffffffffff1614612bcc576040517f08c379a00000000000000000000000000000000000000000000000000000000081526004018080602001828103825260198152602001807f6f6e6c7920636f696e56656c6f6369747956657269666965720000000000000081525060200191505060405180910390fd5b600660008273ffffffffffffffffffffffffffffffffffffffff1673ffffffffffffffffffffffffffffffffffffffff16815260200190815260200160002060009054906101000a900460ff16612c8b576040517f08c379a00000000000000000000000000000000000000000000000000000000081526004018080602001828103825260158152602001807f61646472657373206973206e6f742066726f7a656e000000000000000000000081525060200191505060405180910390fd5b6000600160008373ffffffffffffffffffffffffffffffffffffffff1673ffffffffffffffffffffffffffffffffffffffff1681526020019081526020016000205490506000600160008473ffffffffffffffffffffffffffffffffffffffff1673ffffffffffffffffffffffffffffffffffffffff16815260200190815260200160002081905550612d29816002546130af90919063ffffffff16565b6002819055508173ffffffffffffffffffffffffffffffffffffffff167ffc5960f1c5a5d2b60f031bf534af053b1bf7d9881989afaeb8b1d164db23aede60405160405180910390a28173ffffffffffffffffffffffffffffffffffffffff167f1b7e18241beced0d7f41fbab1ea8ed468732edbcb74ec4420151654ca71c8a63826040518082815260200191505060405180910390a2600073ffffffffffffffffffffffffffffffffffffffff168273ffffffffffffffffffffffffffffffffffffffff167fddf252ad1be2c89b69c2b068fc378daa952ba7f163c4a11628f55a4df523b3ef836040518082815260200191505060405180910390a35050565b6000600660008373ffffffffffffffffffffffffffffffffffffffff1673ffffffffffffffffffffffffffffffffffffffff16815260200190815260200160002060009054906101000a900460ff169050919050565b600760009054906101000a900473ffffffffffffffffffffffffffffffffffffffff1681565b600460009054906101000a900473ffffffffffffffffffffffffffffffffffffffff1673ffffffffffffffffffffffffffffffffffffffff163373ffffffffffffffffffffffffffffffffffffffff1614612f69576040517f08c379a00000000000000000000000000000000000000000000000000000000081526004018080602001828103825260098152602001807f6f6e6c794f776e6572000000000000000000000000000000000000000000000081525060200191505060405180910390fd5b600073ffffffffffffffffffffffffffffffffffffffff168173ffffffffffffffffffffffffffffffffffffffff161415612fef576040517f08c379a00000000000000000000000000000000000000000000000000000000081526004018080602001828103825260298152602001806132426029913960400191505060405180910390fd5b8073ffffffffffffffffffffffffffffffffffffffff16600460009054906101000a900473ffffffffffffffffffffffffffffffffffffffff1673ffffffffffffffffffffffffffffffffffffffff167f8be0079c531659141344cd1fd0a4f28419497f9722a3daafe3b4186f6b6457e060405160405180910390a380600460006101000a81548173ffffffffffffffffffffffffffffffffffffffff021916908373ffffffffffffffffffffffffffffffffffffffff16021790555050565b60006130f183836040518060400160405280601e81526020017f536166654d6174683a207375627472616374696f6e206f766572666c6f770000815250613181565b905092915050565b600080828401905083811015613177576040517f08c379a000000000000000000000000000000000000000000000000000000000815260040180806020018281038252601b8152602001807f536166654d6174683a206164646974696f6e206f766572666c6f77000000000081525060200191505060405180910390fd5b8091505092915050565b600083831115829061322e576040517f08c379a00000000000000000000000000000000000000000000000000000000081526004018080602001828103825283818151815260200191508051906020019080838360005b838110156131f35780820151818401526020810190506131d8565b50505050905090810190601f1680156132205780820380516001836020036101000a031916815260200191505b509250505060405180910390fd5b506000838503905080915050939250505056fe63616e6e6f74207472616e73666572206f776e65727368697020746f2061646472657373207a65726f63616e6e6f742073657420737570706c7920636f6e74726f6c6c657220746f2061646472657373207a65726f6f6e6c7920636f696e56656c6f636974795665726966696572206f72204f776e6572a26469706673582212203dbd1272d74fedd4b863c69060b62044c41d6fb6db02b1d8795ee84192afbac464736f6c63430007060033",
  "immutableReferences": {},
  "source": "// SPDX-License-Identifier: MIT\n\npragma solidity >=0.6.0 <0.8.0;\n\nimport \"./SafeMath.sol\";\nimport \"./BismuthToken.sol\";\nimport \"./BismuthVelocityVerifier.sol\";\n\n/**\n * @title BBismuthCoin\n * @dev this contract is a Pausable ERC20 token with Burn and Mint\n * controleld by a central SupplyController. By implementing BCC StablecoinImplementation\n * this contract also includes external methods for setting\n * a new implementation contract for the Proxy.\n * NOTE: The storage defined here will actually be held in the Proxy\n * contract and all calls to this contract should be made through\n * the proxy, including admin actions done as owner or supplyController.\n * Any call to transfer against this contract should fail\n * with insufficient funds since no tokens will be issued there.\n */\ncontract BismuthCoin {\n\n\n    using SafeMath for uint256;\n\n\n    // INITIALIZATION DATA\n    bool private initialized = false;\n\n    // ERC20 BASIC DATA\n    mapping(address => uint256) internal balances;\n    uint256 internal totalSupply_;\n    string public constant name = \"BCC\"; // solium-disable-line uppercase\n    string public constant symbol = \"BCC\"; // solium-disable-line uppercase\n    uint8 public constant decimals = 18; // solium-disable-line uppercase\n\n    // ERC20 DATA\n    mapping (address => mapping (address => uint256)) internal allowed;\n\n    // OWNER DATA\n    address public owner;\n\n    // PAUSABILITY DATA\n    bool public paused = false;\n\n    // AGGREGATOR DATA\n    address public coinVelocityVerifier;\n    mapping(address => bool) internal frozen;\n\n    // SUPPLY CONTROL DATA\n    address public supplyController;\n\n    /**\n     * EVENTS\n     */\n\n    // ERC20 BASIC EVENTS\n    event Transfer(address indexed from, address indexed to, uint256 value);\n\n    // ERC20 EVENTS\n    event Approval(\n        address indexed owner,\n        address indexed spender,\n        uint256 value\n    );\n\n    // OWNABLE EVENTS\n    event OwnershipTransferred(\n        address indexed oldOwner,\n        address indexed newOwner\n    );\n\n    // PAUSABLE EVENTS\n    event Pause();\n    event Unpause();\n\n    // LAW ENFORCEMENT EVENTS\n    event AddressFrozen(address indexed addr);\n    event AddressUnfrozen(address indexed addr);\n    event FrozenAddressWiped(address indexed addr);\n    event coinVeolocityVerifierSet (\n        address indexed oldCoinVelocityVerifier,\n        address indexed newCoinVelocityVerifier\n    );\n\n    // SUPPLY CONTROL EVENTS\n    event SupplyIncreased(address indexed to, uint256 value);\n    event SupplyDecreased(address indexed from, uint256 value);\n    event SupplyControllerSet(\n        address indexed oldSupplyController,\n        address indexed newSupplyController\n    );\n\n    /**\n     * FUNCTIONALITY\n     */\n\n    // INITIALIZATION FUNCTIONALITY\n\n    /**\n     * @dev sets 0 initials tokens, the owner, and the supplyController.\n     * this serves as the constructor for the proxy but compiles to the\n     * memory model of the Implementation contract.\n     */\n    function initialize() public {\n        require(!initialized, \"already initialized\");\n        owner = msg.sender;\n        coinVelocityVerifier = address(0);\n        totalSupply_ = 0;\n        supplyController = msg.sender;\n        initialized = true;\n    }\n\n    /**\n     * The constructor is used here to ensure that the implementation\n     * contract is initialized. An uncontrolled implementation\n     * contract might lead to misleading state\n     * for users who accidentally interact with it.\n     */\n    constructor() public {\n        initialize();\n        pause();\n    }\n\n    // ERC20 BASIC FUNCTIONALITY\n\n    /**\n    * @dev Total number of tokens in existence\n    */\n    function totalSupply() public view returns (uint256) {\n        return totalSupply_;\n    }\n\n    /**\n    * @dev Transfer token for a specified address\n    * @param _to The address to transfer to.\n    * @param _value The amount to be transferred.\n    */\n    function transfer(address _to, uint256 _value) public whenNotPaused returns (bool) {\n        require(_to != address(0), \"cannot transfer to address zero\");\n        require(!frozen[_to] && !frozen[msg.sender], \"address frozen\");\n        require(_value <= balances[msg.sender], \"insufficient funds\");\n\n        balances[msg.sender] = balances[msg.sender].sub(_value);\n        balances[_to] = balances[_to].add(_value);\n        emit Transfer(msg.sender, _to, _value);\n        return true;\n    }\n\n    /**\n    * @dev Gets the balance of the specified address.\n    * @param _addr The address to query the the balance of.\n    * @return An uint256 representing the amount owned by the passed address.\n    */\n    function balanceOf(address _addr) public view returns (uint256) {\n        return balances[_addr];\n    }\n\n    // ERC20 FUNCTIONALITY\n\n    /**\n     * @dev Transfer tokens from one address to another\n     * @param _from address The address which you want to send tokens from\n     * @param _to address The address which you want to transfer to\n     * @param _value uint256 the amount of tokens to be transferred\n     */\n    function transferFrom(\n        address _from,\n        address _to,\n        uint256 _value\n    )\n    public\n    whenNotPaused\n    returns (bool)\n    {\n        require(_to != address(0), \"cannot transfer to address zero\");\n        require(!frozen[_to] && !frozen[_from] && !frozen[msg.sender], \"address frozen\");\n        require(_value <= balances[_from], \"insufficient funds\");\n        require(_value <= allowed[_from][msg.sender], \"insufficient allowance\");\n\n        balances[_from] = balances[_from].sub(_value);\n        balances[_to] = balances[_to].add(_value);\n        allowed[_from][msg.sender] = allowed[_from][msg.sender].sub(_value);\n        emit Transfer(_from, _to, _value);\n        return true;\n    }\n\n    /**\n     * @dev Approve the passed address to spend the specified amount of tokens on behalf of msg.sender.\n     * Beware that changing an allowance with this method brings the risk that someone may use both the old\n     * and the new allowance by unfortunate transaction ordering. One possible solution to mitigate this\n     * race condition is to first reduce the spender's allowance to 0 and set the desired value afterwards:\n     * https://github.com/ethereum/EIPs/issues/20#issuecomment-263524729\n     * @param _spender The address which will spend the funds.\n     * @param _value The amount of tokens to be spent.\n     */\n    function approve(address _spender, uint256 _value) public whenNotPaused returns (bool) {\n        require(!frozen[_spender] && !frozen[msg.sender], \"address frozen\");\n        allowed[msg.sender][_spender] = _value;\n        emit Approval(msg.sender, _spender, _value);\n        return true;\n    }\n\n    /**\n     * @dev Function to check the amount of tokens that an owner allowed to a spender.\n     * @param _owner address The address which owns the funds.\n     * @param _spender address The address which will spend the funds.\n     * @return A uint256 specifying the amount of tokens still available for the spender.\n     */\n    function allowance(\n        address _owner,\n        address _spender\n    )\n    public\n    view\n    returns (uint256)\n    {\n        return allowed[_owner][_spender];\n    }\n\n    // OWNER FUNCTIONALITY\n\n    /**\n     * @dev Throws if called by any account other than the owner.\n     */\n    modifier onlyOwner() {\n        require(msg.sender == owner, \"onlyOwner\");\n        _;\n    }\n\n    /**\n     * @dev Allows the current owner to transfer control of the contract to a newOwner.\n     * @param _newOwner The address to transfer ownership to.\n     */\n    function transferOwnership(address _newOwner) public onlyOwner {\n        require(_newOwner != address(0), \"cannot transfer ownership to address zero\");\n        emit OwnershipTransferred(owner, _newOwner);\n        owner = _newOwner;\n    }\n\n    // PAUSABILITY FUNCTIONALITY\n\n    /**\n     * @dev Modifier to make a function callable only when the contract is not paused.\n     */\n    modifier whenNotPaused() {\n        require(!paused, \"whenNotPaused\");\n        _;\n    }\n\n    /**\n     * @dev called by the owner to pause, triggers stopped state\n     */\n    function pause() public onlyOwner {\n        require(!paused, \"already paused\");\n        paused = true;\n        emit Pause();\n    }\n\n    /**\n     * @dev called by the owner to unpause, returns to normal state\n     */\n    function unpause() public onlyOwner {\n        require(paused, \"already unpaused\");\n        paused = false;\n        emit Unpause();\n    }\n\n    // COIN VOTE VERIFIER FUNCTIONALITY\n\n    /**\n     * @dev Sets a new law enforcement role address.\n     * @param _newCoinVelocityVerifier The new address allowed to freeze/unfreeze addresses and seize their tokens.\n     */\n    function setCoinVelocityVerifier(address _newCoinVelocityVerifier) public {\n        require(msg.sender == coinVelocityVerifier || msg.sender == owner, \"only coinVelocityVerifier or Owner\");\n        emit coinVeolocityVerifierSet(coinVelocityVerifier, _newCoinVelocityVerifier);\n        coinVelocityVerifier = _newCoinVelocityVerifier;\n    }\n\n    modifier onlyCoinVelocityVerifier() {\n        require(msg.sender == coinVelocityVerifier, \"only coinVelocityVerifier\");\n        _;\n    }\n\n    /**\n     * @dev Freezes an address balance from being transferred.\n     * @param _addr The new address to freeze.\n     */\n    function freeze(address _addr) public onlyCoinVelocityVerifier {\n        require(!frozen[_addr], \"address already frozen\");\n        frozen[_addr] = true;\n        emit AddressFrozen(_addr);\n    }\n\n    /**\n     * @dev Unfreezes an address balance allowing transfer.\n     * @param _addr The new address to unfreeze.\n     */\n    function unfreeze(address _addr) public onlyCoinVelocityVerifier {\n        require(frozen[_addr], \"address already unfrozen\");\n        frozen[_addr] = false;\n        emit AddressUnfrozen(_addr);\n    }\n\n    /**\n     * @dev Wipes the balance of a frozen address, burning the tokens\n     * and setting the approval to zero.\n     * @param _addr The new frozen address to wipe.\n     */\n    function wipeFrozenAddress(address _addr) public onlyCoinVelocityVerifier {\n        require(frozen[_addr], \"address is not frozen\");\n        uint256 _balance = balances[_addr];\n        balances[_addr] = 0;\n        totalSupply_ = totalSupply_.sub(_balance);\n        emit FrozenAddressWiped(_addr);\n        emit SupplyDecreased(_addr, _balance);\n        emit Transfer(_addr, address(0), _balance);\n    }\n\n    /**\n    * @dev Gets the balance of the specified address.\n    * @param _addr The address to check if frozen.\n    * @return A bool representing whether the given address is frozen.\n    */\n    function isFrozen(address _addr) public view returns (bool) {\n        return frozen[_addr];\n    }\n\n    // SUPPLY CONTROL FUNCTIONALITY\n\n    /**\n     * @dev Sets a new supply controller address.\n     * @param _newSupplyController The address allowed to burn/mint tokens to control supply.\n     */\n    function setSupplyController(address _newSupplyController) public {\n        require(msg.sender == supplyController || msg.sender == owner, \"only SupplyController or Owner\");\n        require(_newSupplyController != address(0), \"cannot set supply controller to address zero\");\n        emit SupplyControllerSet(supplyController, _newSupplyController);\n        supplyController = _newSupplyController;\n    }\n\n    modifier onlySupplyController() {\n        require(msg.sender == supplyController, \"onlySupplyController\");\n        _;\n    }\n\n\n    function increaseSupply(uint256 _value) public onlySupplyController returns (bool success) {\n        totalSupply_ = totalSupply_.add(_value);\n        balances[supplyController] = balances[supplyController].add(_value);\n        emit SupplyIncreased(supplyController, _value);\n        emit Transfer(address(0), supplyController, _value);\n        return true;\n    }\n\n\n    function decreaseSupply(uint256 _value) public onlySupplyController returns (bool success) {\n        require(_value <= balances[supplyController], \"not enough supply\");\n        balances[supplyController] = balances[supplyController].sub(_value);\n        totalSupply_ = totalSupply_.sub(_value);\n        emit SupplyDecreased(supplyController, _value);\n        emit Transfer(supplyController, address(0), _value);\n        return true;\n    }\n    \n}\n",
  "sourcePath": "/Users/gokulalex/Apps/eth_apps/Bismuth/contracts/BismuthCoin.sol",
  "compiler": {
    "name": "solc",
    "version": "0.7.6+commit.7338295f.Emscripten.clang"
  },
  "schemaVersion": "3.3.3",
  "updatedAt": "2020-12-23T16:25:05.843Z",
  "devdoc": {
    "details": "this contract is a Pausable ERC20 token with Burn and Mint controleld by a central SupplyController. By implementing BCC StablecoinImplementation this contract also includes external methods for setting a new implementation contract for the Proxy. NOTE: The storage defined here will actually be held in the Proxy contract and all calls to this contract should be made through the proxy, including admin actions done as owner or supplyController. Any call to transfer against this contract should fail with insufficient funds since no tokens will be issued there.",
    "kind": "dev",
    "methods": {
      "allowance(address,address)": {
        "details": "Function to check the amount of tokens that an owner allowed to a spender.",
        "params": {
          "_owner": "address The address which owns the funds.",
          "_spender": "address The address which will spend the funds."
        },
        "returns": {
          "_0": "A uint256 specifying the amount of tokens still available for the spender."
        }
      },
      "approve(address,uint256)": {
        "details": "Approve the passed address to spend the specified amount of tokens on behalf of msg.sender. Beware that changing an allowance with this method brings the risk that someone may use both the old and the new allowance by unfortunate transaction ordering. One possible solution to mitigate this race condition is to first reduce the spender's allowance to 0 and set the desired value afterwards: https://github.com/ethereum/EIPs/issues/20#issuecomment-263524729",
        "params": {
          "_spender": "The address which will spend the funds.",
          "_value": "The amount of tokens to be spent."
        }
      },
      "balanceOf(address)": {
        "details": "Gets the balance of the specified address.",
        "params": {
          "_addr": "The address to query the the balance of."
        },
        "returns": {
          "_0": "An uint256 representing the amount owned by the passed address."
        }
      },
      "freeze(address)": {
        "details": "Freezes an address balance from being transferred.",
        "params": {
          "_addr": "The new address to freeze."
        }
      },
      "initialize()": {
        "details": "sets 0 initials tokens, the owner, and the supplyController. this serves as the constructor for the proxy but compiles to the memory model of the Implementation contract."
      },
      "isFrozen(address)": {
        "details": "Gets the balance of the specified address.",
        "params": {
          "_addr": "The address to check if frozen."
        },
        "returns": {
          "_0": "A bool representing whether the given address is frozen."
        }
      },
      "pause()": {
        "details": "called by the owner to pause, triggers stopped state"
      },
      "setCoinVelocityVerifier(address)": {
        "details": "Sets a new law enforcement role address.",
        "params": {
          "_newCoinVelocityVerifier": "The new address allowed to freeze/unfreeze addresses and seize their tokens."
        }
      },
      "setSupplyController(address)": {
        "details": "Sets a new supply controller address.",
        "params": {
          "_newSupplyController": "The address allowed to burn/mint tokens to control supply."
        }
      },
      "totalSupply()": {
        "details": "Total number of tokens in existence"
      },
      "transfer(address,uint256)": {
        "details": "Transfer token for a specified address",
        "params": {
          "_to": "The address to transfer to.",
          "_value": "The amount to be transferred."
        }
      },
      "transferFrom(address,address,uint256)": {
        "details": "Transfer tokens from one address to another",
        "params": {
          "_from": "address The address which you want to send tokens from",
          "_to": "address The address which you want to transfer to",
          "_value": "uint256 the amount of tokens to be transferred"
        }
      },
      "transferOwnership(address)": {
        "details": "Allows the current owner to transfer control of the contract to a newOwner.",
        "params": {
          "_newOwner": "The address to transfer ownership to."
        }
      },
      "unfreeze(address)": {
        "details": "Unfreezes an address balance allowing transfer.",
        "params": {
          "_addr": "The new address to unfreeze."
        }
      },
      "unpause()": {
        "details": "called by the owner to unpause, returns to normal state"
      },
      "wipeFrozenAddress(address)": {
        "details": "Wipes the balance of a frozen address, burning the tokens and setting the approval to zero.",
        "params": {
          "_addr": "The new frozen address to wipe."
        }
      }
    },
    "title": "BBismuthCoin",
    "version": 1
  },
  "userdoc": {
    "events": {
      "Transfer(address,address,uint256)": {
        "notice": "EVENTS"
      }
    },
    "kind": "user",
    "methods": {
      "constructor": {
        "notice": "The constructor is used here to ensure that the implementation contract is initialized. An uncontrolled implementation contract might lead to misleading state for users who accidentally interact with it."
      }
    },
    "version": 1
  }
}