{
  "contractName": "BurnVerifier",
  "abi": [
    {
      "inputs": [
        {
          "internalType": "address",
          "name": "_ip",
          "type": "address"
        }
      ],
      "stateMutability": "nonpayable",
      "type": "constructor"
    },
    {
      "inputs": [
        {
          "components": [
            {
              "internalType": "bytes32",
              "name": "x",
              "type": "bytes32"
            },
            {
              "internalType": "bytes32",
              "name": "y",
              "type": "bytes32"
            }
          ],
          "internalType": "struct Utils.G1Point",
          "name": "CLn",
          "type": "tuple"
        },
        {
          "components": [
            {
              "internalType": "bytes32",
              "name": "x",
              "type": "bytes32"
            },
            {
              "internalType": "bytes32",
              "name": "y",
              "type": "bytes32"
            }
          ],
          "internalType": "struct Utils.G1Point",
          "name": "CRn",
          "type": "tuple"
        },
        {
          "components": [
            {
              "internalType": "bytes32",
              "name": "x",
              "type": "bytes32"
            },
            {
              "internalType": "bytes32",
              "name": "y",
              "type": "bytes32"
            }
          ],
          "internalType": "struct Utils.G1Point",
          "name": "y",
          "type": "tuple"
        },
        {
          "internalType": "uint256",
          "name": "epoch",
          "type": "uint256"
        },
        {
          "components": [
            {
              "internalType": "bytes32",
              "name": "x",
              "type": "bytes32"
            },
            {
              "internalType": "bytes32",
              "name": "y",
              "type": "bytes32"
            }
          ],
          "internalType": "struct Utils.G1Point",
          "name": "u",
          "type": "tuple"
        },
        {
          "internalType": "address",
          "name": "sender",
          "type": "address"
        },
        {
          "internalType": "bytes",
          "name": "proof",
          "type": "bytes"
        }
      ],
      "name": "verifyBurn",
      "outputs": [
        {
          "internalType": "bool",
          "name": "",
          "type": "bool"
        }
      ],
      "stateMutability": "view",
      "type": "function"
    }
  ],
  "bytecode": "0x60806040523480156200001157600080fd5b506040516200212b3803806200212b833981810160405281019062000037919062000095565b806000806101000a81548173ffffffffffffffffffffffffffffffffffffffff021916908373ffffffffffffffffffffffffffffffffffffffff160217905550506200010f565b6000815190506200008f81620000f5565b92915050565b600060208284031215620000a857600080fd5b6000620000b8848285016200007e565b91505092915050565b6000620000ce82620000d5565b9050919050565b600073ffffffffffffffffffffffffffffffffffffffff82169050919050565b6200010081620000c1565b81146200010c57600080fd5b50565b61200c806200011f6000396000f3fe608060405234801561001057600080fd5b506004361061002b5760003560e01c806391d16ac814610030575b600080fd5b61004a60048036038101906100459190611939565b610060565b6040516100579190611d06565b60405180910390f35b600061006a611515565b88816000018190525087816020018190525086816040018190525085816060018181525050848160a0018190525083816080019073ffffffffffffffffffffffffffffffffffffffff16908173ffffffffffffffffffffffffffffffffffffffff168152505060006100db846100f6565b90506100e78282610412565b92505050979650505050505050565b6100fe611579565b6040518060400160405280610114846000610f7c565b8152602001610124846020610f7c565b81525081600001819052506040518060400160405280610145846040610f7c565b8152602001610155846060610f7c565b81525081602001819052506040518060400160405280610176846080610f7c565b81526020016101868460a0610f7c565b815250816040018190525060405180604001604052806101a78460c0610f7c565b81526020016101b78460e0610f7c565b81525081606001819052506101ce82610100610f7c565b60001c8160800181815250506101e682610120610f7c565b60001c8160a00181815250506101fe82610140610f7c565b60001c8160c001818152505061021682610160610f7c565b60001c8160e001818152505061022e82610180610f7c565b60001c81610100018181525050610247826101a0610f7c565b60001c8161012001818152505061025c6115f1565b600567ffffffffffffffff8111801561027457600080fd5b506040519080825280602002602001820160405280156102ae57816020015b61029b611619565b8152602001906001900390816102935790505b508160000181905250600567ffffffffffffffff811180156102cf57600080fd5b5060405190808252806020026020018201604052801561030957816020015b6102f6611619565b8152602001906001900390816102ee5790505b50816020018190525060005b60058110156103d157604051806040016040528061033a86604085026101c001610f7c565b815260200161035086604085026101e001610f7c565b8152508260000151828151811061036357fe5b6020026020010181905250604051806040016040528061038d86604085600501026101c001610f7c565b81526020016103a686604085600501026101e001610f7c565b815250826020015182815181106103b957fe5b60200260200101819052508080600101915050610315565b506103de83610440610f7c565b60001c8160400181815250506103f683610460610f7c565b60001c8160600181815250508082610140018190525050919050565b60008061046384600001518560200151866040015187606001518860800151604051602001610445959493929190611d61565b6040516020818303038152906040528051906020012060001c610f95565b905061046d611639565b6104ab828560000151866020015160405160200161048d93929190611dd0565b6040516020818303038152906040528051906020012060001c610f95565b816000018181525050600181602001516000602081106104c757fe5b6020020181815250506001816101000181815250506000600190505b60208110156105765761051a82600001518360200151600184036020811061050757fe5b6020020151610fc890919063ffffffff16565b8260200151826020811061052a57fe5b60200201818152505061055f8260200151826020811061054657fe5b6020020151836101000151610ffd90919063ffffffff16565b8261010001818152505080806001019150506104e3565b506105ad816000015160405160200161058f9190611db5565b6040516020818303038152906040528051906020012060001c610f95565b8160400181815250506105d181604001518260400151610fc890919063ffffffff16565b81606001516000600181106105e257fe5b6020020181815250506106178160400151826060015160006001811061060457fe5b6020020151610fc890919063ffffffff16565b8160800181815250506106a661065582608001516106476401000000008560800151610fc890919063ffffffff16565b61103290919063ffffffff16565b610698610684846060015160006001811061066c57fe5b6020020151856040015161103290919063ffffffff16565b846101000151610fc890919063ffffffff16565b61103290919063ffffffff16565b816101000181815250506106cc816101000151856080015161103290919063ffffffff16565b8160e001818152505060005b60208110156107335761070d816001901b83606001516000600181106106fa57fe5b6020020151610fc890919063ffffffff16565b8260a00151826020811061071d57fe5b60200201818152505080806001019150506106d8565b5061077681604001518560400151866060015160405160200161075893929190611dd0565b6040516020818303038152906040528051906020012060001c610f95565b8160c00181815250506107dc6107b36107a08360c001518460c00151610fc890919063ffffffff16565b866060015161107290919063ffffffff16565b6107ce8360c00151876040015161107290919063ffffffff16565b6110ab90919063ffffffff16565b8161012001819052506107ed6116a4565b61083f6108136108008760c001516110ef565b886040015161107290919063ffffffff16565b6108318760e0015161082361111b565b61107290919063ffffffff16565b6110ab90919063ffffffff16565b81602001819052506108ed6108c0836060015160006001811061085e57fe5b60200201516108b26108896108768a60c001516110ef565b8b6000015161107290919063ffffffff16565b6108a48a60e001518c6020015161107290919063ffffffff16565b6110ab90919063ffffffff16565b61107290919063ffffffff16565b6108df8761010001516108d161111b565b61107290919063ffffffff16565b6110ab90919063ffffffff16565b81604001819052506109b061091f6109098761010001516110ef565b61091161111b565b61107290919063ffffffff16565b6109a2610941886101200151610933611183565b61107290919063ffffffff16565b6109948960c0015161098661095a8961012001516111eb565b6109788a60e0015161096a61111b565b61107290919063ffffffff16565b6110ab90919063ffffffff16565b61107290919063ffffffff16565b6110ab90919063ffffffff16565b6110ab90919063ffffffff16565b81606001819052506109fb6040518060400160405280600681526020017f5a65746865720000000000000000000000000000000000000000000000000000815250876060015161123f565b8160800181905250610a52610a29610a168760c001516110ef565b8860a0015161107290919063ffffffff16565b610a448760e00151846080015161107290919063ffffffff16565b6110ab90919063ffffffff16565b8160a00181905250610aa88260c001518260200151836040015184606001518560a00151604051602001610a8a959493929190611e07565b6040516020818303038152906040528051906020012060001c610f95565b8160000181815250508460c00151816000015114610afb576040517f08c379a0000000000000000000000000000000000000000000000000000000008152600401610af290611d21565b60405180910390fd5b610b036116f8565b610b398260000151604051602001610b1b9190611db5565b6040516020818303038152906040528051906020012060001c610f95565b816080018181525050610b608160800151610b52611183565b61107290919063ffffffff16565b8160200181905250602067ffffffffffffffff81118015610b8057600080fd5b50604051908082528060200260200182016040528015610bba57816020015b610ba7611619565b815260200190600190039081610b9f5790505b50816040018190525060005b6020811015610d6557610ca5610bef85602001518360208110610be557fe5b60200201516112fd565b60008054906101000a900473ffffffffffffffffffffffffffffffffffffffff1673ffffffffffffffffffffffffffffffffffffffff16633844923b846040518263ffffffff1660e01b8152600401610c489190611db5565b604080518083038186803b158015610c5f57600080fd5b505afa158015610c73573d6000803e3d6000fd5b505050506040513d601f19601f82011682018060405250810190610c979190611910565b61107290919063ffffffff16565b82604001518281518110610cb557fe5b6020026020010181905250610d50610d3d610d178660a001518460208110610cd957fe5b6020020151610d09886040015189602001518760208110610cf657fe5b6020020151610fc890919063ffffffff16565b610ffd90919063ffffffff16565b84604001518481518110610d2757fe5b602002602001015161107290919063ffffffff16565b83606001516110ab90919063ffffffff16565b82606001819052508080600101915050610bc6565b50610de48160600151610dd6610d97610d8187604001516110ef565b610d89611333565b61107290919063ffffffff16565b610dc8610db58860c001518c6020015161107290919063ffffffff16565b8b600001516110ab90919063ffffffff16565b6110ab90919063ffffffff16565b6110ab90919063ffffffff16565b8160000181905250610e28610e15610dff8860a001516110ef565b610e07611183565b61107290919063ffffffff16565b82600001516110ab90919063ffffffff16565b8160000181905250610e61610e4e8760800151836020015161107290919063ffffffff16565b82600001516110ab90919063ffffffff16565b816000018190525060008054906101000a900473ffffffffffffffffffffffffffffffffffffffff1673ffffffffffffffffffffffffffffffffffffffff166397fa72ae8260400151836020015184600001518a610140015186608001516040518663ffffffff1660e01b8152600401610edf959493929190611ca5565b60206040518083038186803b158015610ef757600080fd5b505afa158015610f0b573d6000803e3d6000fd5b505050506040513d601f19601f82011682018060405250810190610f2f91906118e7565b610f6e576040517f08c379a0000000000000000000000000000000000000000000000000000000008152600401610f6590611d41565b60405180910390fd5b600194505050505092915050565b6000604051826020850101518152805191505092915050565b60007f30644e72e131a029b85045b68181585d2833e84879b9709143e1f593f00000018281610fc057fe5b069050919050565b60007f30644e72e131a029b85045b68181585d2833e84879b9709143e1f593f000000180610ff257fe5b828409905092915050565b60007f30644e72e131a029b85045b68181585d2833e84879b9709143e1f593f00000018061102757fe5b828408905092915050565b6000818310156110665782827f30644e72e131a029b85045b68181585d2833e84879b9709143e1f593f0000001030161106a565b8183035b905092915050565b61107a611619565b604051835181526020840151602082015282604082015260408260608360075afa6110a457600080fd5b5092915050565b6110b3611619565b6040518351815260208401516020820152825160408201526020830151606082015260408260808360065afa6110e857600080fd5b5092915050565b6000817f30644e72e131a029b85045b68181585d2833e84879b9709143e1f593f0000001039050919050565b611123611619565b60405180604001604052807f077da99d806abd13c9f15ece5398525119d11e11e9836b2ee7d23f6159ad87d460001b81526020017f01485efa927f2ad41bff567eec88f32fb0a0f706588b4e41a8d587d008b7f87560001b815250905090565b61118b611619565b60405180604001604052807f01b7de3dcf359928dd19f643d54dc487478b68a5b2634f9f1903c9fb78331aef60001b81526020017f2bda7d3ae6a557c716477c108be0d0f94abc6c4dc6b1bd93caccbcceaaa71d6b60001b815250905090565b6111f3611619565b604051806040016040528083600001518152602001836020015160001c7f30644e72e131a029b85045b68181585d97816a916871ca8d3c208c16d87cfd470360001b8152509050919050565b611247611619565b6112f57f30644e72e131a029b85045b68181585d97816a916871ca8d3c208c16d87cfd4784846040516020018083805190602001908083835b602083106112a35780518252602082019150602081019050602083039250611280565b6001836020036101000a038019825116818451168082178552505050505050905001828152602001925050506040516020818303038152906040528051906020012060001c816112ef57fe5b0661139b565b905092915050565b600061132c8260027f30644e72e131a029b85045b68181585d2833e84879b9709143e1f593f00000010361143f565b9050919050565b61133b611619565b60405180604001604052807f2257118d30fe5064dda298b2fac15cf96fd51f0e7e3df342d0aed40b8d7bb15160001b81526020017f0d4250e7509c99370e6b15ebfe4f1aa5e65a691133357901aa4b0641f96c80a860001b815250905090565b6113a3611619565b60005b60011561141c57600060036113bc8560036114aa565b0190506113f681600460017f30644e72e131a029b85045b68181585d97816a916871ca8d3c208c16d87cfd4701816113f057fe5b046114aa565b9150806114048360026114aa565b1415611410575061141c565b600184019350506113a6565b60405180604001604052808460001b81526020018260001b815250915050919050565b6000807f30644e72e131a029b85045b68181585d2833e84879b9709143e1f593f0000001905060405160208152602080820152602060408201528460608201528360808201528160a082015260208160c08360055afa61149e57600080fd5b80519250505092915050565b6000807f30644e72e131a029b85045b68181585d97816a916871ca8d3c208c16d87cfd47905060405160208152602080820152602060408201528460608201528360808201528160a082015260208160c08360055afa61150957600080fd5b80519250505092915050565b6040518060c00160405280611528611619565b8152602001611535611619565b8152602001611542611619565b815260200160008152602001600073ffffffffffffffffffffffffffffffffffffffff168152602001611573611619565b81525090565b60405180610160016040528061158d611619565b815260200161159a611619565b81526020016115a7611619565b81526020016115b4611619565b81526020016000815260200160008152602001600081526020016000815260200160008152602001600081526020016115eb6115f1565b81525090565b6040518060800160405280606081526020016060815260200160008152602001600081525090565b604051806040016040528060008019168152602001600080191681525090565b60405180610140016040528060008152602001611654611739565b81526020016000815260200161166861175c565b81526020016000815260200161167c611739565b815260200160008152602001600081526020016000815260200161169e611619565b81525090565b6040518060c00160405280600081526020016116be611619565b81526020016116cb611619565b81526020016116d8611619565b81526020016116e5611619565b81526020016116f2611619565b81525090565b6040518060a0016040528061170b611619565b8152602001611718611619565b81526020016060815260200161172c611619565b8152602001600081525090565b604051806104000160405280602090602082028036833780820191505090505090565b6040518060200160405280600190602082028036833780820191505090505090565b600061179161178c84611e8c565b611e5b565b9050828152602081018484840111156117a957600080fd5b6117b4848285611f69565b509392505050565b6000813590506117cb81611f7a565b92915050565b6000815190506117e081611f91565b92915050565b6000813590506117f581611fa8565b92915050565b60008151905061180a81611fa8565b92915050565b600082601f83011261182157600080fd5b813561183184826020860161177e565b91505092915050565b60006040828403121561184c57600080fd5b6118566040611e5b565b90506000611866848285016117e6565b600083015250602061187a848285016117e6565b60208301525092915050565b60006040828403121561189857600080fd5b6118a26040611e5b565b905060006118b2848285016117fb565b60008301525060206118c6848285016117fb565b60208301525092915050565b6000813590506118e181611fbf565b92915050565b6000602082840312156118f957600080fd5b6000611907848285016117d1565b91505092915050565b60006040828403121561192257600080fd5b600061193084828501611886565b91505092915050565b6000806000806000806000610160888a03121561195557600080fd5b60006119638a828b0161183a565b97505060406119748a828b0161183a565b96505060806119858a828b0161183a565b95505060c06119968a828b016118d2565b94505060e06119a78a828b0161183a565b9350506101206119b98a828b016117bc565b92505061014088013567ffffffffffffffff8111156119d757600080fd5b6119e38a828b01611810565b91505092959891949750929550565b60006119fe8383611bbf565b60408301905092915050565b611a1381611f17565b82525050565b6000611a2482611ecc565b611a2e8185611ee4565b9350611a3983611ebc565b8060005b83811015611a6a578151611a5188826119f2565b9750611a5c83611ed7565b925050600181019050611a3d565b5085935050505092915050565b6000611a8282611ecc565b611a8c8185611ef5565b9350611a9783611ebc565b8060005b83811015611ac8578151611aaf88826119f2565b9750611aba83611ed7565b925050600181019050611a9b565b5085935050505092915050565b611ade81611f29565b82525050565b611aed81611f35565b82525050565b6000611b00602a83611f06565b91507f5369676d612070726f746f636f6c206368616c6c656e676520657175616c697460008301527f79206661696c7572652e000000000000000000000000000000000000000000006020830152604082019050919050565b6000611b66602883611f06565b91507f496e6e65722070726f647563742070726f6f6620766572696669636174696f6e60008301527f206661696c65642e0000000000000000000000000000000000000000000000006020830152604082019050919050565b604082016000820151611bd56000850182611ae4565b506020820151611be86020850182611ae4565b50505050565b604082016000820151611c046000850182611ae4565b506020820151611c176020850182611ae4565b50505050565b60006080830160008301518482036000860152611c3a8282611a19565b91505060208301518482036020860152611c548282611a19565b9150506040830151611c696040860182611c87565b506060830151611c7c6060860182611c87565b508091505092915050565b611c9081611f5f565b82525050565b611c9f81611f5f565b82525050565b600060e0820190508181036000830152611cbf8188611a77565b9050611cce6020830187611bee565b611cdb6060830186611bee565b81810360a0830152611ced8185611c1d565b9050611cfc60c0830184611c96565b9695505050505050565b6000602082019050611d1b6000830184611ad5565b92915050565b60006020820190508181036000830152611d3a81611af3565b9050919050565b60006020820190508181036000830152611d5a81611b59565b9050919050565b600061010082019050611d776000830188611bee565b611d846040830187611bee565b611d916080830186611bee565b611d9e60c0830185611c96565b611dab60e0830184611a0a565b9695505050505050565b6000602082019050611dca6000830184611c96565b92915050565b600060a082019050611de56000830186611c96565b611df26020830185611bee565b611dff6060830184611bee565b949350505050565b600061012082019050611e1d6000830188611c96565b611e2a6020830187611bee565b611e376060830186611bee565b611e4460a0830185611bee565b611e5160e0830184611bee565b9695505050505050565b6000604051905081810181811067ffffffffffffffff82111715611e8257611e81611f78565b5b8060405250919050565b600067ffffffffffffffff821115611ea757611ea6611f78565b5b601f19601f8301169050602081019050919050565b6000819050602082019050919050565b600081519050919050565b6000602082019050919050565b600082825260208201905092915050565b600082825260208201905092915050565b600082825260208201905092915050565b6000611f2282611f3f565b9050919050565b60008115159050919050565b6000819050919050565b600073ffffffffffffffffffffffffffffffffffffffff82169050919050565b6000819050919050565b82818337600083830152505050565bfe5b611f8381611f17565b8114611f8e57600080fd5b50565b611f9a81611f29565b8114611fa557600080fd5b50565b611fb181611f35565b8114611fbc57600080fd5b50565b611fc881611f5f565b8114611fd357600080fd5b5056fea2646970667358221220dab3534378bcfaf787d33644c662075ef0fc36d09ab6b70f4e64ed894e07310864736f6c63430007060033",
  "immutableReferences": {},
  "source": "// SPDX-License-Identifier: Apache License 2.0\n\npragma solidity >=0.6.0 <0.8.0;\npragma experimental ABIEncoderV2;\n\nimport \"./Utils.sol\";\nimport \"./InnerProductVerifier.sol\";\n\ncontract BurnVerifier {\n    using Utils for uint256;\n    using Utils for Utils.G1Point;\n\n    InnerProductVerifier ip;\n\n    struct BurnStatement {\n        Utils.G1Point CLn;\n        Utils.G1Point CRn;\n        Utils.G1Point y;\n        uint256 epoch; // or uint8?\n        address sender;\n        Utils.G1Point u;\n    }\n\n    struct BurnProof {\n        Utils.G1Point BA;\n        Utils.G1Point BS;\n\n        Utils.G1Point T_1;\n        Utils.G1Point T_2;\n        uint256 tHat;\n        uint256 mu;\n\n        uint256 c;\n        uint256 s_sk;\n        uint256 s_b;\n        uint256 s_tau;\n\n        InnerProductVerifier.InnerProductProof ipProof;\n    }\n\n    constructor(address _ip) {\n        ip = InnerProductVerifier(_ip);\n    }\n\n    function verifyBurn(Utils.G1Point memory CLn, Utils.G1Point memory CRn, Utils.G1Point memory y, uint256 epoch, Utils.G1Point memory u, address sender, bytes memory proof) public view returns (bool) {\n        BurnStatement memory statement; // WARNING: if this is called directly in the console,\n        // and your strings are less than 64 characters, they will be padded on the right, not the left. should hopefully not be an issue,\n        // as this will typically be called simply by the other contract. still though, beware\n        statement.CLn = CLn;\n        statement.CRn = CRn;\n        statement.y = y;\n        statement.epoch = epoch;\n        statement.u = u;\n        statement.sender = sender;\n        BurnProof memory burnProof = unserialize(proof);\n        return verify(statement, burnProof);\n    }\n\n    struct BurnAuxiliaries {\n        uint256 y;\n        uint256[32] ys;\n        uint256 z;\n        uint256[1] zs; // silly. just to match zether.\n        uint256 zSum;\n        uint256[32] twoTimesZSquared;\n        uint256 x;\n        uint256 t;\n        uint256 k;\n        Utils.G1Point tEval;\n    }\n\n    struct SigmaAuxiliaries {\n        uint256 c;\n        Utils.G1Point A_y;\n        Utils.G1Point A_b;\n        Utils.G1Point A_t;\n        Utils.G1Point gEpoch;\n        Utils.G1Point A_u;\n    }\n\n    struct IPAuxiliaries {\n        Utils.G1Point P;\n        Utils.G1Point u_x;\n        Utils.G1Point[] hPrimes;\n        Utils.G1Point hPrimeSum;\n        uint256 o;\n    }\n\n    function gSum() internal pure returns (Utils.G1Point memory) {\n        return Utils.G1Point(0x2257118d30fe5064dda298b2fac15cf96fd51f0e7e3df342d0aed40b8d7bb151, 0x0d4250e7509c99370e6b15ebfe4f1aa5e65a691133357901aa4b0641f96c80a8);\n    }\n\n    function verify(BurnStatement memory statement, BurnProof memory proof) internal view returns (bool) {\n        uint256 statementHash = uint256(keccak256(abi.encode(statement.CLn, statement.CRn, statement.y, statement.epoch, statement.sender))).mod(); // stacktoodeep?\n\n        BurnAuxiliaries memory burnAuxiliaries;\n        burnAuxiliaries.y = uint256(keccak256(abi.encode(statementHash, proof.BA, proof.BS))).mod();\n        burnAuxiliaries.ys[0] = 1;\n        burnAuxiliaries.k = 1;\n        for (uint256 i = 1; i < 32; i++) {\n            burnAuxiliaries.ys[i] = burnAuxiliaries.ys[i - 1].mul(burnAuxiliaries.y);\n            burnAuxiliaries.k = burnAuxiliaries.k.add(burnAuxiliaries.ys[i]);\n        }\n        burnAuxiliaries.z = uint256(keccak256(abi.encode(burnAuxiliaries.y))).mod();\n        burnAuxiliaries.zs[0] = burnAuxiliaries.z.mul(burnAuxiliaries.z);\n        burnAuxiliaries.zSum = burnAuxiliaries.zs[0].mul(burnAuxiliaries.z); // trivial sum\n        burnAuxiliaries.k = burnAuxiliaries.k.mul(burnAuxiliaries.z.sub(burnAuxiliaries.zs[0])).sub(burnAuxiliaries.zSum.mul(1 << 32).sub(burnAuxiliaries.zSum));\n        burnAuxiliaries.t = proof.tHat.sub(burnAuxiliaries.k);\n        for (uint256 i = 0; i < 32; i++) {\n            burnAuxiliaries.twoTimesZSquared[i] = burnAuxiliaries.zs[0].mul(1 << i);\n        }\n\n        burnAuxiliaries.x = uint256(keccak256(abi.encode(burnAuxiliaries.z, proof.T_1, proof.T_2))).mod();\n        burnAuxiliaries.tEval = proof.T_1.mul(burnAuxiliaries.x).add(proof.T_2.mul(burnAuxiliaries.x.mul(burnAuxiliaries.x))); // replace with \"commit\"?\n\n        SigmaAuxiliaries memory sigmaAuxiliaries;\n        sigmaAuxiliaries.A_y = Utils.g().mul(proof.s_sk).add(statement.y.mul(proof.c.neg()));\n        sigmaAuxiliaries.A_b = Utils.g().mul(proof.s_b).add(statement.CRn.mul(proof.s_sk).add(statement.CLn.mul(proof.c.neg())).mul(burnAuxiliaries.zs[0]));\n        sigmaAuxiliaries.A_t = Utils.g().mul(burnAuxiliaries.t).add(burnAuxiliaries.tEval.neg()).mul(proof.c).add(Utils.h().mul(proof.s_tau)).add(Utils.g().mul(proof.s_b.neg()));\n        sigmaAuxiliaries.gEpoch = Utils.mapInto(\"Zether\", statement.epoch);\n        sigmaAuxiliaries.A_u = sigmaAuxiliaries.gEpoch.mul(proof.s_sk).add(statement.u.mul(proof.c.neg()));\n\n        sigmaAuxiliaries.c = uint256(keccak256(abi.encode(burnAuxiliaries.x, sigmaAuxiliaries.A_y, sigmaAuxiliaries.A_b, sigmaAuxiliaries.A_t, sigmaAuxiliaries.A_u))).mod();\n        require(sigmaAuxiliaries.c == proof.c, \"Sigma protocol challenge equality failure.\");\n\n        IPAuxiliaries memory ipAuxiliaries;\n        ipAuxiliaries.o = uint256(keccak256(abi.encode(sigmaAuxiliaries.c))).mod();\n        ipAuxiliaries.u_x = Utils.h().mul(ipAuxiliaries.o);\n        ipAuxiliaries.hPrimes = new Utils.G1Point[](32);\n        for (uint256 i = 0; i < 32; i++) {\n            ipAuxiliaries.hPrimes[i] = ip.hs(i).mul(burnAuxiliaries.ys[i].inv());\n            ipAuxiliaries.hPrimeSum = ipAuxiliaries.hPrimeSum.add(ipAuxiliaries.hPrimes[i].mul(burnAuxiliaries.ys[i].mul(burnAuxiliaries.z).add(burnAuxiliaries.twoTimesZSquared[i])));\n        }\n        ipAuxiliaries.P = proof.BA.add(proof.BS.mul(burnAuxiliaries.x)).add(gSum().mul(burnAuxiliaries.z.neg())).add(ipAuxiliaries.hPrimeSum);\n        ipAuxiliaries.P = ipAuxiliaries.P.add(Utils.h().mul(proof.mu.neg()));\n        ipAuxiliaries.P = ipAuxiliaries.P.add(ipAuxiliaries.u_x.mul(proof.tHat));\n        require(ip.verifyInnerProduct(ipAuxiliaries.hPrimes, ipAuxiliaries.u_x, ipAuxiliaries.P, proof.ipProof, ipAuxiliaries.o), \"Inner product proof verification failed.\");\n\n        return true;\n    }\n\n    function unserialize(bytes memory arr) internal pure returns (BurnProof memory proof) {\n        proof.BA = Utils.G1Point(Utils.slice(arr, 0), Utils.slice(arr, 32));\n        proof.BS = Utils.G1Point(Utils.slice(arr, 64), Utils.slice(arr, 96));\n\n        proof.T_1 = Utils.G1Point(Utils.slice(arr, 128), Utils.slice(arr, 160));\n        proof.T_2 = Utils.G1Point(Utils.slice(arr, 192), Utils.slice(arr, 224));\n        proof.tHat = uint256(Utils.slice(arr, 256));\n        proof.mu = uint256(Utils.slice(arr, 288));\n\n        proof.c = uint256(Utils.slice(arr, 320));\n        proof.s_sk = uint256(Utils.slice(arr, 352));\n        proof.s_b = uint256(Utils.slice(arr, 384));\n        proof.s_tau = uint256(Utils.slice(arr, 416));\n\n        InnerProductVerifier.InnerProductProof memory ipProof;\n        ipProof.L = new Utils.G1Point[](5);\n        ipProof.R = new Utils.G1Point[](5);\n        for (uint256 i = 0; i < 5; i++) { // 2^5 = 32.\n            ipProof.L[i] = Utils.G1Point(Utils.slice(arr, 448 + i * 64), Utils.slice(arr, 480 + i * 64));\n            ipProof.R[i] = Utils.G1Point(Utils.slice(arr, 448 + (5 + i) * 64), Utils.slice(arr, 480 + (5 + i) * 64));\n        }\n        ipProof.a = uint256(Utils.slice(arr, 448 + 5 * 128));\n        ipProof.b = uint256(Utils.slice(arr, 480 + 5 * 128));\n        proof.ipProof = ipProof;\n\n        return proof;\n    }\n}\n",
  "sourcePath": "/Users/gokulalex/Apps/bsc_apps/SemiotNet/contracts/BurnVerifier.sol",
  "compiler": {
    "name": "solc",
    "version": "0.7.6+commit.7338295f.Emscripten.clang"
  },
  "schemaVersion": "3.3.3",
  "updatedAt": "2021-02-20T05:25:46.612Z",
  "devdoc": {
    "kind": "dev",
    "methods": {},
    "version": 1
  },
  "userdoc": {
    "kind": "user",
    "methods": {},
    "version": 1
  }
}