{
  "contractName": "Ethereum934",
  "abi": [
    {
      "inputs": [
        {
          "internalType": "address",
          "name": "zkDepositAddr",
          "type": "address"
        },
        {
          "internalType": "address",
          "name": "zkRangeProofAddr",
          "type": "address"
        },
        {
          "internalType": "address",
          "name": "zkMimblewimbleAddr",
          "type": "address"
        },
        {
          "internalType": "address",
          "name": "zkMMRInclusionAddr",
          "type": "address"
        },
        {
          "internalType": "address",
          "name": "zkRollUp1Addr",
          "type": "address"
        },
        {
          "internalType": "address",
          "name": "zkRollUp2Addr",
          "type": "address"
        },
        {
          "internalType": "address",
          "name": "zkRollUp4Addr",
          "type": "address"
        },
        {
          "internalType": "address",
          "name": "zkRollUp8Addr",
          "type": "address"
        },
        {
          "internalType": "address",
          "name": "zkRollUp16Addr",
          "type": "address"
        },
        {
          "internalType": "address",
          "name": "zkRollUp32Addr",
          "type": "address"
        },
        {
          "internalType": "address",
          "name": "zkRollUp64Addr",
          "type": "address"
        },
        {
          "internalType": "address",
          "name": "zkWithdrawAddr",
          "type": "address"
        }
      ],
      "stateMutability": "nonpayable",
      "type": "constructor"
    },
    {
      "anonymous": false,
      "inputs": [
        {
          "indexed": false,
          "internalType": "address",
          "name": "erc20",
          "type": "address"
        },
        {
          "indexed": false,
          "internalType": "uint256",
          "name": "txo",
          "type": "uint256"
        }
      ],
      "name": "Mimblewimble",
      "type": "event"
    },
    {
      "anonymous": false,
      "inputs": [
        {
          "indexed": false,
          "internalType": "bytes32",
          "name": "id",
          "type": "bytes32"
        },
        {
          "indexed": false,
          "internalType": "address",
          "name": "erc20",
          "type": "address"
        },
        {
          "indexed": false,
          "internalType": "uint256",
          "name": "root",
          "type": "uint256"
        },
        {
          "indexed": false,
          "internalType": "uint256",
          "name": "newRoot",
          "type": "uint256"
        },
        {
          "indexed": false,
          "internalType": "uint256",
          "name": "items",
          "type": "uint256"
        }
      ],
      "name": "OptimisticRollUp",
      "type": "event"
    },
    {
      "anonymous": false,
      "inputs": [
        {
          "indexed": false,
          "internalType": "address",
          "name": "erc20",
          "type": "address"
        },
        {
          "indexed": false,
          "internalType": "uint256",
          "name": "root",
          "type": "uint256"
        },
        {
          "indexed": false,
          "internalType": "uint256",
          "name": "newRoot",
          "type": "uint256"
        },
        {
          "indexed": false,
          "internalType": "uint256",
          "name": "items",
          "type": "uint256"
        }
      ],
      "name": "RollUp",
      "type": "event"
    },
    {
      "inputs": [
        {
          "internalType": "address",
          "name": "",
          "type": "address"
        }
      ],
      "name": "deposits",
      "outputs": [
        {
          "internalType": "uint256",
          "name": "",
          "type": "uint256"
        }
      ],
      "stateMutability": "view",
      "type": "function"
    },
    {
      "inputs": [
        {
          "internalType": "address",
          "name": "erc20",
          "type": "address"
        },
        {
          "internalType": "uint256",
          "name": "tag",
          "type": "uint256"
        },
        {
          "internalType": "uint256",
          "name": "amount",
          "type": "uint256"
        },
        {
          "internalType": "uint256[2]",
          "name": "a",
          "type": "uint256[2]"
        },
        {
          "internalType": "uint256[2][2]",
          "name": "b",
          "type": "uint256[2][2]"
        },
        {
          "internalType": "uint256[2]",
          "name": "c",
          "type": "uint256[2]"
        }
      ],
      "name": "depositToMagicalWorld",
      "outputs": [],
      "stateMutability": "nonpayable",
      "type": "function"
    },
    {
      "inputs": [
        {
          "internalType": "address",
          "name": "erc20",
          "type": "address"
        },
        {
          "internalType": "uint256",
          "name": "root",
          "type": "uint256"
        },
        {
          "internalType": "uint256",
          "name": "newRoot",
          "type": "uint256"
        },
        {
          "internalType": "uint256[52][1]",
          "name": "mwTxs",
          "type": "uint256[52][1]"
        },
        {
          "internalType": "uint256[8]",
          "name": "rollUpProof",
          "type": "uint256[8]"
        }
      ],
      "name": "rollUp1Mimblewimble",
      "outputs": [],
      "stateMutability": "nonpayable",
      "type": "function"
    },
    {
      "inputs": [
        {
          "internalType": "address",
          "name": "erc20",
          "type": "address"
        },
        {
          "internalType": "uint256",
          "name": "root",
          "type": "uint256"
        },
        {
          "internalType": "uint256",
          "name": "newRoot",
          "type": "uint256"
        },
        {
          "internalType": "uint256[52][2]",
          "name": "mwTxs",
          "type": "uint256[52][2]"
        },
        {
          "internalType": "uint256[8]",
          "name": "rollUpProof",
          "type": "uint256[8]"
        }
      ],
      "name": "rollUp2Mimblewimble",
      "outputs": [],
      "stateMutability": "nonpayable",
      "type": "function"
    },
    {
      "inputs": [
        {
          "internalType": "address",
          "name": "erc20",
          "type": "address"
        },
        {
          "internalType": "uint256",
          "name": "root",
          "type": "uint256"
        },
        {
          "internalType": "uint256",
          "name": "newRoot",
          "type": "uint256"
        },
        {
          "internalType": "uint256[52][4]",
          "name": "mwTxs",
          "type": "uint256[52][4]"
        },
        {
          "internalType": "uint256[8]",
          "name": "rollUpProof",
          "type": "uint256[8]"
        }
      ],
      "name": "rollUp4Mimblewimble",
      "outputs": [],
      "stateMutability": "nonpayable",
      "type": "function"
    },
    {
      "inputs": [
        {
          "internalType": "address",
          "name": "erc20",
          "type": "address"
        },
        {
          "internalType": "uint256",
          "name": "root",
          "type": "uint256"
        },
        {
          "internalType": "uint256",
          "name": "newRoot",
          "type": "uint256"
        },
        {
          "internalType": "uint256[52][]",
          "name": "mwTxs",
          "type": "uint256[52][]"
        },
        {
          "internalType": "uint256[8]",
          "name": "rollUpProof",
          "type": "uint256[8]"
        }
      ],
      "name": "optimisticRollUpMimblewimble",
      "outputs": [],
      "stateMutability": "nonpayable",
      "type": "function"
    },
    {
      "inputs": [
        {
          "internalType": "bytes32",
          "name": "id",
          "type": "bytes32"
        }
      ],
      "name": "finalizeRollUp",
      "outputs": [],
      "stateMutability": "nonpayable",
      "type": "function"
    },
    {
      "inputs": [
        {
          "internalType": "address",
          "name": "erc20",
          "type": "address"
        },
        {
          "internalType": "uint256",
          "name": "root",
          "type": "uint256"
        },
        {
          "internalType": "uint256",
          "name": "newRoot",
          "type": "uint256"
        },
        {
          "internalType": "uint256[52][8]",
          "name": "mwTxs",
          "type": "uint256[52][8]"
        },
        {
          "internalType": "uint256[8]",
          "name": "rollUpProof",
          "type": "uint256[8]"
        },
        {
          "internalType": "uint256",
          "name": "challengeType",
          "type": "uint256"
        }
      ],
      "name": "challengeOptimisticRollUp8Mimblewimble",
      "outputs": [],
      "stateMutability": "nonpayable",
      "type": "function"
    },
    {
      "inputs": [
        {
          "internalType": "address",
          "name": "erc20",
          "type": "address"
        },
        {
          "internalType": "uint256",
          "name": "tag",
          "type": "uint256"
        },
        {
          "internalType": "uint256",
          "name": "value",
          "type": "uint256"
        },
        {
          "internalType": "uint256",
          "name": "root",
          "type": "uint256"
        },
        {
          "internalType": "uint256[2]",
          "name": "zkpA",
          "type": "uint256[2]"
        },
        {
          "internalType": "uint256[2][2]",
          "name": "zkpB",
          "type": "uint256[2][2]"
        },
        {
          "internalType": "uint256[2]",
          "name": "zkpC",
          "type": "uint256[2]"
        }
      ],
      "name": "withdrawToMuggleWorld",
      "outputs": [],
      "stateMutability": "nonpayable",
      "type": "function"
    },
    {
      "inputs": [
        {
          "internalType": "address",
          "name": "erc20",
          "type": "address"
        },
        {
          "internalType": "uint256",
          "name": "root",
          "type": "uint256"
        }
      ],
      "name": "roots",
      "outputs": [
        {
          "internalType": "bool",
          "name": "",
          "type": "bool"
        }
      ],
      "stateMutability": "view",
      "type": "function"
    },
    {
      "inputs": [
        {
          "internalType": "address",
          "name": "erc20",
          "type": "address"
        },
        {
          "internalType": "uint256",
          "name": "root",
          "type": "uint256"
        }
      ],
      "name": "width",
      "outputs": [
        {
          "internalType": "uint16",
          "name": "",
          "type": "uint16"
        }
      ],
      "stateMutability": "view",
      "type": "function"
    }
  ],
  "bytecode": "0x60806040526000600f553480156200001657600080fd5b506040516200593e3803806200593e83398181016040526101808110156200003d57600080fd5b810190808051906020019092919080519060200190929190805190602001909291908051906020019092919080519060200190929190805190602001909291908051906020019092919080519060200190929190805190602001909291908051906020019092919080519060200190929190805190602001909291905050508b6000806101000a81548173ffffffffffffffffffffffffffffffffffffffff021916908373ffffffffffffffffffffffffffffffffffffffff1602179055508a600360006101000a81548173ffffffffffffffffffffffffffffffffffffffff021916908373ffffffffffffffffffffffffffffffffffffffff16021790555089600160006101000a81548173ffffffffffffffffffffffffffffffffffffffff021916908373ffffffffffffffffffffffffffffffffffffffff16021790555088600260006101000a81548173ffffffffffffffffffffffffffffffffffffffff021916908373ffffffffffffffffffffffffffffffffffffffff16021790555087600460006101000a81548173ffffffffffffffffffffffffffffffffffffffff021916908373ffffffffffffffffffffffffffffffffffffffff16021790555086600560006101000a81548173ffffffffffffffffffffffffffffffffffffffff021916908373ffffffffffffffffffffffffffffffffffffffff16021790555085600660006101000a81548173ffffffffffffffffffffffffffffffffffffffff021916908373ffffffffffffffffffffffffffffffffffffffff16021790555084600760006101000a81548173ffffffffffffffffffffffffffffffffffffffff021916908373ffffffffffffffffffffffffffffffffffffffff16021790555083600860006101000a81548173ffffffffffffffffffffffffffffffffffffffff021916908373ffffffffffffffffffffffffffffffffffffffff16021790555082600960006101000a81548173ffffffffffffffffffffffffffffffffffffffff021916908373ffffffffffffffffffffffffffffffffffffffff16021790555081600a60006101000a81548173ffffffffffffffffffffffffffffffffffffffff021916908373ffffffffffffffffffffffffffffffffffffffff16021790555080600b60006101000a81548173ffffffffffffffffffffffffffffffffffffffff021916908373ffffffffffffffffffffffffffffffffffffffff16021790555050505050505050505050505061555b80620003e36000396000f3fe608060405234801561001057600080fd5b50600436106100a95760003560e01c806365d198f81161007157806365d198f814610523578063a9f0b15514610639578063dbbc390f1461074f578063f834833314610865578063fc0d46c1146108c9578063fc7e286d14610a27576100a9565b80631d2a56bf146100ae5780631df1fae81461021b57806342c910591461036f5780634bd6bc3f1461039d57806363a5269b14610403575b600080fd5b61021960048036036101808110156100c557600080fd5b81019080803573ffffffffffffffffffffffffffffffffffffffff16906020019092919080359060200190929190803590602001909291908035906020019064010000000081111561011657600080fd5b82018360208201111561012857600080fd5b803590602001918461068083028401116401000000008311171561014b57600080fd5b9190808060200260200160405190810160405280939291908181526020016000905b828210156101c557848483905061068002016034806020026040519081016040528092919082603460200280828437600081840152601f19601f8201169050808301925050505050508152602001906001019061016d565b505050505091929192908061010001906008806020026040519081016040528092919082600860200280828437600081840152601f19601f8201169050808301925050505050509192919290505050610a7f565b005b61036d600480360361016081101561023257600080fd5b81019080803573ffffffffffffffffffffffffffffffffffffffff169060200190929190803590602001909291908035906020019092919080604001906002806020026040519081016040528092919082600260200280828437600081840152601f19601f82011690508083019250505050505091929192908060800190600280602002604051908101604052809291906000905b8282101561031b578382604002016002806020026040519081016040528092919082600260200280828437600081840152601f19601f820116905080830192505050505050815260200190600101906102c7565b50505050919291929080604001906002806020026040519081016040528092919082600260200280828437600081840152601f19601f8201169050808301925050505050509192919290505050611017565b005b61039b6004803603602081101561038557600080fd5b8101908080359060200190929190505050611420565b005b6103e9600480360360408110156103b357600080fd5b81019080803573ffffffffffffffffffffffffffffffffffffffff16906020019092919080359060200190929190505050611a6d565b604051808261ffff16815260200191505060405180910390f35b610521600480360361358081101561041a57600080fd5b81019080803573ffffffffffffffffffffffffffffffffffffffff1690602001909291908035906020019092919080359060200190929190806134000190600880602002604051908101604052809291906000905b828210156104c457838261068002016034806020026040519081016040528092919082603460200280828437600081840152601f19601f8201169050808301925050505050508152602001906001019061046f565b5050505091929192908061010001906008806020026040519081016040528092919082600860200280828437600081840152601f19601f820116905080830192505050505050919291929080359060200190929190505050611ade565b005b61063760048036036107e081101561053a57600080fd5b81019080803573ffffffffffffffffffffffffffffffffffffffff1690602001909291908035906020019092919080359060200190929190806106800190600180602002604051908101604052809291906000905b828210156105e457838261068002016034806020026040519081016040528092919082603460200280828437600081840152601f19601f8201169050808301925050505050508152602001906001019061058f565b5050505091929192908061010001906008806020026040519081016040528092919082600860200280828437600081840152601f19601f8201169050808301925050505050509192919290505050611af5565b005b61074d6004803603611b6081101561065057600080fd5b81019080803573ffffffffffffffffffffffffffffffffffffffff169060200190929190803590602001909291908035906020019092919080611a000190600480602002604051908101604052809291906000905b828210156106fa57838261068002016034806020026040519081016040528092919082603460200280828437600081840152601f19601f820116905080830192505050505050815260200190600101906106a5565b5050505091929192908061010001906008806020026040519081016040528092919082600860200280828437600081840152601f19601f820116905080830192505050505050919291929050505061242d565b005b6108636004803603610e6081101561076657600080fd5b81019080803573ffffffffffffffffffffffffffffffffffffffff169060200190929190803590602001909291908035906020019092919080610d000190600280602002604051908101604052809291906000905b8282101561081057838261068002016034806020026040519081016040528092919082603460200280828437600081840152601f19601f820116905080830192505050505050815260200190600101906107bb565b5050505091929192908061010001906008806020026040519081016040528092919082600860200280828437600081840152601f19601f8201169050808301925050505050509192919290505050612f45565b005b6108b16004803603604081101561087b57600080fd5b81019080803573ffffffffffffffffffffffffffffffffffffffff1690602001909291908035906020019092919050505061391d565b60405180821515815260200191505060405180910390f35b610a2560048036036101808110156108e057600080fd5b81019080803573ffffffffffffffffffffffffffffffffffffffff16906020019092919080359060200190929190803590602001909291908035906020019092919080604001906002806020026040519081016040528092919082600260200280828437600081840152601f19601f82011690508083019250505050505091929192908060800190600280602002604051908101604052809291906000905b828210156109d3578382604002016002806020026040519081016040528092919082600260200280828437600081840152601f19601f8201169050808301925050505050508152602001906001019061097f565b50505050919291929080604001906002806020026040519081016040528092919082600260200280828437600081840152601f19601f820116905080830192505050505050919291929050505061398d565b005b610a6960048036036020811015610a3d57600080fd5b81019080803573ffffffffffffffffffffffffffffffffffffffff169060200190929190505050613da5565b6040518082815260200191505060405180910390f35b6000825190506004811480610a945750600881145b80610a9f5750601081145b80610aaa5750602081145b610b1c576040517f08c379a00000000000000000000000000000000000000000000000000000000081526004018080602001828103825260118152602001807f556e737570706f72746564207363616c6500000000000000000000000000000081525060200191505060405180910390fd5b6000600c60008873ffffffffffffffffffffffffffffffffffffffff1673ffffffffffffffffffffffffffffffffffffffff16815260200190815260200160002090506000803660405180838380828437808301925050509250505060405180910390209050600060028651028360010160008a815260200190815260200160002060009054906101000a900461ffff16019050620100008161ffff1610610c0f576040517f08c379a00000000000000000000000000000000000000000000000000000000081526004018080602001828103825260298152602001806154fd6029913960400191505060405180910390fd5b6000808567ffffffffffffffff81118015610c2957600080fd5b50604051908082528060200260200182016040528015610c585781602001602082028036833780820191505090505b50905060005b868160ff161015610df657888160ff1681518110610c7857fe5b6020026020010151600060348110610c8c57fe5b602002015183019250888160ff1681518110610ca457fe5b6020026020010151600260348110610cb857fe5b6020020151828260ff1681518110610ccc57fe5b60200260200101818152505060006002811115610ce557fe5b866002016000848460ff1681518110610cfa57fe5b6020026020010151815260200190815260200160002060009054906101000a900460ff166002811115610d2957fe5b14610d9c576040517f08c379a00000000000000000000000000000000000000000000000000000000081526004018080602001828103825260108152602001807f4e6f7420612076616c6964207461672e0000000000000000000000000000000081525060200191505060405180910390fd5b6001866002016000848460ff1681518110610db357fe5b6020026020010151815260200190815260200160002060006101000a81548160ff02191690836002811115610de457fe5b02179055508080600101915050610c5e565b5060006040518061012001604052808d73ffffffffffffffffffffffffffffffffffffffff1681526020013373ffffffffffffffffffffffffffffffffffffffff1681526020018481526020018c81526020018b81526020018561ffff16815260200142815260200183815260200160011515815250905080600d600087815260200190815260200160002060008201518160000160006101000a81548173ffffffffffffffffffffffffffffffffffffffff021916908373ffffffffffffffffffffffffffffffffffffffff16021790555060208201518160010160006101000a81548173ffffffffffffffffffffffffffffffffffffffff021916908373ffffffffffffffffffffffffffffffffffffffff16021790555060408201518160020155606082015181600301556080820151816004015560a08201518160050160006101000a81548161ffff021916908361ffff16021790555060c0820151816006015560e0820151816007019080519060200190610f7792919061525f565b506101008201518160080160006101000a81548160ff0219169083151502179055509050507f57977c02030f9c08e9783ce6752383cfb28d0ecb0755d369cf24ec8f658e092a858d8d8d8b604051808681526020018573ffffffffffffffffffffffffffffffffffffffff1681526020018481526020018381526020018281526020019550505050505060405180910390a1505050505050505050505050565b6000600c60008873ffffffffffffffffffffffffffffffffffffffff1673ffffffffffffffffffffffffffffffffffffffff16815260200190815260200160002090506000600281111561106757fe5b81600201600088815260200190815260200160002060009054906101000a900460ff16600281111561109557fe5b14611108576040517f08c379a00000000000000000000000000000000000000000000000000000000081526004018080602001828103825260128152602001807f54584f20616c726561647920657869737473000000000000000000000000000081525060200191505060405180910390fd5b60008054906101000a900473ffffffffffffffffffffffffffffffffffffffff1673ffffffffffffffffffffffffffffffffffffffff1663415df87c85858560405180606001604052808c81526020018b815260200160018152506040518563ffffffff1660e01b81526004018085600260200280838360005b8381101561119d578082015181840152602081019050611182565b505050509050018460026000925b818410156111f15782846020020151600260200280838360005b838110156111e05780820151818401526020810190506111c5565b5050505090500192600101926111ab565b9250505083600260200280838360005b8381101561121c578082015181840152602081019050611201565b5050505090500182600360200280838360005b8381101561124a57808201518184015260208101905061122f565b50505050905001945050505050602060405180830381600087803b15801561127157600080fd5b505af1158015611285573d6000803e3d6000fd5b505050506040513d602081101561129b57600080fd5b810190808051906020019092919050505061131e576040517f08c379a00000000000000000000000000000000000000000000000000000000081526004018080602001828103825260118152602001807f4465706f736974205a4b50206661696c7300000000000000000000000000000081525060200191505060405180910390fd5b8673ffffffffffffffffffffffffffffffffffffffff166323b872dd3330886040518463ffffffff1660e01b8152600401808473ffffffffffffffffffffffffffffffffffffffff1681526020018373ffffffffffffffffffffffffffffffffffffffff1681526020018281526020019350505050602060405180830381600087803b1580156113ad57600080fd5b505af11580156113c1573d6000803e3d6000fd5b505050506040513d60208110156113d757600080fd5b810190808051906020019092919050505050600181600301600088815260200190815260200160002060006101000a81548160ff02191690831515021790555050505050505050565b6000600d600083815260200190815260200160002090506000600c60008360000160009054906101000a900473ffffffffffffffffffffffffffffffffffffffff1673ffffffffffffffffffffffffffffffffffffffff1673ffffffffffffffffffffffffffffffffffffffff1681526020019081526020016000209050600f5482600601540142101561151c576040517f08c379a00000000000000000000000000000000000000000000000000000000081526004018080602001828103825260198152602001807f5374696c6c20696e206368616c6c656e676520706572696f640000000000000081525060200191505060405180910390fd5b8160080160009054906101000a900460ff166115a0576040517f08c379a00000000000000000000000000000000000000000000000000000000081526004018080602001828103825260198152602001807f44656c65746564206f7220646f6573206e6f742065786973740000000000000081525060200191505060405180910390fd5b6001826003015414806115d657508060000160008360030154815260200190815260200160002060009054906101000a900460ff165b611648576040517f08c379a00000000000000000000000000000000000000000000000000000000081526004018080602001828103825260138152602001807f526f6f7420646f6573206e6f742065786973740000000000000000000000000081525060200191505060405180910390fd5b60018160000160008460040154815260200190815260200160002060006101000a81548160ff0219169083151502179055508160050160009054906101000a900461ffff168160010160008460040154815260200190815260200160002060006101000a81548161ffff021916908361ffff1602179055508060000160008360030154815260200190815260200160002060006101000a81549060ff02191690558060010160008360030154815260200190815260200160002060006101000a81549061ffff02191690557ff9ccb52344c2cf0cec4cb997d639bcc75026b17cd3bee6c9321396919b75640d8260000160009054906101000a900473ffffffffffffffffffffffffffffffffffffffff16836003015484600401546001604051808573ffffffffffffffffffffffffffffffffffffffff16815260200184815260200183815260200182815260200194505050505060405180910390a160005b82600701805490508160ff16101561181a576002826002016000856007018460ff16815481106117d457fe5b9060005260206000200154815260200190815260200160002060006101000a81548160ff0219169083600281111561180857fe5b021790555080806001019150506117a8565b508160000160009054906101000a900473ffffffffffffffffffffffffffffffffffffffff1673ffffffffffffffffffffffffffffffffffffffff1663a9059cbb8360010160009054906101000a900473ffffffffffffffffffffffffffffffffffffffff1684600201546040518363ffffffff1660e01b8152600401808373ffffffffffffffffffffffffffffffffffffffff16815260200182815260200192505050602060405180830381600087803b1580156118d857600080fd5b505af11580156118ec573d6000803e3d6000fd5b505050506040513d602081101561190257600080fd5b810190808051906020019092919050505050600d6000848152602001908152602001600020600080820160006101000a81549073ffffffffffffffffffffffffffffffffffffffff02191690556001820160006101000a81549073ffffffffffffffffffffffffffffffffffffffff02191690556002820160009055600382016000905560048201600090556005820160006101000a81549061ffff021916905560068201600090556007820160006119bb91906152ac565b6008820160006101000a81549060ff02191690555050600d600084815260200190815260200160002060080160009054906101000a900460ff1615611a68576040517f08c379a00000000000000000000000000000000000000000000000000000000081526004018080602001828103825260148152602001807f536f6d657468696e672077656e742077726f6e6700000000000000000000000081525060200191505060405180910390fd5b505050565b600080600c60008573ffffffffffffffffffffffffffffffffffffffff1673ffffffffffffffffffffffffffffffffffffffff168152602001908152602001600020905080600101600084815260200190815260200160002060009054906101000a900461ffff1691505092915050565b6000811415611aec57611aed565b5b505050505050565b6000600c60008773ffffffffffffffffffffffffffffffffffffffff1673ffffffffffffffffffffffffffffffffffffffff16815260200190815260200160002090506000611b426152cd565b60005b60018160ff161015611d49576000611b6f878360ff1660018110611b6557fe5b6020020151613dbd565b9050611b7c8a8683614450565b611bee576040517f08c379a00000000000000000000000000000000000000000000000000000000081526004018080602001828103825260188152602001807f4d696d626c6577696d626c652070726f6f66206661696c73000000000000000081525060200191505060405180910390fd5b806000015184019350604051806040016040528082610100015160000151815260200182610100015160200151815250836000846002020160ff1660028110611c3357fe5b6020020181905250604051806040016040528082610140015160000151815260200182610140015160200151815250836001846002020160ff1660028110611c7757fe5b60200201819052507f74c9539be72250939234cfe0411f83e2365c093f1ffe678ca6fd7233b13b92958a82610100015160200151604051808373ffffffffffffffffffffffffffffffffffffffff1681526020018281526020019250505060405180910390a17f74c9539be72250939234cfe0411f83e2365c093f1ffe678ca6fd7233b13b92958a82610140015160200151604051808373ffffffffffffffffffffffffffffffffffffffff1681526020018281526020019250505060405180910390a1508080600101915050611b45565b50600560009054906101000a900473ffffffffffffffffffffffffffffffffffffffff1673ffffffffffffffffffffffffffffffffffffffff166346f8b789604051806040016040528087600060088110611da057fe5b6020020151815260200187600160088110611db757fe5b6020020151815250604051806040016040528060405180604001604052808a600260088110611de257fe5b602002015181526020018a600360088110611df957fe5b6020020151815250815260200160405180604001604052808a600460088110611e1e57fe5b602002015181526020018a600560088110611e3557fe5b6020020151815250815250604051806040016040528089600660088110611e5857fe5b6020020151815260200189600760088110611e6f57fe5b60200201518152506040518061010001604052808d81526020018960010160008f815260200190815260200160002060009054906101000a900461ffff1661ffff16815260200187600060028110611ec357fe5b6020020151600060028110611ed457fe5b6020020151815260200187600160028110611eeb57fe5b6020020151600060028110611efc57fe5b6020020151815260200187600060028110611f1357fe5b6020020151600160028110611f2457fe5b6020020151815260200187600160028110611f3b57fe5b6020020151600160028110611f4c57fe5b602002015181526020018c815260200160018152506040518563ffffffff1660e01b81526004018085600260200280838360005b83811015611f9b578082015181840152602081019050611f80565b505050509050018460026000925b81841015611fef5782846020020151600260200280838360005b83811015611fde578082015181840152602081019050611fc3565b505050509050019260010192611fa9565b9250505083600260200280838360005b8381101561201a578082015181840152602081019050611fff565b5050505090500182600860200280838360005b8381101561204857808201518184015260208101905061202d565b50505050905001945050505050602060405180830381600087803b15801561206f57600080fd5b505af1158015612083573d6000803e3d6000fd5b505050506040513d602081101561209957600080fd5b810190808051906020019092919050505061211c576040517f08c379a000000000000000000000000000000000000000000000000000000000815260040180806020018281038252600d8152602001807f526f6c6c207570206661696c730000000000000000000000000000000000000081525060200191505060405180910390fd5b600187148061214a575082600001600088815260200190815260200160002060009054906101000a900460ff165b6121bc576040517f08c379a00000000000000000000000000000000000000000000000000000000081526004018080602001828103825260138152602001807f526f6f7420646f6573206e6f742065786973740000000000000000000000000081525060200191505060405180910390fd5b600183600001600088815260200190815260200160002060006101000a81548160ff0219169083151502179055506201000060028460010160008a815260200190815260200160002060009054906101000a900461ffff160161ffff161061226f576040517f08c379a00000000000000000000000000000000000000000000000000000000081526004018080602001828103825260298152602001806154fd6029913960400191505060405180910390fd5b600283600101600089815260200190815260200160002060009054906101000a900461ffff160183600101600088815260200190815260200160002060006101000a81548161ffff021916908361ffff16021790555082600001600088815260200190815260200160002060006101000a81549060ff021916905582600101600088815260200190815260200160002060006101000a81549061ffff02191690558773ffffffffffffffffffffffffffffffffffffffff1663a9059cbb33846040518363ffffffff1660e01b8152600401808373ffffffffffffffffffffffffffffffffffffffff16815260200182815260200192505050602060405180830381600087803b15801561238157600080fd5b505af1158015612395573d6000803e3d6000fd5b505050506040513d60208110156123ab57600080fd5b8101908080519060200190929190505050507ff9ccb52344c2cf0cec4cb997d639bcc75026b17cd3bee6c9321396919b75640d8888886001604051808573ffffffffffffffffffffffffffffffffffffffff16815260200184815260200183815260200182815260200194505050505060405180910390a15050505050505050565b6000600c60008773ffffffffffffffffffffffffffffffffffffffff1673ffffffffffffffffffffffffffffffffffffffff1681526020019081526020016000209050600061247a6152fa565b60005b60048160ff1610156126815760006124a7878360ff166004811061249d57fe5b6020020151613dbd565b90506124b48a8683614450565b612526576040517f08c379a00000000000000000000000000000000000000000000000000000000081526004018080602001828103825260188152602001807f4d696d626c6577696d626c652070726f6f66206661696c73000000000000000081525060200191505060405180910390fd5b806000015184019350604051806040016040528082610100015160000151815260200182610100015160200151815250836000846002020160ff166008811061256b57fe5b6020020181905250604051806040016040528082610140015160000151815260200182610140015160200151815250836001846002020160ff16600881106125af57fe5b60200201819052507f74c9539be72250939234cfe0411f83e2365c093f1ffe678ca6fd7233b13b92958a82610100015160200151604051808373ffffffffffffffffffffffffffffffffffffffff1681526020018281526020019250505060405180910390a17f74c9539be72250939234cfe0411f83e2365c093f1ffe678ca6fd7233b13b92958a82610140015160200151604051808373ffffffffffffffffffffffffffffffffffffffff1681526020018281526020019250505060405180910390a150808060010191505061247d565b50600760009054906101000a900473ffffffffffffffffffffffffffffffffffffffff1673ffffffffffffffffffffffffffffffffffffffff1663eb9996a36040518060400160405280876000600881106126d857fe5b60200201518152602001876001600881106126ef57fe5b6020020151815250604051806040016040528060405180604001604052808a60026008811061271a57fe5b602002015181526020018a60036008811061273157fe5b6020020151815250815260200160405180604001604052808a60046008811061275657fe5b602002015181526020018a60056008811061276d57fe5b602002015181525081525060405180604001604052808960066008811061279057fe5b60200201518152602001896007600881106127a757fe5b60200201518152506040518061028001604052808d81526020018960010160008f815260200190815260200160002060009054906101000a900461ffff1661ffff168152602001876000600881106127fb57fe5b602002015160006002811061280c57fe5b602002015181526020018760016008811061282357fe5b602002015160006002811061283457fe5b602002015181526020018760026008811061284b57fe5b602002015160006002811061285c57fe5b602002015181526020018760036008811061287357fe5b602002015160006002811061288457fe5b602002015181526020018760046008811061289b57fe5b60200201516000600281106128ac57fe5b60200201518152602001876005600881106128c357fe5b60200201516000600281106128d457fe5b60200201518152602001876006600881106128eb57fe5b60200201516000600281106128fc57fe5b602002015181526020018760076008811061291357fe5b602002015160006002811061292457fe5b602002015181526020018760006008811061293b57fe5b602002015160016002811061294c57fe5b602002015181526020018760016008811061296357fe5b602002015160016002811061297457fe5b602002015181526020018760026008811061298b57fe5b602002015160016002811061299c57fe5b60200201518152602001876003600881106129b357fe5b60200201516001600281106129c457fe5b60200201518152602001876004600881106129db57fe5b60200201516001600281106129ec57fe5b6020020151815260200187600560088110612a0357fe5b6020020151600160028110612a1457fe5b6020020151815260200187600660088110612a2b57fe5b6020020151600160028110612a3c57fe5b6020020151815260200187600760088110612a5357fe5b6020020151600160028110612a6457fe5b602002015181526020018c815260200160018152506040518563ffffffff1660e01b81526004018085600260200280838360005b83811015612ab3578082015181840152602081019050612a98565b505050509050018460026000925b81841015612b075782846020020151600260200280838360005b83811015612af6578082015181840152602081019050612adb565b505050509050019260010192612ac1565b9250505083600260200280838360005b83811015612b32578082015181840152602081019050612b17565b5050505090500182601460200280838360005b83811015612b60578082015181840152602081019050612b45565b50505050905001945050505050602060405180830381600087803b158015612b8757600080fd5b505af1158015612b9b573d6000803e3d6000fd5b505050506040513d6020811015612bb157600080fd5b8101908080519060200190929190505050612c34576040517f08c379a000000000000000000000000000000000000000000000000000000000815260040180806020018281038252600d8152602001807f526f6c6c207570206661696c730000000000000000000000000000000000000081525060200191505060405180910390fd5b6001871480612c62575082600001600088815260200190815260200160002060009054906101000a900460ff165b612cd4576040517f08c379a00000000000000000000000000000000000000000000000000000000081526004018080602001828103825260138152602001807f526f6f7420646f6573206e6f742065786973740000000000000000000000000081525060200191505060405180910390fd5b600183600001600088815260200190815260200160002060006101000a81548160ff0219169083151502179055506201000060088460010160008a815260200190815260200160002060009054906101000a900461ffff160161ffff1610612d87576040517f08c379a00000000000000000000000000000000000000000000000000000000081526004018080602001828103825260298152602001806154fd6029913960400191505060405180910390fd5b600883600101600089815260200190815260200160002060009054906101000a900461ffff160183600101600088815260200190815260200160002060006101000a81548161ffff021916908361ffff16021790555082600001600088815260200190815260200160002060006101000a81549060ff021916905582600101600088815260200190815260200160002060006101000a81549061ffff02191690558773ffffffffffffffffffffffffffffffffffffffff1663a9059cbb33846040518363ffffffff1660e01b8152600401808373ffffffffffffffffffffffffffffffffffffffff16815260200182815260200192505050602060405180830381600087803b158015612e9957600080fd5b505af1158015612ead573d6000803e3d6000fd5b505050506040513d6020811015612ec357600080fd5b8101908080519060200190929190505050507ff9ccb52344c2cf0cec4cb997d639bcc75026b17cd3bee6c9321396919b75640d8888886004604051808573ffffffffffffffffffffffffffffffffffffffff16815260200184815260200183815260200182815260200194505050505060405180910390a15050505050505050565b6000600c60008773ffffffffffffffffffffffffffffffffffffffff1673ffffffffffffffffffffffffffffffffffffffff16815260200190815260200160002090506000612f92615328565b60005b60028160ff161015613199576000612fbf878360ff1660028110612fb557fe5b6020020151613dbd565b9050612fcc8a8683614450565b61303e576040517f08c379a00000000000000000000000000000000000000000000000000000000081526004018080602001828103825260188152602001807f4d696d626c6577696d626c652070726f6f66206661696c73000000000000000081525060200191505060405180910390fd5b806000015184019350604051806040016040528082610100015160000151815260200182610100015160200151815250836000846002020160ff166004811061308357fe5b6020020181905250604051806040016040528082610140015160000151815260200182610140015160200151815250836001846002020160ff16600481106130c757fe5b60200201819052507f74c9539be72250939234cfe0411f83e2365c093f1ffe678ca6fd7233b13b92958a82610100015160200151604051808373ffffffffffffffffffffffffffffffffffffffff1681526020018281526020019250505060405180910390a17f74c9539be72250939234cfe0411f83e2365c093f1ffe678ca6fd7233b13b92958a82610140015160200151604051808373ffffffffffffffffffffffffffffffffffffffff1681526020018281526020019250505060405180910390a1508080600101915050612f95565b50600660009054906101000a900473ffffffffffffffffffffffffffffffffffffffff1673ffffffffffffffffffffffffffffffffffffffff166324a8449f6040518060400160405280876000600881106131f057fe5b602002015181526020018760016008811061320757fe5b6020020151815250604051806040016040528060405180604001604052808a60026008811061323257fe5b602002015181526020018a60036008811061324957fe5b6020020151815250815260200160405180604001604052808a60046008811061326e57fe5b602002015181526020018a60056008811061328557fe5b60200201518152508152506040518060400160405280896006600881106132a857fe5b60200201518152602001896007600881106132bf57fe5b60200201518152506040518061018001604052808d81526020018960010160008f815260200190815260200160002060009054906101000a900461ffff1661ffff1681526020018760006004811061331357fe5b602002015160006002811061332457fe5b602002015181526020018760016004811061333b57fe5b602002015160006002811061334c57fe5b602002015181526020018760026004811061336357fe5b602002015160006002811061337457fe5b602002015181526020018760036004811061338b57fe5b602002015160006002811061339c57fe5b60200201518152602001876000600481106133b357fe5b60200201516001600281106133c457fe5b60200201518152602001876001600481106133db57fe5b60200201516001600281106133ec57fe5b602002015181526020018760026004811061340357fe5b602002015160016002811061341457fe5b602002015181526020018760036004811061342b57fe5b602002015160016002811061343c57fe5b602002015181526020018c815260200160018152506040518563ffffffff1660e01b81526004018085600260200280838360005b8381101561348b578082015181840152602081019050613470565b505050509050018460026000925b818410156134df5782846020020151600260200280838360005b838110156134ce5780820151818401526020810190506134b3565b505050509050019260010192613499565b9250505083600260200280838360005b8381101561350a5780820151818401526020810190506134ef565b5050505090500182600c60200280838360005b8381101561353857808201518184015260208101905061351d565b50505050905001945050505050602060405180830381600087803b15801561355f57600080fd5b505af1158015613573573d6000803e3d6000fd5b505050506040513d602081101561358957600080fd5b810190808051906020019092919050505061360c576040517f08c379a000000000000000000000000000000000000000000000000000000000815260040180806020018281038252600d8152602001807f526f6c6c207570206661696c730000000000000000000000000000000000000081525060200191505060405180910390fd5b600187148061363a575082600001600088815260200190815260200160002060009054906101000a900460ff165b6136ac576040517f08c379a00000000000000000000000000000000000000000000000000000000081526004018080602001828103825260138152602001807f526f6f7420646f6573206e6f742065786973740000000000000000000000000081525060200191505060405180910390fd5b600183600001600088815260200190815260200160002060006101000a81548160ff0219169083151502179055506201000060048460010160008a815260200190815260200160002060009054906101000a900461ffff160161ffff161061375f576040517f08c379a00000000000000000000000000000000000000000000000000000000081526004018080602001828103825260298152602001806154fd6029913960400191505060405180910390fd5b600483600101600089815260200190815260200160002060009054906101000a900461ffff160183600101600088815260200190815260200160002060006101000a81548161ffff021916908361ffff16021790555082600001600088815260200190815260200160002060006101000a81549060ff021916905582600101600088815260200190815260200160002060006101000a81549061ffff02191690558773ffffffffffffffffffffffffffffffffffffffff1663a9059cbb33846040518363ffffffff1660e01b8152600401808373ffffffffffffffffffffffffffffffffffffffff16815260200182815260200192505050602060405180830381600087803b15801561387157600080fd5b505af1158015613885573d6000803e3d6000fd5b505050506040513d602081101561389b57600080fd5b8101908080519060200190929190505050507ff9ccb52344c2cf0cec4cb997d639bcc75026b17cd3bee6c9321396919b75640d8888886002604051808573ffffffffffffffffffffffffffffffffffffffff16815260200184815260200183815260200182815260200194505050505060405180910390a15050505050505050565b600080600c60008573ffffffffffffffffffffffffffffffffffffffff1673ffffffffffffffffffffffffffffffffffffffff168152602001908152602001600020905080600001600084815260200190815260200160002060009054906101000a900460ff1691505092915050565b6000600281111561399a57fe5b600c60008973ffffffffffffffffffffffffffffffffffffffff1673ffffffffffffffffffffffffffffffffffffffff168152602001908152602001600020600201600088815260200190815260200160002060009054906101000a900460ff166002811115613a0657fe5b14613a5c576040517f08c379a00000000000000000000000000000000000000000000000000000000081526004018080602001828103825260228152602001806154db6022913960400191505060405180910390fd5b600b60009054906101000a900473ffffffffffffffffffffffffffffffffffffffff1673ffffffffffffffffffffffffffffffffffffffff166317de583684848460405180608001604052808a81526020018c81526020018b815260200160018152506040518563ffffffff1660e01b81526004018085600260200280838360005b83811015613af9578082015181840152602081019050613ade565b505050509050018460026000925b81841015613b4d5782846020020151600260200280838360005b83811015613b3c578082015181840152602081019050613b21565b505050509050019260010192613b07565b9250505083600260200280838360005b83811015613b78578082015181840152602081019050613b5d565b5050505090500182600460200280838360005b83811015613ba6578082015181840152602081019050613b8b565b50505050905001945050505050602060405180830381600087803b158015613bcd57600080fd5b505af1158015613be1573d6000803e3d6000fd5b505050506040513d6020811015613bf757600080fd5b8101908080519060200190929190505050613c7a576040517f08c379a00000000000000000000000000000000000000000000000000000000081526004018080602001828103825260208152602001807f53686f756c64207361746973667920746865207a6b7020636f6e646974696f6e81525060200191505060405180910390fd5b6002600c60008973ffffffffffffffffffffffffffffffffffffffff1673ffffffffffffffffffffffffffffffffffffffff168152602001908152602001600020600201600088815260200190815260200160002060006101000a81548160ff02191690836002811115613cea57fe5b02179055508673ffffffffffffffffffffffffffffffffffffffff1663a9059cbb33876040518363ffffffff1660e01b8152600401808373ffffffffffffffffffffffffffffffffffffffff16815260200182815260200192505050602060405180830381600087803b158015613d6057600080fd5b505af1158015613d74573d6000803e3d6000fd5b505050506040513d6020811015613d8a57600080fd5b81019080805190602001909291905050505050505050505050565b600e6020528060005260406000206000915090505481565b613dc5615355565b604051806101c0016040528083600060348110613dde57fe5b6020020151815260200183600160348110613df557fe5b6020020151815260200183600260348110613e0c57fe5b6020020151815260200183600360348110613e2357fe5b602002015181526020016040518060600160405280604051806040016040528087600460348110613e5057fe5b6020020151815260200187600560348110613e6757fe5b602002015181525081526020016040518060400160405280604051806040016040528089600660348110613e9757fe5b6020020151815260200189600760348110613eae57fe5b60200201518152508152602001604051806040016040528089600860348110613ed357fe5b6020020151815260200189600960348110613eea57fe5b60200201518152508152508152602001604051806040016040528087600a60348110613f1257fe5b6020020151815260200187600b60348110613f2957fe5b6020020151815250815250815260200183600c60348110613f4657fe5b6020020151815260200183600d60348110613f5d57fe5b602002015181526020016040518060600160405280604051806040016040528087600e60348110613f8a57fe5b6020020151815260200187600f60348110613fa157fe5b602002015181525081526020016040518060400160405280604051806040016040528089601060348110613fd157fe5b6020020151815260200189601160348110613fe857fe5b6020020151815250815260200160405180604001604052808960126034811061400d57fe5b602002015181526020018960136034811061402457fe5b6020020151815250815250815260200160405180604001604052808760146034811061404c57fe5b602002015181526020018760156034811061406357fe5b6020020151815250815250815260200160405180604001604052808560166034811061408b57fe5b60200201518152602001856017603481106140a257fe5b6020020151815250815260200160405180606001604052806040518060400160405280876018603481106140d257fe5b60200201518152602001876019603481106140e957fe5b602002015181525081526020016040518060400160405280604051806040016040528089601a6034811061411957fe5b6020020151815260200189601b6034811061413057fe5b60200201518152508152602001604051806040016040528089601c6034811061415557fe5b6020020151815260200189601d6034811061416c57fe5b60200201518152508152508152602001604051806040016040528087601e6034811061419457fe5b6020020151815260200187601f603481106141ab57fe5b602002015181525081525081526020016040518060400160405280856020603481106141d357fe5b60200201518152602001856021603481106141ea57fe5b60200201518152508152602001604051806060016040528060405180604001604052808760226034811061421a57fe5b602002015181526020018760236034811061423157fe5b60200201518152508152602001604051806040016040528060405180604001604052808960246034811061426157fe5b602002015181526020018960256034811061427857fe5b6020020151815250815260200160405180604001604052808960266034811061429d57fe5b60200201518152602001896027603481106142b457fe5b602002015181525081525081526020016040518060400160405280876028603481106142dc57fe5b60200201518152602001876029603481106142f357fe5b60200201518152508152508152602001604051806040016040528085602a6034811061431b57fe5b6020020151815260200185602b6034811061433257fe5b602002015181525081526020016040518060600160405280604051806040016040528087602c6034811061436257fe5b6020020151815260200187602d6034811061437957fe5b602002015181525081526020016040518060400160405280604051806040016040528089602e603481106143a957fe5b6020020151815260200189602f603481106143c057fe5b602002015181525081526020016040518060400160405280896030603481106143e557fe5b60200201518152602001896031603481106143fc57fe5b6020020151815250815250815260200160405180604001604052808760326034811061442457fe5b602002015181526020018760336034811061443b57fe5b60200201518152508152508152509050919050565b600060018260400151146145245761447683836040015184606001518560800151614eb8565b6144e8576040517f08c379a00000000000000000000000000000000000000000000000000000000081526004018080602001828103825260148152602001807f54686520746167206973206e6f742076616c696400000000000000000000000081525060200191505060405180910390fd5b60028360020160008460400151815260200190815260200160002060006101000a81548160ff0219169083600281111561451e57fe5b02179055505b60018260a00151146145f657614548838360a001518460c001518560e00151614eb8565b6145ba576040517f08c379a00000000000000000000000000000000000000000000000000000000081526004018080602001828103825260148152602001807f54686520746167206973206e6f742076616c696400000000000000000000000081525060200191505060405180910390fd5b60028360020160008460a00151815260200190815260200160002060006101000a81548160ff021916908360028111156145f057fe5b02179055505b6001826040015114158061460f575060018260a0015114155b614681576040517f08c379a000000000000000000000000000000000000000000000000000000000815260040180806020018281038252601e8152602001807f54782073686f756c64207370656e74206174206c6561737420312054584f000081525060200191505060405180910390fd5b600360009054906101000a900473ffffffffffffffffffffffffffffffffffffffff1673ffffffffffffffffffffffffffffffffffffffff1663621e9ec0836101200151600001518461012001516020015185610120015160400151604051806040016040528088610100015160200151815260200160018152506040518563ffffffff1660e01b81526004018085600260200280838360005b8381101561473657808201518184015260208101905061471b565b505050509050018460026000925b8184101561478a5782846020020151600260200280838360005b8381101561477957808201518184015260208101905061475e565b505050509050019260010192614744565b9250505083600260200280838360005b838110156147b557808201518184015260208101905061479a565b5050505090500182600260200280838360005b838110156147e35780820151818401526020810190506147c8565b50505050905001945050505050602060405180830381600087803b15801561480a57600080fd5b505af115801561481e573d6000803e3d6000fd5b505050506040513d602081101561483457600080fd5b810190808051906020019092919050505061489a576040517f08c379a000000000000000000000000000000000000000000000000000000000815260040180806020018281038252602c8152602001806154af602c913960400191505060405180910390fd5b600360009054906101000a900473ffffffffffffffffffffffffffffffffffffffff1673ffffffffffffffffffffffffffffffffffffffff1663621e9ec0836101600151600001518461016001516020015185610160015160400151604051806040016040528088610140015160200151815260200160018152506040518563ffffffff1660e01b81526004018085600260200280838360005b8381101561494f578082015181840152602081019050614934565b505050509050018460026000925b818410156149a35782846020020151600260200280838360005b83811015614992578082015181840152602081019050614977565b50505050905001926001019261495d565b9250505083600260200280838360005b838110156149ce5780820151818401526020810190506149b3565b5050505090500182600260200280838360005b838110156149fc5780820151818401526020810190506149e1565b50505050905001945050505050602060405180830381600087803b158015614a2357600080fd5b505af1158015614a37573d6000803e3d6000fd5b505050506040513d6020811015614a4d57600080fd5b8101908080519060200190929190505050614ab3576040517f08c379a000000000000000000000000000000000000000000000000000000000815260040180806020018281038252602c8152602001806154af602c913960400191505060405180910390fd5b600082602001519050600060a08273ffffffffffffffffffffffffffffffffffffffff16856020015103901c90504362ffffff168162ffffff1611614b60576040517f08c379a00000000000000000000000000000000000000000000000000000000081526004018080602001828103825260078152602001807f457870697265640000000000000000000000000000000000000000000000000081525060200191505060405180910390fd5b8573ffffffffffffffffffffffffffffffffffffffff168273ffffffffffffffffffffffffffffffffffffffff1614614c01576040517f08c379a000000000000000000000000000000000000000000000000000000000815260040180806020018281038252600d8152602001807f416e6f746865722045524332300000000000000000000000000000000000000081525060200191505060405180910390fd5b600160009054906101000a900473ffffffffffffffffffffffffffffffffffffffff1673ffffffffffffffffffffffffffffffffffffffff1663cc27d47c856101a0015160000151866101a0015160200151876101a00151604001516040518061016001604052808a6000015181526020018a6020015181526020018a6040015181526020018a60a0015181526020018a61010001516000015181526020018a61010001516020015181526020018a61014001516000015181526020018a61014001516020015181526020018a61018001516000015181526020018a610180015160200151815260200160018152506040518563ffffffff1660e01b81526004018085600260200280838360005b83811015614d2a578082015181840152602081019050614d0f565b505050509050018460026000925b81841015614d7e5782846020020151600260200280838360005b83811015614d6d578082015181840152602081019050614d52565b505050509050019260010192614d38565b9250505083600260200280838360005b83811015614da9578082015181840152602081019050614d8e565b5050505090500182600b60200280838360005b83811015614dd7578082015181840152602081019050614dbc565b50505050905001945050505050602060405180830381600087803b158015614dfe57600080fd5b505af1158015614e12573d6000803e3d6000fd5b505050506040513d6020811015614e2857600080fd5b8101908080519060200190929190505050614eab576040517f08c379a00000000000000000000000000000000000000000000000000000000081526004018080602001828103825260188152602001807f4d696d626c6577696d626c652070726f6f66206661696c73000000000000000081525060200191505060405180910390fd5b6001925050509392505050565b60006001841480614f01575060006002811115614ed157fe5b85600201600086815260200190815260200160002060009054906101000a900460ff166002811115614eff57fe5b145b614f73576040517f08c379a000000000000000000000000000000000000000000000000000000000815260040180806020018281038252600d8152602001807f416c7265616479207370656e740000000000000000000000000000000000000081525060200191505060405180910390fd5b84600301600085815260200190815260200160002060009054906101000a900460ff1615614fa45760019050615257565b6001841415614fb65760019050615257565b84600001600084815260200190815260200160002060009054906101000a900460ff1661504b576040517f08c379a000000000000000000000000000000000000000000000000000000000815260040180806020018281038252601d8152602001807f506f6f6c20646f6573206e6f7420696e636c756465207468652074616700000081525060200191505060405180910390fd5b600260009054906101000a900473ffffffffffffffffffffffffffffffffffffffff1673ffffffffffffffffffffffffffffffffffffffff1663415df87c83600001518460200151856040015160405180606001604052808981526020018a815260200160018152506040518563ffffffff1660e01b81526004018085600260200280838360005b838110156150ee5780820151818401526020810190506150d3565b505050509050018460026000925b818410156151425782846020020151600260200280838360005b83811015615131578082015181840152602081019050615116565b5050505090500192600101926150fc565b9250505083600260200280838360005b8381101561516d578082015181840152602081019050615152565b5050505090500182600360200280838360005b8381101561519b578082015181840152602081019050615180565b50505050905001945050505050602060405180830381600087803b1580156151c257600080fd5b505af11580156151d6573d6000803e3d6000fd5b505050506040513d60208110156151ec57600080fd5b8101908080519060200190929190505050615252576040517f08c379a000000000000000000000000000000000000000000000000000000000815260040180806020018281038252602e815260200180615481602e913960400191505060405180910390fd5b600190505b949350505050565b82805482825590600052602060002090810192821561529b579160200282015b8281111561529a57825182559160200191906001019061527f565b5b5090506152a891906153f4565b5090565b50805460008255906000526020600020908101906152ca91906153f4565b50565b60405180604001604052806002905b6152e4615411565b8152602001906001900390816152dc5790505090565b6040518061010001604052806008905b615312615411565b81526020019060019003908161530a5790505090565b60405180608001604052806004905b61533f615411565b8152602001906001900390816153375790505090565b604051806101c0016040528060008152602001600081526020016000815260200160008152602001615385615433565b815260200160008152602001600081526020016153a0615433565b81526020016153ad615466565b81526020016153ba615433565b81526020016153c7615466565b81526020016153d4615433565b81526020016153e1615466565b81526020016153ee615433565b81525090565b5b8082111561540d5760008160009055506001016153f5565b5090565b6040518060400160405280600290602082028036833780820191505090505090565b6040518060600160405280615446615411565b81526020016154536152cd565b8152602001615460615411565b81525090565b60405180604001604052806000815260200160008152509056fe4e6f74207375726520746861742074686520726f6f7420696e636c75646573207468652068696464656e2054584f54584f27732068696464656e2076616c7565206973206e6f7420696e2074686520676976656e2072616e676553686f756c64206e6f7420616c72656164792068617665206265656e207370656e745468697320313620626974204d4d52206f6e6c7920636f6e7461696e73203636353335206974656d73a2646970667358221220d319c089827b595475f4443229d95677d00bee848d622104ddc842ea4760708d64736f6c63430007060033",
  "immutableReferences": {},
  "source": "// SPDX-License-Identifier: MIT\n\npragma solidity >=0.6.0 <0.8.0;\n\nimport \"./IERC20.sol\";\nimport \"./zkInterfaces.sol\";\n\ncontract Ethereum934 {\n\n    enum Tag {Unspent, Spending, Spent}\n\n    struct ERC20Pool {\n        mapping(uint => bool) mmrRoots;\n        mapping(uint => uint16) mmrWidths;\n        mapping(uint => Tag) tags;\n        mapping(uint => bool) coinbases;\n    }\n\n    struct RollUpObj {\n        address erc20;\n        address submitter;\n        uint fee;\n        uint prevRoot;\n        uint newRoot;\n        uint16 newWidth;\n        uint timestamp;\n        uint[] spending;\n        bool exist;\n    }\n\n    struct Proof {\n        uint[2] a;\n        uint[2][2] b;\n        uint[2] c;\n    }\n\n    struct EllipticPoint {\n        uint x;\n        uint y;\n    }\n\n    struct MimblewimbleTx {\n        uint fee;\n        uint metadata;\n        uint tag1; // tag derived from the spent TXO\n        uint root1; // root where the spent TXO being included\n        Proof inclusionProof1; // zk-SNARKs proof which hides the path and sibling data\n        uint tag2;\n        uint root2;\n        Proof inclusionProof2;\n        EllipticPoint output1; // Result TXO\n        Proof rangeProof1; // Result TXO's value is between 0 and 100433627766186892221372630771322662657637687111424552206336\n        EllipticPoint output2;\n        Proof rangeProof2;\n        EllipticPoint sigPoint; // Point on the elliptic curve of Schnorr Signature\n        Proof txProof; // zk-SNARKs proof which hides the input TXOs while assuring it satisfies Mimblewimble protocol\n    }\n\n    ZkDeposit zkDeposit;\n    ZkMimblewimble zkMimblewimble;\n    ZkMMRInclusion zkMMRInclusion;\n    ZkRangeProof zkRangeProof;\n    ZkRollUp1 zkRollUp1;\n    ZkRollUp2 zkRollUp2;\n    ZkRollUp4 zkRollUp4;\n    ZkRollUp8 zkRollUp8;\n    ZkRollUp16 zkRollUp16;\n    ZkRollUp32 zkRollUp32;\n    ZkRollUp64 zkRollUp64;\n    ZkWithdraw zkWithdraw;\n\n    constructor(\n        address zkDepositAddr,\n        address zkRangeProofAddr,\n        address zkMimblewimbleAddr,\n        address zkMMRInclusionAddr,\n        address zkRollUp1Addr,\n        address zkRollUp2Addr,\n        address zkRollUp4Addr,\n        address zkRollUp8Addr,\n        address zkRollUp16Addr,\n        address zkRollUp32Addr,\n        address zkRollUp64Addr,\n        address zkWithdrawAddr\n    ) public {\n        zkDeposit = ZkDeposit(zkDepositAddr);\n        zkRangeProof = ZkRangeProof(zkRangeProofAddr);\n        zkMimblewimble = ZkMimblewimble(zkMimblewimbleAddr);\n        zkMMRInclusion = ZkMMRInclusion(zkMMRInclusionAddr);\n        zkRollUp1 = ZkRollUp1(zkRollUp1Addr);\n        zkRollUp2 = ZkRollUp2(zkRollUp2Addr);\n        zkRollUp4 = ZkRollUp4(zkRollUp4Addr);\n        zkRollUp8 = ZkRollUp8(zkRollUp8Addr);\n        zkRollUp16 = ZkRollUp16(zkRollUp16Addr);\n        zkRollUp32 = ZkRollUp32(zkRollUp32Addr);\n        zkRollUp64 = ZkRollUp64(zkRollUp64Addr);\n        zkWithdraw = ZkWithdraw(zkWithdrawAddr);\n    }\n\n    mapping(address => ERC20Pool) pools;\n    mapping(bytes32 => RollUpObj) optimisticRollUps;\n    mapping(address => uint) public deposits;\n    uint challengePeriod = 0;\n\n    event RollUp(address erc20, uint root, uint newRoot, uint items);\n    event OptimisticRollUp(bytes32 id, address erc20, uint root, uint newRoot, uint items);\n    event Mimblewimble(address erc20, uint txo);\n\n    /** @dev Deposits ERC20 to the magical world with zkSNARKs.\n      * @param erc20 Address of the ERC20 token.\n      * @param amount Amount of token to deposit.\n      * @param tag Newly generated TXO's y-axis value.\n      * @param a zkSNARKs proof data.\n      * @param b zkSNARKs proof data.\n      * @param c zkSNARKs proof data.\n      */\n    function depositToMagicalWorld(\n        address erc20,\n        uint tag,\n        uint amount,\n        uint[2] memory a,\n        uint[2][2] memory b,\n        uint[2] memory c\n    ) public {\n        ERC20Pool storage pool = pools[erc20];\n        require(pool.tags[tag] == Tag.Unspent, \"TXO already exists\");\n        // Check Deposit TXO's value is same with the given amount\n        require(\n            zkDeposit.verifyTx(\n                a,\n                b,\n                c,\n                [tag, amount, 1]\n            ), \"Deposit ZKP fails\"\n        );\n        // Transfer ERC20 token. It should have enough allowance\n        IERC20(erc20).transferFrom(msg.sender, address(this), amount);\n        // Record the TXO as valid\n        pool.coinbases[tag] = true;\n    }\n\n    /** @dev Update MMR using zk-RollUp.\n      */\n    function rollUp1Mimblewimble(\n        address erc20,\n        uint root,\n        uint newRoot,\n        uint[52][1] memory mwTxs,\n        uint[8] memory rollUpProof\n    ) public {\n        ERC20Pool storage pool = pools[erc20];\n\n        uint fee = 0;\n        uint[2][2] memory items;\n        for (uint8 i = 0; i < 1; i++) {\n            MimblewimbleTx memory mwTx = toMimblewimbleTx(mwTxs[i]);\n            require(verifyMimblewimbleTx(erc20, pool, mwTx), \"Mimblewimble proof fails\");\n            fee += mwTx.fee;\n            items[2 * i + 0] = [mwTx.output1.x, mwTx.output1.y];\n            items[2 * i + 1] = [mwTx.output2.x, mwTx.output2.y];\n            emit Mimblewimble(erc20, mwTx.output1.y);\n            emit Mimblewimble(erc20, mwTx.output2.y);\n        }\n\n        // Check roll up\n        require(\n            zkRollUp2.verifyTx(\n                [rollUpProof[0], rollUpProof[1]],\n                [[rollUpProof[2], rollUpProof[3]], [rollUpProof[4], rollUpProof[5]]],\n                [rollUpProof[6], rollUpProof[7]],\n                [root, pool.mmrWidths[root],\n                items[0][0], items[1][0],\n                items[0][1], items[1][1],\n                newRoot, 1]\n            ),\n            \"Roll up fails\"\n        );\n        // Update root & width\n        require(root == 1 || pool.mmrRoots[root], \"Root does not exist\");\n        pool.mmrRoots[newRoot] = true;\n        require(pool.mmrWidths[root] + 2 < 65536, \"This 16 bit MMR only contains 66535 items\");\n        pool.mmrWidths[newRoot] = pool.mmrWidths[root] + 2;\n        delete pool.mmrRoots[root];\n        delete pool.mmrWidths[root];\n\n        IERC20(erc20).transfer(msg.sender, fee);\n        emit RollUp(erc20, root, newRoot, 1);\n    }\n    /** @dev Update MMR using zk-RollUp.\n      */\n    function rollUp2Mimblewimble(\n        address erc20,\n        uint root,\n        uint newRoot,\n        uint[52][2] memory mwTxs,\n        uint[8] memory rollUpProof\n    ) public {\n        ERC20Pool storage pool = pools[erc20];\n\n        uint fee = 0;\n        uint[2][4] memory items;\n        for (uint8 i = 0; i < 2; i++) {\n            MimblewimbleTx memory mwTx = toMimblewimbleTx(mwTxs[i]);\n            require(verifyMimblewimbleTx(erc20, pool, mwTx), \"Mimblewimble proof fails\");\n            fee += mwTx.fee;\n            items[2 * i + 0] = [mwTx.output1.x, mwTx.output1.y];\n            items[2 * i + 1] = [mwTx.output2.x, mwTx.output2.y];\n            emit Mimblewimble(erc20, mwTx.output1.y);\n            emit Mimblewimble(erc20, mwTx.output2.y);\n        }\n\n        // Check roll up\n        require(\n            zkRollUp4.verifyTx(\n                [rollUpProof[0], rollUpProof[1]],\n                [[rollUpProof[2], rollUpProof[3]], [rollUpProof[4], rollUpProof[5]]],\n                [rollUpProof[6], rollUpProof[7]],\n                [root, pool.mmrWidths[root],\n                items[0][0], items[1][0], items[2][0], items[3][0],\n                items[0][1], items[1][1], items[2][1], items[3][1],\n                newRoot, 1]\n            ),\n            \"Roll up fails\"\n        );\n        // Update root & width\n        require(root == 1 || pool.mmrRoots[root], \"Root does not exist\");\n        pool.mmrRoots[newRoot] = true;\n        require(pool.mmrWidths[root] + 4 < 65536, \"This 16 bit MMR only contains 66535 items\");\n        pool.mmrWidths[newRoot] = pool.mmrWidths[root] + 4;\n        delete pool.mmrRoots[root];\n        delete pool.mmrWidths[root];\n\n        IERC20(erc20).transfer(msg.sender, fee);\n        emit RollUp(erc20, root, newRoot, 2);\n    }\n\n    /** @dev Update MMR using zk-RollUp.\n     */\n    function rollUp4Mimblewimble(\n        address erc20,\n        uint root,\n        uint newRoot,\n        uint[52][4] memory mwTxs,\n        uint[8] memory rollUpProof\n    ) public {\n        ERC20Pool storage pool = pools[erc20];\n\n        uint fee = 0;\n        uint[2][8] memory items;\n        for (uint8 i = 0; i < 4; i++) {\n            MimblewimbleTx memory mwTx = toMimblewimbleTx(mwTxs[i]);\n            require(verifyMimblewimbleTx(erc20, pool, mwTx), \"Mimblewimble proof fails\");\n            fee += mwTx.fee;\n            items[2 * i + 0] = [mwTx.output1.x, mwTx.output1.y];\n            items[2 * i + 1] = [mwTx.output2.x, mwTx.output2.y];\n            emit Mimblewimble(erc20, mwTx.output1.y);\n            emit Mimblewimble(erc20, mwTx.output2.y);\n        }\n\n        // Check roll up\n        require(\n            zkRollUp8.verifyTx(\n                [rollUpProof[0], rollUpProof[1]],\n                [[rollUpProof[2], rollUpProof[3]], [rollUpProof[4], rollUpProof[5]]],\n                [rollUpProof[6], rollUpProof[7]],\n                [root, pool.mmrWidths[root],\n                items[0][0], items[1][0], items[2][0], items[3][0], items[4][0], items[5][0], items[6][0], items[7][0],\n                items[0][1], items[1][1], items[2][1], items[3][1], items[4][1], items[5][1], items[6][1], items[7][1],\n                newRoot, 1]\n            ),\n            \"Roll up fails\"\n        );\n        // Update root & width\n        require(root == 1 || pool.mmrRoots[root], \"Root does not exist\");\n        pool.mmrRoots[newRoot] = true;\n        require(pool.mmrWidths[root] + 8 < 65536, \"This 16 bit MMR only contains 66535 items\");\n        pool.mmrWidths[newRoot] = pool.mmrWidths[root] + 8;\n        delete pool.mmrRoots[root];\n        delete pool.mmrWidths[root];\n\n        IERC20(erc20).transfer(msg.sender, fee);\n        emit RollUp(erc20, root, newRoot, 4);\n    }\n\n    function optimisticRollUpMimblewimble(\n        address erc20,\n        uint root,\n        uint newRoot,\n        uint[52][] memory mwTxs,\n        uint[8] memory rollUpProof\n    ) public {\n        uint qty = mwTxs.length;\n        require(qty == 4 || qty == 8 || qty == 16 || qty == 32, \"Unsupported scale\");\n        ERC20Pool storage pool = pools[erc20];\n        bytes32 id = keccak256(msg.data);\n        uint16 newWidth = pool.mmrWidths[root] + uint16(mwTxs.length * 2);\n        require(newWidth < 65536, \"This 16 bit MMR only contains 66535 items\");\n\n        uint fee = 0;\n        uint[] memory tags = new uint[](qty);\n        for (uint8 i = 0; i < qty; i++) {\n            fee += mwTxs[i][0];\n            tags[i] = mwTxs[i][2];\n            require(pool.tags[tags[i]] == Tag.Unspent, \"Not a valid tag.\");\n            pool.tags[tags[i]] = Tag.Spending;\n        }\n\n        RollUpObj memory rollUp = RollUpObj(\n            erc20,\n            msg.sender,\n            fee,\n            root,\n            newRoot,\n            newWidth,\n            block.timestamp,\n            tags,\n            true\n        );\n        optimisticRollUps[id] = rollUp;\n        emit OptimisticRollUp(id, erc20, root, newRoot, qty);\n    }\n\n    function finalizeRollUp(bytes32 id) public {\n        RollUpObj storage rollUp = optimisticRollUps[id];\n        ERC20Pool storage pool = pools[rollUp.erc20];\n        require(block.timestamp >= rollUp.timestamp + challengePeriod, \"Still in challenge period\");\n        require(rollUp.exist, \"Deleted or does not exist\");\n        // Update root & width\n        require(rollUp.prevRoot == 1 || pool.mmrRoots[rollUp.prevRoot], \"Root does not exist\");\n        pool.mmrRoots[rollUp.newRoot] = true;\n        pool.mmrWidths[rollUp.newRoot] = rollUp.newWidth;\n        delete pool.mmrRoots[rollUp.prevRoot];\n        delete pool.mmrWidths[rollUp.prevRoot];\n        emit RollUp(rollUp.erc20, rollUp.prevRoot, rollUp.newRoot, 1);\n        for (uint8 i = 0; i < rollUp.spending.length; i++) {\n            pool.tags[rollUp.spending[i]] = Tag.Spent;\n        }\n        IERC20(rollUp.erc20).transfer(rollUp.submitter, rollUp.fee);\n        delete optimisticRollUps[id];\n        require(!optimisticRollUps[id].exist, \"Something went wrong\");\n    }\n\n    function challengeOptimisticRollUp8Mimblewimble(\n        address erc20,\n        uint root,\n        uint newRoot,\n        uint[52][8] memory mwTxs,\n        uint[8] memory rollUpProof,\n        uint challengeType\n    ) public {\n        if (challengeType == 0) {\n\n        } else {\n\n        }\n    }\n\n\n    /** @dev Withdraws ERC20 to the muggle world without revealing which TXO's been used.\n      * @param erc20 Address of the ERC20 token.\n      * @param tag y-axis value of the spent tag of a withdrawing TXO. Spent tag is calculated by r*(r*G+v*H).\n      * @param value Value of the withdrawing TXO\n      * @param root The MMR root which includes the withdrawing TXO\n      * @param zkpA zkSNARKs proof data\n      * @param zkpB zkSNARKs proof data\n      * @param zkpC zkSNARKs proof data\n      */\n    function withdrawToMuggleWorld(\n        address erc20,\n        uint tag,\n        uint value,\n        uint root,\n        uint[2] memory zkpA,\n        uint[2][2] memory zkpB,\n        uint[2] memory zkpC\n    ) public {\n        // Check double spending\n        require(pools[erc20].tags[tag] == Tag.Unspent, \"Should not already have been spent\");\n        // Check the tag is derived from a unknown TXO belonging to the MMR trees\n        require(zkWithdraw.verifyTx(zkpA, zkpB, zkpC, [root, tag, value, 1]), \"Should satisfy the zkp condition\");\n        // Record as spent\n        pools[erc20].tags[tag] = Tag.Spent;\n        // Transfer\n        IERC20(erc20).transfer(msg.sender, value);\n    }\n\n    function roots(address erc20, uint root) public view returns (bool) {\n        ERC20Pool storage pool = pools[erc20];\n        return pool.mmrRoots[root];\n    }\n\n    function width(address erc20, uint root) public view returns (uint16) {\n        ERC20Pool storage pool = pools[erc20];\n        return pool.mmrWidths[root];\n    }\n\n    function revertOptimisticRollUp(RollUpObj storage rollUp) internal {\n        // Set tags as None\n    }\n\n\n    function verifyTag(ERC20Pool storage pool, uint tag, uint root, Proof memory inclusionProof) internal returns (bool) {\n        // Check double spending\n        require(tag == 1 || pool.tags[tag] == Tag.Unspent, \"Already spent\");\n        // Check the root exists\n        if (pool.coinbases[tag]) {\n            //            delete pool.coinbase[tag];\n            // Deposit tag\n            return true;\n        } else if (tag == 1) {\n            // Dummy tag\n            return true;\n        } else {\n            require(pool.mmrRoots[root], \"Pool does not include the tag\");\n            // Check the spent tag is derived from an included item in the MMR\n            require(\n                zkMMRInclusion.verifyTx(inclusionProof.a, inclusionProof.b, inclusionProof.c, [root, tag, 1]),\n                \"Not sure that the root includes the hidden TXO\"\n            );\n            return true;\n        }\n        return false;\n    }\n\n    function verifyMimblewimbleTx(address erc20, ERC20Pool storage pool, MimblewimbleTx memory mwTx) internal returns (bool) {\n        if (mwTx.tag1 != 1) {\n            require(verifyTag(pool, mwTx.tag1, mwTx.root1, mwTx.inclusionProof1), \"The tag is not valid\");\n            pool.tags[mwTx.tag1] = Tag.Spent;\n        }\n        if (mwTx.tag2 != 1) {\n            require(verifyTag(pool, mwTx.tag2, mwTx.root2, mwTx.inclusionProof2), \"The tag is not valid\");\n            pool.tags[mwTx.tag2] = Tag.Spent;\n        }\n        require(mwTx.tag1 != 1 || mwTx.tag2 != 1, \"Tx should spent at least 1 TXO\");\n\n        // Check newly created TXOs' range proofs\n        require(\n            zkRangeProof.verifyTx(mwTx.rangeProof1.a, mwTx.rangeProof1.b, mwTx.rangeProof1.c, [mwTx.output1.y, 1]),\n            \"TXO's hidden value is not in the given range\"\n        );\n        require(\n            zkRangeProof.verifyTx(mwTx.rangeProof2.a, mwTx.rangeProof2.b, mwTx.rangeProof2.c, [mwTx.output2.y, 1]),\n            \"TXO's hidden value is not in the given range\"\n        );\n\n        // Transaction can be included only in a given period;\n        address addr = address(uint160(mwTx.metadata));\n        uint256 expiration = (mwTx.metadata - uint256(addr)) >> 160;\n        require(uint24(expiration )> uint24(block.number), \"Expired\");\n        require(address(addr) == erc20, \"Another ERC20\");\n\n        // Check this transaction satisfies the ethereum934 protocol\n        require(\n            zkMimblewimble.verifyTx(\n                mwTx.txProof.a,\n                mwTx.txProof.b,\n                mwTx.txProof.c,\n                [mwTx.fee, mwTx.metadata, mwTx.tag1, mwTx.tag2, mwTx.output1.x, mwTx.output1.y, mwTx.output2.x, mwTx.output2.y, mwTx.sigPoint.x, mwTx.sigPoint.y, 1]\n            ), \"Mimblewimble proof fails\"\n        );\n        return true;\n    }\n\n    function toMimblewimbleTx(uint[52] memory data) internal pure returns (MimblewimbleTx memory) {\n        return MimblewimbleTx(\n            data[0],\n            data[1],\n            data[2],\n            data[3],\n            Proof([data[4], data[5]], [[data[6], data[7]], [data[8], data[9]]], [data[10], data[11]]),\n            data[12],\n            data[13],\n            Proof([data[14], data[15]], [[data[16], data[17]], [data[18], data[19]]], [data[20], data[21]]),\n            EllipticPoint(data[22], data[23]),\n            Proof([data[24], data[25]], [[data[26], data[27]], [data[28], data[29]]], [data[30], data[31]]),\n            EllipticPoint(data[32], data[33]),\n            Proof([data[34], data[35]], [[data[36], data[37]], [data[38], data[39]]], [data[40], data[41]]),\n            EllipticPoint(data[42], data[43]),\n            Proof([data[44], data[45]], [[data[46], data[47]], [data[48], data[49]]], [data[50], data[51]])\n        );\n    }\n}\n",
  "sourcePath": "/Users/gokulalex/Apps/eth_apps/Bismuth/contracts/Ethereum934.sol",
  "compiler": {
    "name": "solc",
    "version": "0.7.6+commit.7338295f.Emscripten.clang"
  },
  "schemaVersion": "3.3.3",
  "updatedAt": "2020-12-23T13:58:41.032Z",
  "devdoc": {
    "kind": "dev",
    "methods": {
      "depositToMagicalWorld(address,uint256,uint256,uint256[2],uint256[2][2],uint256[2])": {
        "details": "Deposits ERC20 to the magical world with zkSNARKs.",
        "params": {
          "a": "zkSNARKs proof data.",
          "amount": "Amount of token to deposit.",
          "b": "zkSNARKs proof data.",
          "c": "zkSNARKs proof data.",
          "erc20": "Address of the ERC20 token.",
          "tag": "Newly generated TXO's y-axis value."
        }
      },
      "rollUp1Mimblewimble(address,uint256,uint256,uint256[52][1],uint256[8])": {
        "details": "Update MMR using zk-RollUp."
      },
      "rollUp2Mimblewimble(address,uint256,uint256,uint256[52][2],uint256[8])": {
        "details": "Update MMR using zk-RollUp."
      },
      "rollUp4Mimblewimble(address,uint256,uint256,uint256[52][4],uint256[8])": {
        "details": "Update MMR using zk-RollUp."
      },
      "withdrawToMuggleWorld(address,uint256,uint256,uint256,uint256[2],uint256[2][2],uint256[2])": {
        "details": "Withdraws ERC20 to the muggle world without revealing which TXO's been used.",
        "params": {
          "erc20": "Address of the ERC20 token.",
          "root": "The MMR root which includes the withdrawing TXO",
          "tag": "y-axis value of the spent tag of a withdrawing TXO. Spent tag is calculated by r*(r*G+v*H).",
          "value": "Value of the withdrawing TXO",
          "zkpA": "zkSNARKs proof data",
          "zkpB": "zkSNARKs proof data",
          "zkpC": "zkSNARKs proof data"
        }
      }
    },
    "version": 1
  },
  "userdoc": {
    "kind": "user",
    "methods": {},
    "version": 1
  }
}