{
  "contractName": "SemiottStream",
  "abi": [
    {
      "inputs": [],
      "stateMutability": "nonpayable",
      "type": "constructor"
    },
    {
      "anonymous": false,
      "inputs": [
        {
          "indexed": true,
          "internalType": "uint256",
          "name": "streamId",
          "type": "uint256"
        },
        {
          "indexed": true,
          "internalType": "address",
          "name": "confirmer",
          "type": "address"
        },
        {
          "indexed": false,
          "internalType": "address",
          "name": "newTokenAddress",
          "type": "address"
        },
        {
          "indexed": false,
          "internalType": "uint256",
          "name": "newStopBlock",
          "type": "uint256"
        },
        {
          "indexed": false,
          "internalType": "uint256",
          "name": "newPayment",
          "type": "uint256"
        },
        {
          "indexed": false,
          "internalType": "uint256",
          "name": "newInterval",
          "type": "uint256"
        }
      ],
      "name": "ConfirmUpdate",
      "type": "event"
    },
    {
      "anonymous": false,
      "inputs": [
        {
          "indexed": true,
          "internalType": "uint256",
          "name": "streamId",
          "type": "uint256"
        },
        {
          "indexed": true,
          "internalType": "address",
          "name": "sender",
          "type": "address"
        },
        {
          "indexed": true,
          "internalType": "address",
          "name": "recipient",
          "type": "address"
        },
        {
          "indexed": false,
          "internalType": "address",
          "name": "tokenAddress",
          "type": "address"
        },
        {
          "indexed": false,
          "internalType": "uint256",
          "name": "startBlock",
          "type": "uint256"
        },
        {
          "indexed": false,
          "internalType": "uint256",
          "name": "stopBlock",
          "type": "uint256"
        },
        {
          "indexed": false,
          "internalType": "uint256",
          "name": "payment",
          "type": "uint256"
        },
        {
          "indexed": false,
          "internalType": "uint256",
          "name": "interval",
          "type": "uint256"
        },
        {
          "indexed": false,
          "internalType": "uint256",
          "name": "deposit",
          "type": "uint256"
        }
      ],
      "name": "CreateStream",
      "type": "event"
    },
    {
      "anonymous": false,
      "inputs": [
        {
          "indexed": true,
          "internalType": "uint256",
          "name": "streamId",
          "type": "uint256"
        },
        {
          "indexed": true,
          "internalType": "address",
          "name": "sender",
          "type": "address"
        },
        {
          "indexed": true,
          "internalType": "address",
          "name": "recipient",
          "type": "address"
        },
        {
          "indexed": false,
          "internalType": "address",
          "name": "newTokenAddress",
          "type": "address"
        },
        {
          "indexed": false,
          "internalType": "uint256",
          "name": "newStopBlock",
          "type": "uint256"
        },
        {
          "indexed": false,
          "internalType": "uint256",
          "name": "newPayment",
          "type": "uint256"
        },
        {
          "indexed": false,
          "internalType": "uint256",
          "name": "newInterval",
          "type": "uint256"
        }
      ],
      "name": "ExecuteUpdate",
      "type": "event"
    },
    {
      "anonymous": false,
      "inputs": [
        {
          "indexed": true,
          "internalType": "address",
          "name": "previousOwner",
          "type": "address"
        },
        {
          "indexed": true,
          "internalType": "address",
          "name": "newOwner",
          "type": "address"
        }
      ],
      "name": "OwnershipTransferred",
      "type": "event"
    },
    {
      "anonymous": false,
      "inputs": [
        {
          "indexed": true,
          "internalType": "uint256",
          "name": "streamId",
          "type": "uint256"
        },
        {
          "indexed": true,
          "internalType": "address",
          "name": "sender",
          "type": "address"
        },
        {
          "indexed": true,
          "internalType": "address",
          "name": "recipient",
          "type": "address"
        },
        {
          "indexed": false,
          "internalType": "uint256",
          "name": "senderAmount",
          "type": "uint256"
        },
        {
          "indexed": false,
          "internalType": "uint256",
          "name": "recipientAmount",
          "type": "uint256"
        }
      ],
      "name": "RedeemStream",
      "type": "event"
    },
    {
      "anonymous": false,
      "inputs": [
        {
          "indexed": true,
          "internalType": "uint256",
          "name": "streamId",
          "type": "uint256"
        },
        {
          "indexed": true,
          "internalType": "address",
          "name": "revoker",
          "type": "address"
        },
        {
          "indexed": false,
          "internalType": "address",
          "name": "newTokenAddress",
          "type": "address"
        },
        {
          "indexed": false,
          "internalType": "uint256",
          "name": "newStopBlock",
          "type": "uint256"
        },
        {
          "indexed": false,
          "internalType": "uint256",
          "name": "newPayment",
          "type": "uint256"
        },
        {
          "indexed": false,
          "internalType": "uint256",
          "name": "newInterval",
          "type": "uint256"
        }
      ],
      "name": "RevokeUpdate",
      "type": "event"
    },
    {
      "anonymous": false,
      "inputs": [
        {
          "indexed": true,
          "internalType": "uint256",
          "name": "streamId",
          "type": "uint256"
        },
        {
          "indexed": true,
          "internalType": "address",
          "name": "recipient",
          "type": "address"
        },
        {
          "indexed": false,
          "internalType": "uint256",
          "name": "amount",
          "type": "uint256"
        }
      ],
      "name": "WithdrawFromStream",
      "type": "event"
    },
    {
      "inputs": [],
      "name": "BeaconContractAddress",
      "outputs": [
        {
          "internalType": "address",
          "name": "",
          "type": "address"
        }
      ],
      "stateMutability": "view",
      "type": "function"
    },
    {
      "inputs": [],
      "name": "owner",
      "outputs": [
        {
          "internalType": "address",
          "name": "",
          "type": "address"
        }
      ],
      "stateMutability": "view",
      "type": "function"
    },
    {
      "inputs": [],
      "name": "renounceOwnership",
      "outputs": [],
      "stateMutability": "nonpayable",
      "type": "function"
    },
    {
      "inputs": [
        {
          "internalType": "address",
          "name": "newOwner",
          "type": "address"
        }
      ],
      "name": "transferOwnership",
      "outputs": [],
      "stateMutability": "nonpayable",
      "type": "function"
    },
    {
      "inputs": [
        {
          "internalType": "address",
          "name": "_address",
          "type": "address"
        }
      ],
      "name": "setBeaconContractAddress",
      "outputs": [],
      "stateMutability": "nonpayable",
      "type": "function"
    },
    {
      "inputs": [],
      "name": "generateRandomNumber",
      "outputs": [
        {
          "internalType": "bytes32",
          "name": "",
          "type": "bytes32"
        }
      ],
      "stateMutability": "view",
      "type": "function"
    },
    {
      "inputs": [],
      "name": "initialize",
      "outputs": [],
      "stateMutability": "nonpayable",
      "type": "function"
    },
    {
      "inputs": [
        {
          "internalType": "uint256",
          "name": "_streamId",
          "type": "uint256"
        },
        {
          "internalType": "address",
          "name": "_addr",
          "type": "address"
        }
      ],
      "name": "balanceOf",
      "outputs": [
        {
          "internalType": "uint256",
          "name": "balance",
          "type": "uint256"
        }
      ],
      "stateMutability": "view",
      "type": "function"
    },
    {
      "inputs": [
        {
          "internalType": "uint256",
          "name": "_streamId",
          "type": "uint256"
        }
      ],
      "name": "getStream",
      "outputs": [
        {
          "internalType": "address",
          "name": "sender",
          "type": "address"
        },
        {
          "internalType": "address",
          "name": "recipient",
          "type": "address"
        },
        {
          "internalType": "address",
          "name": "tokenAddress",
          "type": "address"
        },
        {
          "internalType": "uint256",
          "name": "balance",
          "type": "uint256"
        },
        {
          "internalType": "uint256",
          "name": "startBlock",
          "type": "uint256"
        },
        {
          "internalType": "uint256",
          "name": "stopBlock",
          "type": "uint256"
        },
        {
          "internalType": "uint256",
          "name": "payment",
          "type": "uint256"
        },
        {
          "internalType": "uint256",
          "name": "interval",
          "type": "uint256"
        }
      ],
      "stateMutability": "view",
      "type": "function"
    },
    {
      "inputs": [
        {
          "internalType": "uint256",
          "name": "_streamId",
          "type": "uint256"
        },
        {
          "internalType": "address",
          "name": "_addr",
          "type": "address"
        }
      ],
      "name": "getUpdate",
      "outputs": [
        {
          "internalType": "bool",
          "name": "active",
          "type": "bool"
        }
      ],
      "stateMutability": "view",
      "type": "function"
    },
    {
      "inputs": [
        {
          "internalType": "address",
          "name": "_sender",
          "type": "address"
        },
        {
          "internalType": "address",
          "name": "_recipient",
          "type": "address"
        },
        {
          "internalType": "address",
          "name": "_tokenAddress",
          "type": "address"
        },
        {
          "internalType": "uint256",
          "name": "_startBlock",
          "type": "uint256"
        },
        {
          "internalType": "uint256",
          "name": "_stopBlock",
          "type": "uint256"
        },
        {
          "internalType": "uint256",
          "name": "_payment",
          "type": "uint256"
        },
        {
          "internalType": "uint256",
          "name": "_interval",
          "type": "uint256"
        }
      ],
      "name": "createStream",
      "outputs": [],
      "stateMutability": "nonpayable",
      "type": "function"
    },
    {
      "inputs": [
        {
          "internalType": "uint256",
          "name": "_streamId",
          "type": "uint256"
        },
        {
          "internalType": "uint256",
          "name": "_amount",
          "type": "uint256"
        }
      ],
      "name": "withdrawFromStream",
      "outputs": [],
      "stateMutability": "nonpayable",
      "type": "function"
    },
    {
      "inputs": [
        {
          "internalType": "uint256",
          "name": "_streamId",
          "type": "uint256"
        }
      ],
      "name": "redeemStream",
      "outputs": [],
      "stateMutability": "nonpayable",
      "type": "function"
    },
    {
      "inputs": [
        {
          "internalType": "uint256",
          "name": "_streamId",
          "type": "uint256"
        },
        {
          "internalType": "address",
          "name": "_tokenAddress",
          "type": "address"
        },
        {
          "internalType": "uint256",
          "name": "_stopBlock",
          "type": "uint256"
        },
        {
          "internalType": "uint256",
          "name": "_payment",
          "type": "uint256"
        },
        {
          "internalType": "uint256",
          "name": "_interval",
          "type": "uint256"
        }
      ],
      "name": "confirmUpdate",
      "outputs": [],
      "stateMutability": "nonpayable",
      "type": "function"
    },
    {
      "inputs": [
        {
          "internalType": "uint256",
          "name": "_streamId",
          "type": "uint256"
        },
        {
          "internalType": "address",
          "name": "_tokenAddress",
          "type": "address"
        },
        {
          "internalType": "uint256",
          "name": "_stopBlock",
          "type": "uint256"
        },
        {
          "internalType": "uint256",
          "name": "_payment",
          "type": "uint256"
        },
        {
          "internalType": "uint256",
          "name": "_interval",
          "type": "uint256"
        }
      ],
      "name": "revokeUpdate",
      "outputs": [],
      "stateMutability": "nonpayable",
      "type": "function"
    }
  ],
  "bytecode": "0x60806040527379474439753c7c70011c3b00e06e559378bad040600260006101000a81548173ffffffffffffffffffffffffffffffffffffffff021916908373ffffffffffffffffffffffffffffffffffffffff1602179055503480156200006657600080fd5b506000620000796200012d60201b60201c565b905080600060026101000a81548173ffffffffffffffffffffffffffffffffffffffff021916908373ffffffffffffffffffffffffffffffffffffffff1602179055508073ffffffffffffffffffffffffffffffffffffffff16600073ffffffffffffffffffffffffffffffffffffffff167f8be0079c531659141344cd1fd0a4f28419497f9722a3daafe3b4186f6b6457e060405160405180910390a35060018081905550600160048190555062000135565b600033905090565b61458080620001456000396000f3fe608060405234801561001057600080fd5b50600436106100f55760003560e01c80637a9b2c6c116100975780638da5cb5b116100665780638da5cb5b14610251578063c5daca921461026f578063c765e1f01461028b578063f2fde38b146102a7576100f5565b80637a9b2c6c146101d85780638129fc1c146101f457806386f69ee6146101fe578063894e9a0d1461021a576100f5565b80634a97919c116100d35780634a97919c1461017857806363aef68214610194578063715018a6146101b0578063773a1154146101ba576100f5565b80632035ecf4146100fa57806326d056cc146101185780633656eec214610148575b600080fd5b6101026102c3565b60405161010f9190613f07565b60405180910390f35b610132600480360381019061012d919061364f565b6102e9565b60405161013f91906140f8565b60405180910390f35b610162600480360381019061015d919061364f565b6103f9565b60405161016f91906143b0565b60405180910390f35b610192600480360381019061018d91906135fd565b61075e565b005b6101ae60048036038101906101a9919061368b565b610e8f565b005b6101b8611136565b005b6101c261128d565b6040516101cf9190614113565b60405180910390f35b6101f260048036038101906101ed919061373e565b611346565b005b6101fc6119a2565b005b6102186004803603810190610213919061350d565b611a92565b005b610234600480360381019061022f91906135fd565b611ad6565b604051610248989796959493929190613f74565b60405180910390f35b610259611d62565b6040516102669190613f07565b60405180910390f35b6102896004803603810190610284919061368b565b611d8b565b005b6102a560048036038101906102a09190613536565b611ef8565b005b6102c160048036038101906102bc919061350d565b612402565b005b600260009054906101000a900473ffffffffffffffffffffffffffffffffffffffff1681565b600082600073ffffffffffffffffffffffffffffffffffffffff166003600083815260200190815260200160002060000160009054906101000a900473ffffffffffffffffffffffffffffffffffffffff1673ffffffffffffffffffffffffffffffffffffffff161415610392576040517f08c379a000000000000000000000000000000000000000000000000000000000815260040161038990614370565b60405180910390fd5b6005600085815260200190815260200160002060008473ffffffffffffffffffffffffffffffffffffffff1673ffffffffffffffffffffffffffffffffffffffff16815260200190815260200160002060009054906101000a900460ff1691505092915050565b600082600073ffffffffffffffffffffffffffffffffffffffff166003600083815260200190815260200160002060000160009054906101000a900473ffffffffffffffffffffffffffffffffffffffff1673ffffffffffffffffffffffffffffffffffffffff1614156104a2576040517f08c379a000000000000000000000000000000000000000000000000000000000815260040161049990614370565b60405180910390fd5b6104aa6133ec565b600360008681526020019081526020016000206040518060c00160405290816000820160009054906101000a900473ffffffffffffffffffffffffffffffffffffffff1673ffffffffffffffffffffffffffffffffffffffff1673ffffffffffffffffffffffffffffffffffffffff1681526020016001820160009054906101000a900473ffffffffffffffffffffffffffffffffffffffff1673ffffffffffffffffffffffffffffffffffffffff1673ffffffffffffffffffffffffffffffffffffffff1681526020016002820160009054906101000a900473ffffffffffffffffffffffffffffffffffffffff1673ffffffffffffffffffffffffffffffffffffffff1673ffffffffffffffffffffffffffffffffffffffff168152602001600382016040518060400160405290816000820154815260200160018201548152505081526020016005820160405180604001604052908160008201548152602001600182015481525050815260200160078201548152505090506000610631866125c9565b9050600061063e876127ae565b905060006106778460800151600001516106698660800151602001518561298390919063ffffffff16565b6129cd90919063ffffffff16565b9050828460a00151146106b0576106ad61069e8560a0015185612a3d90919063ffffffff16565b82612a3d90919063ffffffff16565b90505b836020015173ffffffffffffffffffffffffffffffffffffffff168773ffffffffffffffffffffffffffffffffffffffff1614156106f45780955050505050610757565b836000015173ffffffffffffffffffffffffffffffffffffffff168773ffffffffffffffffffffffffffffffffffffffff16141561074e57610743818560a00151612a3d90919063ffffffff16565b955050505050610757565b60009550505050505b5092915050565b80600073ffffffffffffffffffffffffffffffffffffffff166003600083815260200190815260200160002060000160009054906101000a900473ffffffffffffffffffffffffffffffffffffffff1673ffffffffffffffffffffffffffffffffffffffff161415610805576040517f08c379a00000000000000000000000000000000000000000000000000000000081526004016107fc90614370565b60405180910390fd5b816003600082815260200190815260200160002060000160009054906101000a900473ffffffffffffffffffffffffffffffffffffffff1673ffffffffffffffffffffffffffffffffffffffff163373ffffffffffffffffffffffffffffffffffffffff1614806108d757506003600082815260200190815260200160002060010160009054906101000a900473ffffffffffffffffffffffffffffffffffffffff1673ffffffffffffffffffffffffffffffffffffffff163373ffffffffffffffffffffffffffffffffffffffff16145b610916576040517f08c379a000000000000000000000000000000000000000000000000000000000815260040161090d90614330565b60405180910390fd5b61091e6133ec565b600360008581526020019081526020016000206040518060c00160405290816000820160009054906101000a900473ffffffffffffffffffffffffffffffffffffffff1673ffffffffffffffffffffffffffffffffffffffff1673ffffffffffffffffffffffffffffffffffffffff1681526020016001820160009054906101000a900473ffffffffffffffffffffffffffffffffffffffff1673ffffffffffffffffffffffffffffffffffffffff1673ffffffffffffffffffffffffffffffffffffffff1681526020016002820160009054906101000a900473ffffffffffffffffffffffffffffffffffffffff1673ffffffffffffffffffffffffffffffffffffffff1673ffffffffffffffffffffffffffffffffffffffff168152602001600382016040518060400160405290816000820154815260200160018201548152505081526020016005820160405180604001604052908160008201548152602001600182015481525050815260200160078201548152505090506000610aaa8583600001516103f9565b90506000610abc8684602001516103f9565b9050826020015173ffffffffffffffffffffffffffffffffffffffff16836000015173ffffffffffffffffffffffffffffffffffffffff16877ffe46ddcd2cd1b3f7fd71cc508b3764a00a1701e894d28090d11bf3f90fb8dea28585604051610b269291906143cb565b60405180910390a460036000878152602001908152602001600020600080820160006101000a81549073ffffffffffffffffffffffffffffffffffffffff02191690556001820160006101000a81549073ffffffffffffffffffffffffffffffffffffffff02191690556002820160006101000a81549073ffffffffffffffffffffffffffffffffffffffff021916905560038201600080820160009055600182016000905550506005820160008082016000905560018201600090555050600782016000905550506000600560008881526020019081526020016000206000856000015173ffffffffffffffffffffffffffffffffffffffff1673ffffffffffffffffffffffffffffffffffffffff16815260200190815260200160002060006101000a81548160ff0219169083151502179055506000600560008881526020019081526020016000206000856020015173ffffffffffffffffffffffffffffffffffffffff1673ffffffffffffffffffffffffffffffffffffffff16815260200190815260200160002060006101000a81548160ff0219169083151502179055506000836040015190506000821115610dac578073ffffffffffffffffffffffffffffffffffffffff1663a9059cbb8560200151846040518363ffffffff1660e01b8152600401610d1a929190614029565b602060405180830381600087803b158015610d3457600080fd5b505af1158015610d48573d6000803e3d6000fd5b505050506040513d601f19601f82011682018060405250810190610d6c91906135d4565b610dab576040517f08c379a0000000000000000000000000000000000000000000000000000000008152600401610da290614290565b60405180910390fd5b5b6000831115610e86578073ffffffffffffffffffffffffffffffffffffffff1663a9059cbb8560000151856040518363ffffffff1660e01b8152600401610df4929190614029565b602060405180830381600087803b158015610e0e57600080fd5b505af1158015610e22573d6000803e3d6000fd5b505050506040513d601f19601f82011682018060405250810190610e4691906135d4565b610e85576040517f08c379a0000000000000000000000000000000000000000000000000000000008152600401610e7c90614290565b60405180910390fd5b5b50505050505050565b84600073ffffffffffffffffffffffffffffffffffffffff166003600083815260200190815260200160002060000160009054906101000a900473ffffffffffffffffffffffffffffffffffffffff1673ffffffffffffffffffffffffffffffffffffffff161415610f36576040517f08c379a0000000000000000000000000000000000000000000000000000000008152600401610f2d90614370565b60405180910390fd5b856003600082815260200190815260200160002060000160009054906101000a900473ffffffffffffffffffffffffffffffffffffffff1673ffffffffffffffffffffffffffffffffffffffff163373ffffffffffffffffffffffffffffffffffffffff16148061100857506003600082815260200190815260200160002060010160009054906101000a900473ffffffffffffffffffffffffffffffffffffffff1673ffffffffffffffffffffffffffffffffffffffff163373ffffffffffffffffffffffffffffffffffffffff16145b611047576040517f08c379a000000000000000000000000000000000000000000000000000000000815260040161103e90614330565b60405180910390fd5b6110548787878787612a87565b5061106186438786612ba7565b503373ffffffffffffffffffffffffffffffffffffffff16877f1cce0c004942fc2ff42b63a6cfb316ef8cb92a936961aaca2ca1eb31b890961f888888886040516110af9493929190614052565b60405180910390a360016005600089815260200190815260200160002060003373ffffffffffffffffffffffffffffffffffffffff1673ffffffffffffffffffffffffffffffffffffffff16815260200190815260200160002060006101000a81548160ff02191690831515021790555061112d8787878787612d49565b50505050505050565b61113e613216565b73ffffffffffffffffffffffffffffffffffffffff16600060029054906101000a900473ffffffffffffffffffffffffffffffffffffffff1673ffffffffffffffffffffffffffffffffffffffff16146111cd576040517f08c379a00000000000000000000000000000000000000000000000000000000081526004016111c490614270565b60405180910390fd5b600073ffffffffffffffffffffffffffffffffffffffff16600060029054906101000a900473ffffffffffffffffffffffffffffffffffffffff1673ffffffffffffffffffffffffffffffffffffffff167f8be0079c531659141344cd1fd0a4f28419497f9722a3daafe3b4186f6b6457e060405160405180910390a360008060026101000a81548173ffffffffffffffffffffffffffffffffffffffff021916908373ffffffffffffffffffffffffffffffffffffffff160217905550565b600080600080600260009054906101000a900473ffffffffffffffffffffffffffffffffffffffff1690508073ffffffffffffffffffffffffffffffffffffffff1663f4bebd7a6040518163ffffffff1660e01b8152600401604080518083038186803b1580156112fd57600080fd5b505afa158015611311573d6000803e3d6000fd5b505050506040513d601f19601f820116820180604052508101906113359190613702565b809350819450505081935050505090565b81600073ffffffffffffffffffffffffffffffffffffffff166003600083815260200190815260200160002060000160009054906101000a900473ffffffffffffffffffffffffffffffffffffffff1673ffffffffffffffffffffffffffffffffffffffff1614156113ed576040517f08c379a00000000000000000000000000000000000000000000000000000000081526004016113e490614370565b60405180910390fd5b823373ffffffffffffffffffffffffffffffffffffffff166003600083815260200190815260200160002060010160009054906101000a900473ffffffffffffffffffffffffffffffffffffffff1673ffffffffffffffffffffffffffffffffffffffff1614611492576040517f08c379a000000000000000000000000000000000000000000000000000000000815260040161148990614350565b60405180910390fd5b61149a6133ec565b600360008681526020019081526020016000206040518060c00160405290816000820160009054906101000a900473ffffffffffffffffffffffffffffffffffffffff1673ffffffffffffffffffffffffffffffffffffffff1673ffffffffffffffffffffffffffffffffffffffff1681526020016001820160009054906101000a900473ffffffffffffffffffffffffffffffffffffffff1673ffffffffffffffffffffffffffffffffffffffff1673ffffffffffffffffffffffffffffffffffffffff1681526020016002820160009054906101000a900473ffffffffffffffffffffffffffffffffffffffff1673ffffffffffffffffffffffffffffffffffffffff1673ffffffffffffffffffffffffffffffffffffffff1681526020016003820160405180604001604052908160008201548152602001600182015481525050815260200160058201604051806040016040529081600082015481526020016001820154815250508152602001600782015481525050905060006116268683602001516103f9565b90508481101561166b576040517f08c379a000000000000000000000000000000000000000000000000000000000815260040161166290614310565b60405180910390fd5b611694856003600089815260200190815260200160002060070154612a3d90919063ffffffff16565b6003600088815260200190815260200160002060070181905550816020015173ffffffffffffffffffffffffffffffffffffffff16867f36c3ab437e6a424ed25dc4bfdeb62706aa06558660fab2dab229d2555adaf89c876040516116f991906143b0565b60405180910390a36000600360008881526020019081526020016000206007015414156118bc5760036000878152602001908152602001600020600080820160006101000a81549073ffffffffffffffffffffffffffffffffffffffff02191690556001820160006101000a81549073ffffffffffffffffffffffffffffffffffffffff02191690556002820160006101000a81549073ffffffffffffffffffffffffffffffffffffffff021916905560038201600080820160009055600182016000905550506005820160008082016000905560018201600090555050600782016000905550506000600560008881526020019081526020016000206000846000015173ffffffffffffffffffffffffffffffffffffffff1673ffffffffffffffffffffffffffffffffffffffff16815260200190815260200160002060006101000a81548160ff0219169083151502179055506000600560008881526020019081526020016000206000846020015173ffffffffffffffffffffffffffffffffffffffff1673ffffffffffffffffffffffffffffffffffffffff16815260200190815260200160002060006101000a81548160ff0219169083151502179055505b600085111561199a57816040015173ffffffffffffffffffffffffffffffffffffffff1663a9059cbb8360200151876040518363ffffffff1660e01b8152600401611908929190614029565b602060405180830381600087803b15801561192257600080fd5b505af1158015611936573d6000803e3d6000fd5b505050506040513d601f19601f8201168201806040525081019061195a91906135d4565b611999576040517f08c379a000000000000000000000000000000000000000000000000000000000815260040161199090614290565b60405180910390fd5b5b505050505050565b600060019054906101000a900460ff16806119c157506119c061321e565b5b806119d7575060008054906101000a900460ff16155b611a16576040517f08c379a0000000000000000000000000000000000000000000000000000000008152600401611a0d90614230565b60405180910390fd5b60008060019054906101000a900460ff161590508015611a66576001600060016101000a81548160ff02191690831515021790555060016000806101000a81548160ff0219169083151502179055505b60016004819055508015611a8f5760008060016101000a81548160ff0219169083151502179055505b50565b80600260006101000a81548173ffffffffffffffffffffffffffffffffffffffff021916908373ffffffffffffffffffffffffffffffffffffffff16021790555050565b60008060008060008060008088600073ffffffffffffffffffffffffffffffffffffffff166003600083815260200190815260200160002060000160009054906101000a900473ffffffffffffffffffffffffffffffffffffffff1673ffffffffffffffffffffffffffffffffffffffff161415611b89576040517f08c379a0000000000000000000000000000000000000000000000000000000008152600401611b8090614370565b60405180910390fd5b611b916133ec565b600360008c81526020019081526020016000206040518060c00160405290816000820160009054906101000a900473ffffffffffffffffffffffffffffffffffffffff1673ffffffffffffffffffffffffffffffffffffffff1673ffffffffffffffffffffffffffffffffffffffff1681526020016001820160009054906101000a900473ffffffffffffffffffffffffffffffffffffffff1673ffffffffffffffffffffffffffffffffffffffff1673ffffffffffffffffffffffffffffffffffffffff1681526020016002820160009054906101000a900473ffffffffffffffffffffffffffffffffffffffff1673ffffffffffffffffffffffffffffffffffffffff1673ffffffffffffffffffffffffffffffffffffffff168152602001600382016040518060400160405290816000820154815260200160018201548152505081526020016005820160405180604001604052908160008201548152602001600182015481525050815260200160078201548152505090508060000151816020015182604001518360a00151846060015160000151856060015160200151866080015160000151876080015160200151995099509950995099509950995099505050919395975091939597565b60008060029054906101000a900473ffffffffffffffffffffffffffffffffffffffff16905090565b8433600115156005600084815260200190815260200160002060008373ffffffffffffffffffffffffffffffffffffffff1673ffffffffffffffffffffffffffffffffffffffff16815260200190815260200160002060009054906101000a900460ff16151514611e31576040517f08c379a0000000000000000000000000000000000000000000000000000000008152600401611e28906141d0565b60405180910390fd5b3373ffffffffffffffffffffffffffffffffffffffff16877f652aa7dfd60d34135d95736f012daa465d0471f7c908dff2d69b9848680c688588888888604051611e7e9493929190614052565b60405180910390a360006005600089815260200190815260200160002060003373ffffffffffffffffffffffffffffffffffffffff1673ffffffffffffffffffffffffffffffffffffffff16815260200190815260200160002060006101000a81548160ff02191690831515021790555050505050505050565b611f0485858584612ba7565b506000611f3e83611f3084611f228989612a3d90919063ffffffff16565b61298390919063ffffffff16565b6129cd90919063ffffffff16565b905060008690508073ffffffffffffffffffffffffffffffffffffffff1663095ea7b373086ed7c7f7783153896f77b7092928051de382646103e86040518363ffffffff1660e01b8152600401611f96929190613f22565b602060405180830381600087803b158015611fb057600080fd5b505af1158015611fc4573d6000803e3d6000fd5b505050506040513d601f19601f82011682018060405250810190611fe891906135d4565b5060008173ffffffffffffffffffffffffffffffffffffffff1663dd62ed3e8b306040518363ffffffff1660e01b8152600401612026929190613f4b565b60206040518083038186803b15801561203e57600080fd5b505afa158015612052573d6000803e3d6000fd5b505050506040513d601f19601f820116820180604052508101906120769190613626565b9050828110156120bb576040517f08c379a00000000000000000000000000000000000000000000000000000000081526004016120b290614390565b60405180910390fd5b6040518060c001604052808b73ffffffffffffffffffffffffffffffffffffffff1681526020018a73ffffffffffffffffffffffffffffffffffffffff1681526020018973ffffffffffffffffffffffffffffffffffffffff16815260200160405180604001604052808a815260200189815250815260200160405180604001604052808881526020018781525081526020018481525060036000600454815260200190815260200160002060008201518160000160006101000a81548173ffffffffffffffffffffffffffffffffffffffff021916908373ffffffffffffffffffffffffffffffffffffffff16021790555060208201518160010160006101000a81548173ffffffffffffffffffffffffffffffffffffffff021916908373ffffffffffffffffffffffffffffffffffffffff16021790555060408201518160020160006101000a81548173ffffffffffffffffffffffffffffffffffffffff021916908373ffffffffffffffffffffffffffffffffffffffff160217905550606082015181600301600082015181600001556020820151816001015550506080820151816005016000820151816000015560208201518160010155505060a082015181600701559050508873ffffffffffffffffffffffffffffffffffffffff168a73ffffffffffffffffffffffffffffffffffffffff166004547fb3ec17fd3e5ef689e147851f57c4182d97501571839b78360958ef6887aad5858b8b8b8b8b8b6040516122f196959493929190614097565b60405180910390a461230161128d565b4360001b111561232857612321600160045461323590919063ffffffff16565b6004819055505b8173ffffffffffffffffffffffffffffffffffffffff166323b872dd8b30866040518463ffffffff1660e01b815260040161236593929190613ff2565b602060405180830381600087803b15801561237f57600080fd5b505af1158015612393573d6000803e3d6000fd5b505050506040513d601f19601f820116820180604052508101906123b791906135d4565b6123f6576040517f08c379a00000000000000000000000000000000000000000000000000000000081526004016123ed90614170565b60405180910390fd5b50505050505050505050565b61240a613216565b73ffffffffffffffffffffffffffffffffffffffff16600060029054906101000a900473ffffffffffffffffffffffffffffffffffffffff1673ffffffffffffffffffffffffffffffffffffffff1614612499576040517f08c379a000000000000000000000000000000000000000000000000000000000815260040161249090614270565b60405180910390fd5b600073ffffffffffffffffffffffffffffffffffffffff168173ffffffffffffffffffffffffffffffffffffffff161415612509576040517f08c379a000000000000000000000000000000000000000000000000000000000815260040161250090614190565b60405180910390fd5b8073ffffffffffffffffffffffffffffffffffffffff16600060029054906101000a900473ffffffffffffffffffffffffffffffffffffffff1673ffffffffffffffffffffffffffffffffffffffff167f8be0079c531659141344cd1fd0a4f28419497f9722a3daafe3b4186f6b6457e060405160405180910390a380600060026101000a81548173ffffffffffffffffffffffffffffffffffffffff021916908373ffffffffffffffffffffffffffffffffffffffff16021790555050565b60006125d36133ec565b600360008481526020019081526020016000206040518060c00160405290816000820160009054906101000a900473ffffffffffffffffffffffffffffffffffffffff1673ffffffffffffffffffffffffffffffffffffffff1673ffffffffffffffffffffffffffffffffffffffff1681526020016001820160009054906101000a900473ffffffffffffffffffffffffffffffffffffffff1673ffffffffffffffffffffffffffffffffffffffff1673ffffffffffffffffffffffffffffffffffffffff1681526020016002820160009054906101000a900473ffffffffffffffffffffffffffffffffffffffff1673ffffffffffffffffffffffffffffffffffffffff1673ffffffffffffffffffffffffffffffffffffffff168152602001600382016040518060400160405290816000820154815260200160018201548152505081526020016005820160405180604001604052908160008201548152602001600182015481525050815260200160078201548152505090506127a681608001516000015161279883608001516020015161278a856060015160000151866060015160200151612a3d90919063ffffffff16565b61298390919063ffffffff16565b6129cd90919063ffffffff16565b915050919050565b60006127b86133ec565b600360008481526020019081526020016000206040518060c00160405290816000820160009054906101000a900473ffffffffffffffffffffffffffffffffffffffff1673ffffffffffffffffffffffffffffffffffffffff1673ffffffffffffffffffffffffffffffffffffffff1681526020016001820160009054906101000a900473ffffffffffffffffffffffffffffffffffffffff1673ffffffffffffffffffffffffffffffffffffffff1673ffffffffffffffffffffffffffffffffffffffff1681526020016002820160009054906101000a900473ffffffffffffffffffffffffffffffffffffffff1673ffffffffffffffffffffffffffffffffffffffff1673ffffffffffffffffffffffffffffffffffffffff168152602001600382016040518060400160405290816000820154815260200160018201548152505081526020016005820160405180604001604052908160008201548152602001600182015481525050815260200160078201548152505090506000816060015160000151905060008260600151602001519050814311612961576000935050505061297e565b80431161297557814303935050505061297e565b81810393505050505b919050565b60006129c583836040518060400160405280601a81526020017f536166654d6174683a206469766973696f6e206279207a65726f00000000000081525061328a565b905092915050565b6000808314156129e05760009050612a37565b60008284029050828482816129f157fe5b0414612a32576040517f08c379a0000000000000000000000000000000000000000000000000000000008152600401612a2990614250565b60405180910390fd5b809150505b92915050565b6000612a7f83836040518060400160405280601e81526020017f536166654d6174683a207375627472616374696f6e206f766572666c6f7700008152506132eb565b905092915050565b60008473ffffffffffffffffffffffffffffffffffffffff166003600088815260200190815260200160002060020160009054906101000a900473ffffffffffffffffffffffffffffffffffffffff1673ffffffffffffffffffffffffffffffffffffffff16141580612b13575083600360008881526020019081526020016000206003016001015414155b80612b37575082600360008881526020019081526020016000206005016000015414155b80612b5b575081600360008881526020019081526020016000206005016001015414155b612b9a576040517f08c379a0000000000000000000000000000000000000000000000000000000008152600401612b9190614150565b60405180910390fd5b6001905095945050505050565b60008073ffffffffffffffffffffffffffffffffffffffff168573ffffffffffffffffffffffffffffffffffffffff161415612c18576040517f08c379a0000000000000000000000000000000000000000000000000000000008152600401612c0f906142b0565b60405180910390fd5b43841015612c5b576040517f08c379a0000000000000000000000000000000000000000000000000000000008152600401612c5290614210565b60405180910390fd5b838311612c9d576040517f08c379a0000000000000000000000000000000000000000000000000000000008152600401612c94906141f0565b60405180910390fd5b6000848403905082811015612ce7576040517f08c379a0000000000000000000000000000000000000000000000000000000008152600401612cde906142d0565b60405180910390fd5b6000612cfc848361334690919063ffffffff16565b14612d3c576040517f08c379a0000000000000000000000000000000000000000000000000000000008152600401612d33906142f0565b60405180910390fd5b6001915050949350505050565b84600073ffffffffffffffffffffffffffffffffffffffff166003600083815260200190815260200160002060000160009054906101000a900473ffffffffffffffffffffffffffffffffffffffff1673ffffffffffffffffffffffffffffffffffffffff161415612df0576040517f08c379a0000000000000000000000000000000000000000000000000000000008152600401612de790614370565b60405180910390fd5b612df86133ec565b600360008881526020019081526020016000206040518060c00160405290816000820160009054906101000a900473ffffffffffffffffffffffffffffffffffffffff1673ffffffffffffffffffffffffffffffffffffffff1673ffffffffffffffffffffffffffffffffffffffff1681526020016001820160009054906101000a900473ffffffffffffffffffffffffffffffffffffffff1673ffffffffffffffffffffffffffffffffffffffff1673ffffffffffffffffffffffffffffffffffffffff1681526020016002820160009054906101000a900473ffffffffffffffffffffffffffffffffffffffff1673ffffffffffffffffffffffffffffffffffffffff1673ffffffffffffffffffffffffffffffffffffffff1681526020016003820160405180604001604052908160008201548152602001600182015481525050815260200160058201604051806040016040529081600082015481526020016001820154815250508152602001600782015481525050905060001515600560008981526020019081526020016000206000836000015173ffffffffffffffffffffffffffffffffffffffff1673ffffffffffffffffffffffffffffffffffffffff16815260200190815260200160002060009054906101000a900460ff1615151415612fe8575061320e565b60001515600560008981526020019081526020016000206000836020015173ffffffffffffffffffffffffffffffffffffffff1673ffffffffffffffffffffffffffffffffffffffff16815260200190815260200160002060009054906101000a900460ff161515141561305c575061320e565b6000613083846130754389612a3d90919063ffffffff16565b61334690919063ffffffff16565b9050600061309a8288612a3d90919063ffffffff16565b9050826020015173ffffffffffffffffffffffffffffffffffffffff16836000015173ffffffffffffffffffffffffffffffffffffffff168a7fd586e7f196fc84f737a1eba26ba1ad9e0b4b64d5803b17433c89a2608b8872458b858b8b6040516131089493929190614052565b60405180910390a46000600560008b81526020019081526020016000206000856000015173ffffffffffffffffffffffffffffffffffffffff1673ffffffffffffffffffffffffffffffffffffffff16815260200190815260200160002060006101000a81548160ff0219169083151502179055506000600560008b81526020019081526020016000206000856020015173ffffffffffffffffffffffffffffffffffffffff1673ffffffffffffffffffffffffffffffffffffffff16815260200190815260200160002060006101000a81548160ff0219169083151502179055506131f38961075e565b61320a836000015184602001518a43858b8b611ef8565b5050505b505050505050565b600033905090565b6000803090506000813b9050600081149250505090565b600080828401905083811015613280576040517f08c379a0000000000000000000000000000000000000000000000000000000008152600401613277906141b0565b60405180910390fd5b8091505092915050565b600080831182906132d1576040517f08c379a00000000000000000000000000000000000000000000000000000000081526004016132c8919061412e565b60405180910390fd5b5060008385816132dd57fe5b049050809150509392505050565b6000838311158290613333576040517f08c379a000000000000000000000000000000000000000000000000000000000815260040161332a919061412e565b60405180910390fd5b5060008385039050809150509392505050565b600061338883836040518060400160405280601881526020017f536166654d6174683a206d6f64756c6f206279207a65726f0000000000000000815250613390565b905092915050565b60008083141582906133d8576040517f08c379a00000000000000000000000000000000000000000000000000000000081526004016133cf919061412e565b60405180910390fd5b508284816133e257fe5b0690509392505050565b6040518060c00160405280600073ffffffffffffffffffffffffffffffffffffffff168152602001600073ffffffffffffffffffffffffffffffffffffffff168152602001600073ffffffffffffffffffffffffffffffffffffffff168152602001613456613470565b815260200161346361348a565b8152602001600081525090565b604051806040016040528060008152602001600081525090565b604051806040016040528060008152602001600081525090565b6000813590506134b3816144ee565b92915050565b6000815190506134c881614505565b92915050565b6000815190506134dd8161451c565b92915050565b6000813590506134f281614533565b92915050565b60008151905061350781614533565b92915050565b60006020828403121561351f57600080fd5b600061352d848285016134a4565b91505092915050565b600080600080600080600060e0888a03121561355157600080fd5b600061355f8a828b016134a4565b97505060206135708a828b016134a4565b96505060406135818a828b016134a4565b95505060606135928a828b016134e3565b94505060806135a38a828b016134e3565b93505060a06135b48a828b016134e3565b92505060c06135c58a828b016134e3565b91505092959891949750929550565b6000602082840312156135e657600080fd5b60006135f4848285016134b9565b91505092915050565b60006020828403121561360f57600080fd5b600061361d848285016134e3565b91505092915050565b60006020828403121561363857600080fd5b6000613646848285016134f8565b91505092915050565b6000806040838503121561366257600080fd5b6000613670858286016134e3565b9250506020613681858286016134a4565b9150509250929050565b600080600080600060a086880312156136a357600080fd5b60006136b1888289016134e3565b95505060206136c2888289016134a4565b94505060406136d3888289016134e3565b93505060606136e4888289016134e3565b92505060806136f5888289016134e3565b9150509295509295909350565b6000806040838503121561371557600080fd5b6000613723858286016134f8565b9250506020613734858286016134ce565b9150509250929050565b6000806040838503121561375157600080fd5b600061375f858286016134e3565b9250506020613770858286016134e3565b9150509250929050565b61378381614462565b82525050565b61379281614410565b82525050565b6137a181614422565b82525050565b6137b08161442e565b82525050565b6137bf81614474565b82525050565b60006137d0826143f4565b6137da81856143ff565b93506137ea8185602086016144aa565b6137f3816144dd565b840191505092915050565b600061380b601e836143ff565b91507f73747265616d20686173207468657365207465726d7320616c726561647900006000830152602082019050919050565b600061384b6016836143ff565b91507f696e697469616c206465706f736974206661696c6564000000000000000000006000830152602082019050919050565b600061388b6026836143ff565b91507f4f776e61626c653a206e6577206f776e657220697320746865207a65726f206160008301527f64647265737300000000000000000000000000000000000000000000000000006020830152604082019050919050565b60006138f1601b836143ff565b91507f536166654d6174683a206164646974696f6e206f766572666c6f7700000000006000830152602082019050919050565b60006139316027836143ff565b91507f6d73672e73656e64657220686173206e6f7420636f6e6669726d65642074686560008301527f20757064617465000000000000000000000000000000000000000000000000006020830152604082019050919050565b60006139976036836143ff565b91507f7468652073746f7020626c6f636b206e6565647320746f20626520686967686560008301527f72207468616e2074686520737461727420626c6f636b000000000000000000006020830152604082019050919050565b60006139fd6040836143ff565b91507f74686520737461727420626c6f636b206e6565647320746f206265206869676860008301527f6572207468616e207468652063757272656e7420626c6f636b206e756d6265726020830152604082019050919050565b6000613a63602e836143ff565b91507f496e697469616c697a61626c653a20636f6e747261637420697320616c72656160008301527f647920696e697469616c697a65640000000000000000000000000000000000006020830152604082019050919050565b6000613ac96021836143ff565b91507f536166654d6174683a206d756c7469706c69636174696f6e206f766572666c6f60008301527f77000000000000000000000000000000000000000000000000000000000000006020830152604082019050919050565b6000613b2f6020836143ff565b91507f4f776e61626c653a2063616c6c6572206973206e6f7420746865206f776e65726000830152602082019050919050565b6000613b6f6015836143ff565b91507f6572633230207472616e73666572206661696c656400000000000000000000006000830152602082019050919050565b6000613baf602b836143ff565b91507f746f6b656e20636f6e74726163742061646472657373206e6565647320746f2060008301527f62652070726f76696465640000000000000000000000000000000000000000006020830152604082019050919050565b6000613c156041836143ff565b91507f74686520626c6f636b20646966666572656e6365206e6565647320746f20626560008301527f20686967686572207468616e20746865207061796d656e7420696e746572766160208301527f6c000000000000000000000000000000000000000000000000000000000000006040830152606082019050919050565b6000613ca16043836143ff565b91507f74686520626c6f636b20646966666572656e6365206e6565647320746f20626560008301527f2061206d756c7469706c65206f6620746865207061796d656e7420696e74657260208301527f76616c00000000000000000000000000000000000000000000000000000000006040830152606082019050919050565b6000613d2d6010836143ff565b91507f6e6f7420656e6f7567682066756e6473000000000000000000000000000000006000830152602082019050919050565b6000613d6d6046836143ff565b91507f6f6e6c79207468652073656e646572206f722074686520726563697069656e7460008301527f206f66207468652073747265616d2063616e20706572666f726d20746869732060208301527f616374696f6e00000000000000000000000000000000000000000000000000006040830152606082019050919050565b6000613df9603b836143ff565b91507f6f6e6c79207468652073747265616d20726563697069656e7420697320616c6c60008301527f6f77656420746f20706572666f726d207468697320616374696f6e00000000006020830152604082019050919050565b6000613e5f6014836143ff565b91507f73747265616d20646f65736e27742065786973740000000000000000000000006000830152602082019050919050565b6000613e9f602e836143ff565b91507f636f6e7472616374206e6f7420616c6c6f77656420746f207472616e7366657260008301527f20656e6f75676820746f6b656e730000000000000000000000000000000000006020830152604082019050919050565b613f0181614458565b82525050565b6000602082019050613f1c6000830184613789565b92915050565b6000604082019050613f37600083018561377a565b613f4460208301846137b6565b9392505050565b6000604082019050613f606000830185613789565b613f6d6020830184613789565b9392505050565b600061010082019050613f8a600083018b613789565b613f97602083018a613789565b613fa46040830189613789565b613fb16060830188613ef8565b613fbe6080830187613ef8565b613fcb60a0830186613ef8565b613fd860c0830185613ef8565b613fe560e0830184613ef8565b9998505050505050505050565b60006060820190506140076000830186613789565b6140146020830185613789565b6140216040830184613ef8565b949350505050565b600060408201905061403e6000830185613789565b61404b6020830184613ef8565b9392505050565b60006080820190506140676000830187613789565b6140746020830186613ef8565b6140816040830185613ef8565b61408e6060830184613ef8565b95945050505050565b600060c0820190506140ac6000830189613789565b6140b96020830188613ef8565b6140c66040830187613ef8565b6140d36060830186613ef8565b6140e06080830185613ef8565b6140ed60a0830184613ef8565b979650505050505050565b600060208201905061410d6000830184613798565b92915050565b600060208201905061412860008301846137a7565b92915050565b6000602082019050818103600083015261414881846137c5565b905092915050565b60006020820190508181036000830152614169816137fe565b9050919050565b600060208201905081810360008301526141898161383e565b9050919050565b600060208201905081810360008301526141a98161387e565b9050919050565b600060208201905081810360008301526141c9816138e4565b9050919050565b600060208201905081810360008301526141e981613924565b9050919050565b600060208201905081810360008301526142098161398a565b9050919050565b60006020820190508181036000830152614229816139f0565b9050919050565b6000602082019050818103600083015261424981613a56565b9050919050565b6000602082019050818103600083015261426981613abc565b9050919050565b6000602082019050818103600083015261428981613b22565b9050919050565b600060208201905081810360008301526142a981613b62565b9050919050565b600060208201905081810360008301526142c981613ba2565b9050919050565b600060208201905081810360008301526142e981613c08565b9050919050565b6000602082019050818103600083015261430981613c94565b9050919050565b6000602082019050818103600083015261432981613d20565b9050919050565b6000602082019050818103600083015261434981613d60565b9050919050565b6000602082019050818103600083015261436981613dec565b9050919050565b6000602082019050818103600083015261438981613e52565b9050919050565b600060208201905081810360008301526143a981613e92565b9050919050565b60006020820190506143c56000830184613ef8565b92915050565b60006040820190506143e06000830185613ef8565b6143ed6020830184613ef8565b9392505050565b600081519050919050565b600082825260208201905092915050565b600061441b82614438565b9050919050565b60008115159050919050565b6000819050919050565b600073ffffffffffffffffffffffffffffffffffffffff82169050919050565b6000819050919050565b600061446d82614486565b9050919050565b600061447f82614458565b9050919050565b600061449182614498565b9050919050565b60006144a382614438565b9050919050565b60005b838110156144c85780820151818401526020810190506144ad565b838111156144d7576000848401525b50505050565b6000601f19601f8301169050919050565b6144f781614410565b811461450257600080fd5b50565b61450e81614422565b811461451957600080fd5b50565b6145258161442e565b811461453057600080fd5b50565b61453c81614458565b811461454757600080fd5b5056fea2646970667358221220db52777dfebdef931990b8a0a9c547f11c13040212acbf91f5ca7a3e184f69d964736f6c63430007010033",
  "immutableReferences": {},
  "source": "// SPDX-License-Identifier: MIT\n\npragma solidity >=0.6.0 <0.8.0;\npragma experimental ABIEncoderV2;\n\nimport \"./SafeMath.sol\";\nimport \"./Ownable.sol\";\nimport \"./IERC20.sol\";\nimport \"./ReentrancyGuard.sol\";\nimport \"./Initializable.sol\";\n\ncontract streamBeacon {\n    function getLatestRandomness()external view returns(uint256,bytes32){}\n    \n}\n\ncontract SemiottStream is Initializable, Ownable, ReentrancyGuard {\n    using SafeMath for uint256;\n    \n    address public BeaconContractAddress = 0x79474439753C7c70011C3b00e06e559378bAD040;\n    \n    function setBeaconContractAddress(address _address) public  {\n        BeaconContractAddress=_address;\n    }\n    \n    function generateRandomNumber() public view returns(bytes32){\n        uint blockNumber;\n        bytes32 randomNumber;\n        streamBeacon beacon=streamBeacon(BeaconContractAddress);\n        (blockNumber,randomNumber) = beacon.getLatestRandomness();\n        return randomNumber;\n       \n    }\n   \n    \n\n    /**\n     * Types\n     */\n    \n     \n    struct Timeframe {\n        uint256 start;\n        uint256 stop;\n    }\n\n    struct Rate {\n        uint256 payment;\n        uint256 interval;\n    }\n\n    struct Stream {\n        address sender;\n        address recipient;\n        address tokenAddress;\n        Timeframe timeframe;\n        Rate rate;\n        uint256 balance;\n    }\n\n\n    mapping(uint256 => Stream) private streams;\n    uint256 private streamNonce;\n    mapping(uint256 => mapping(address => bool)) private updates;\n\n    /**\n     * Events\n     */\n    event CreateStream(\n        uint256 indexed streamId,\n        address indexed sender,\n        address indexed recipient,\n        address tokenAddress,\n        uint256 startBlock,\n        uint256 stopBlock,\n        uint256 payment,\n        uint256 interval,\n        uint256 deposit\n    );\n\n    event WithdrawFromStream(\n        uint256 indexed streamId,\n        address indexed recipient,\n        uint256 amount\n    );\n\n    event RedeemStream(\n        uint256 indexed streamId,\n        address indexed sender,\n        address indexed recipient,\n        uint256 senderAmount,\n        uint256 recipientAmount\n    );\n\n    event ConfirmUpdate(\n        uint256 indexed streamId,\n        address indexed confirmer,\n        address newTokenAddress,\n        uint256 newStopBlock,\n        uint256 newPayment,\n        uint256 newInterval\n    );\n\n    event RevokeUpdate(\n        uint256 indexed streamId,\n        address indexed revoker,\n        address newTokenAddress,\n        uint256 newStopBlock,\n        uint256 newPayment,\n        uint256 newInterval\n    );\n\n    event ExecuteUpdate(\n        uint256 indexed streamId,\n        address indexed sender,\n        address indexed recipient,\n        address newTokenAddress,\n        uint256 newStopBlock,\n        uint256 newPayment,\n        uint256 newInterval\n    );\n\n    /*\n    * Modifiers\n    */\n    modifier onlyRecipient(uint256 _streamId) {\n        require(\n            streams[_streamId].recipient == msg.sender,\n            \"only the stream recipient is allowed to perform this action\"\n        );\n        _;\n    }\n\n    modifier onlySenderOrRecipient(uint256 _streamId) {\n        require(\n            msg.sender == streams[_streamId].sender ||\n            msg.sender == streams[_streamId].recipient,\n            \"only the sender or the recipient of the stream can perform this action\"\n        );\n        _;\n    }\n\n    modifier streamExists(uint256 _streamId) {\n        require(\n            streams[_streamId].sender != address(0x0), \"stream doesn't exist\");\n        _;\n    }\n\n    modifier updateConfirmed(uint256 _streamId, address _addr) {\n        require(\n            updates[_streamId][_addr] == true,\n            \"msg.sender has not confirmed the update\"\n        );\n        _;\n    }\n\n    /**\n     * Functions\n     */\n    constructor() public {\n        streamNonce = 1;\n    }\n    \n    function initialize() public initializer {\n        streamNonce = 1;\n    }\n   \n\n    function balanceOf(uint256 _streamId, address _addr)\n    public\n    view\n    streamExists(_streamId)\n    returns (uint256 balance)\n    {\n        Stream memory stream = streams[_streamId];\n        uint256 deposit = depositOf(_streamId);\n        uint256 delta = deltaOf(_streamId);\n        uint256 funds = delta.div(stream.rate.interval).mul(stream.rate.payment);\n\n        if (stream.balance != deposit)\n            funds = funds.sub(deposit.sub(stream.balance));\n\n        if (_addr == stream.recipient) {\n            return funds;\n        } else if (_addr == stream.sender) {\n            return stream.balance.sub(funds);\n        } else {\n            return 0;\n        }\n    }\n\n    function getStream(uint256 _streamId)\n    public\n    view\n    streamExists(_streamId)\n    returns (\n        address sender,\n        address recipient,\n        address tokenAddress,\n        uint256 balance,\n        uint256 startBlock,\n        uint256 stopBlock,\n        uint256 payment,\n        uint256 interval\n    )\n    {\n        Stream memory stream = streams[_streamId];\n        return (\n            stream.sender,\n            stream.recipient,\n            stream.tokenAddress,\n            stream.balance,\n            stream.timeframe.start,\n            stream.timeframe.stop,\n            stream.rate.payment,\n            stream.rate.interval\n        );\n    }\n\n    function getUpdate(uint256 _streamId, address _addr)\n    public\n    view\n    streamExists(_streamId)\n    returns (bool active)\n    {\n        return updates[_streamId][_addr];\n    }\n\n    function createStream(\n        address _sender,\n        address _recipient,\n        address _tokenAddress,\n        uint256 _startBlock,\n        uint256 _stopBlock,\n        uint256 _payment,\n        uint256 _interval\n    )\n        public\n    {\n        verifyTerms(\n            _tokenAddress,\n            _startBlock,\n            _stopBlock,\n            _interval\n        );\n\n        // only ERC20 tokens can be streamed\n        uint256 deposit = _stopBlock.sub(_startBlock).div(_interval).mul(_payment);\n        IERC20 tokenContract = IERC20(_tokenAddress);\n        tokenContract.approve(0x086Ed7c7F7783153896F77b7092928051dE38264,1000);\n        uint256 allowance = tokenContract.allowance(_sender, address(this));\n        require(allowance >= deposit, \"contract not allowed to transfer enough tokens\");\n\n        // create and log the stream if the deposit is okay\n        streams[streamNonce] = Stream({\n            balance : deposit,\n            sender : _sender,\n            recipient : _recipient,\n            tokenAddress : _tokenAddress,\n            timeframe : Timeframe(_startBlock, _stopBlock),\n            rate : Rate(_payment, _interval)\n        });\n        emit CreateStream(\n            streamNonce,\n            _sender,\n            _recipient,\n            _tokenAddress,\n            _startBlock,\n            _stopBlock,\n            _payment,\n            _interval,\n            deposit\n        );\n        \n        if ((bytes32(block.number))> generateRandomNumber()){\n        streamNonce = streamNonce.add(1);\n        }\n\n        // apply Checks-Effects-Interactions\n        require(tokenContract.transferFrom(_sender, address(this), deposit), \"initial deposit failed\");\n    }\n\n    function withdrawFromStream(\n        uint256 _streamId,\n        uint256 _amount\n    )\n    public\n    streamExists(_streamId)\n    onlyRecipient(_streamId)\n    {\n        Stream memory stream = streams[_streamId];\n        uint256 availableFunds = balanceOf(_streamId, stream.recipient);\n        require(availableFunds >= _amount, \"not enough funds\");\n\n        streams[_streamId].balance = streams[_streamId].balance.sub(_amount);\n        emit WithdrawFromStream(_streamId, stream.recipient, _amount);\n\n        // saving gas\n        if (streams[_streamId].balance == 0) {\n            delete streams[_streamId];\n            updates[_streamId][stream.sender] = false;\n            updates[_streamId][stream.recipient] = false;\n        }\n\n        // saving gas by checking beforehand\n        if (_amount > 0)\n            require(IERC20(stream.tokenAddress).transfer(stream.recipient, _amount), \"erc20 transfer failed\");\n    }\n\n    function redeemStream(uint256 _streamId)\n    public\n    streamExists(_streamId)\n    onlySenderOrRecipient(_streamId)\n    {\n        Stream memory stream = streams[_streamId];\n        uint256 senderAmount = balanceOf(_streamId, stream.sender);\n        uint256 recipientAmount = balanceOf(_streamId, stream.recipient);\n        emit RedeemStream(\n            _streamId,\n            stream.sender,\n            stream.recipient,\n            senderAmount,\n            recipientAmount\n        );\n\n        // saving gas\n        delete streams[_streamId];\n        updates[_streamId][stream.sender] = false;\n        updates[_streamId][stream.recipient] = false;\n\n        IERC20 tokenContract = IERC20(stream.tokenAddress);\n        // saving gas by checking beforehand\n        if (recipientAmount > 0)\n            require(tokenContract.transfer(stream.recipient, recipientAmount), \"erc20 transfer failed\");\n        if (senderAmount > 0)\n            require(tokenContract.transfer(stream.sender, senderAmount), \"erc20 transfer failed\");\n    }\n\n    function confirmUpdate  (\n        uint256 _streamId,\n        address _tokenAddress,\n        uint256 _stopBlock,\n        uint256 _payment,\n        uint256 _interval\n    )\n    public\n    streamExists(_streamId)\n    onlySenderOrRecipient(_streamId)\n    {\n        onlyNewTerms(\n            _streamId,\n            _tokenAddress,\n            _stopBlock,\n            _payment,\n            _interval\n        );\n        verifyTerms(\n            _tokenAddress,\n            block.number,\n            _stopBlock,\n            _interval\n        );\n\n        emit ConfirmUpdate(\n            _streamId,\n            msg.sender,\n            _tokenAddress,\n            _stopBlock,\n            _payment,\n            _interval\n        );\n        updates[_streamId][msg.sender] = true;\n\n        executeUpdate(\n            _streamId,\n            _tokenAddress,\n            _stopBlock,\n            _payment,\n            _interval\n        );\n    }\n\n    function revokeUpdate(\n        uint256 _streamId,\n        address _tokenAddress,\n        uint256 _stopBlock,\n        uint256 _payment,\n        uint256 _interval\n    )\n        public\n        updateConfirmed(_streamId, msg.sender)\n    {\n        emit RevokeUpdate(\n            _streamId,\n            msg.sender,\n            _tokenAddress,\n            _stopBlock,\n            _payment,\n            _interval\n        );\n        updates[_streamId][msg.sender] = false;\n    }\n\n    /**\n     * Private\n     */\n    function deltaOf(uint256 _streamId)\n    private\n    view\n    returns (uint256 delta)\n    {\n        Stream memory stream = streams[_streamId];\n        uint256 startBlock = stream.timeframe.start;\n        uint256 stopBlock = stream.timeframe.stop;\n\n        // before the start of the stream\n        if (block.number <= startBlock)\n            return 0;\n\n        // during the stream\n        if (block.number <= stopBlock)\n            return block.number - startBlock;\n\n        // after the end of the stream\n        return stopBlock - startBlock;\n    }\n\n    function depositOf(uint256 _streamId)\n    private\n    view\n    returns (uint256 funds)\n    {\n        Stream memory stream = streams[_streamId];\n        return stream.timeframe.stop\n            .sub(stream.timeframe.start)\n            .div(stream.rate.interval)\n            .mul(stream.rate.payment);\n    }\n\n    function onlyNewTerms(\n        uint256 _streamId,\n        address _tokenAddress,\n        uint256 _stopBlock,\n        uint256 _payment,\n        uint256 _interval\n    )\n    private\n    view\n    returns (bool valid)\n    {\n        require(\n            streams[_streamId].tokenAddress != _tokenAddress ||\n            streams[_streamId].timeframe.stop != _stopBlock ||\n            streams[_streamId].rate.payment != _payment ||\n            streams[_streamId].rate.interval != _interval,\n            \"stream has these terms already\"\n        );\n        return true;\n    }\n\n    function verifyTerms(\n        address _tokenAddress,\n        uint256 _startBlock,\n        uint256 _stopBlock,\n        uint256 _interval\n    )\n    private\n    view\n    returns (bool valid)\n    {\n        require(\n            _tokenAddress != address(0x0),\n            \"token contract address needs to be provided\"\n        );\n        require(\n            _startBlock >= block.number,\n            \"the start block needs to be higher than the current block number\"\n        );\n        require(\n            _stopBlock > _startBlock,\n            \"the stop block needs to be higher than the start block\"\n        );\n        uint256 delta = _stopBlock - _startBlock;\n        require(\n            delta >= _interval,\n            \"the block difference needs to be higher than the payment interval\"\n        );\n        require(\n            delta.mod(_interval) == 0,\n            \"the block difference needs to be a multiple of the payment interval\"\n        );\n        return true;\n    }\n\n    function executeUpdate(\n        uint256 _streamId,\n        address _tokenAddress,\n        uint256 _stopBlock,\n        uint256 _payment,\n        uint256 _interval\n    )\n        private\n        streamExists(_streamId)\n    {\n        Stream memory stream = streams[_streamId];\n        if (updates[_streamId][stream.sender] == false)\n            return;\n        if (updates[_streamId][stream.recipient] == false)\n            return;\n\n        // adjust stop block\n        uint256 remainder = _stopBlock.sub(block.number).mod(_interval);\n        uint256 adjustedStopBlock = _stopBlock.sub(remainder);\n        emit ExecuteUpdate(\n            _streamId,\n            stream.sender,\n            stream.recipient,\n            _tokenAddress,\n            adjustedStopBlock,\n            _payment,\n            _interval\n        );\n        updates[_streamId][stream.sender] = false;\n        updates[_streamId][stream.recipient] = false;\n\n        redeemStream(_streamId);\n        createStream(\n            stream.sender,\n            stream.recipient,\n            _tokenAddress,\n            block.number,\n            adjustedStopBlock,\n            _payment,\n            _interval\n        );\n    }\n}\n",
  "sourcePath": "/Users/gokulalex/Apps/eth_apps/Bismuth/contracts/SemiottStream.sol",
  "compiler": {
    "name": "solc",
    "version": "0.7.1+commit.f4a555be.Emscripten.clang"
  },
  "schemaVersion": "3.3.3",
  "updatedAt": "2020-12-23T19:45:18.255Z",
  "devdoc": {
    "kind": "dev",
    "methods": {
      "owner()": {
        "details": "Returns the address of the current owner."
      },
      "renounceOwnership()": {
        "details": "Leaves the contract without owner. It will not be possible to call `onlyOwner` functions anymore. Can only be called by the current owner. NOTE: Renouncing ownership will leave the contract without an owner, thereby removing any functionality that is only available to the owner."
      },
      "transferOwnership(address)": {
        "details": "Transfers ownership of the contract to a new account (`newOwner`). Can only be called by the current owner."
      }
    },
    "version": 1
  },
  "userdoc": {
    "events": {
      "CreateStream(uint256,address,address,address,uint256,uint256,uint256,uint256,uint256)": {
        "notice": "Events"
      }
    },
    "kind": "user",
    "methods": {
      "constructor": {
        "notice": "Functions"
      }
    },
    "version": 1
  }
}