{
  "contractName": "SemiottStream",
  "abi": [
    {
      "inputs": [],
      "stateMutability": "nonpayable",
      "type": "constructor"
    },
    {
      "anonymous": false,
      "inputs": [
        {
          "indexed": true,
          "internalType": "uint256",
          "name": "streamId",
          "type": "uint256"
        },
        {
          "indexed": true,
          "internalType": "address",
          "name": "confirmer",
          "type": "address"
        },
        {
          "indexed": false,
          "internalType": "address",
          "name": "newTokenAddress",
          "type": "address"
        },
        {
          "indexed": false,
          "internalType": "uint256",
          "name": "newStopBlock",
          "type": "uint256"
        },
        {
          "indexed": false,
          "internalType": "uint256",
          "name": "newPayment",
          "type": "uint256"
        },
        {
          "indexed": false,
          "internalType": "uint256",
          "name": "newInterval",
          "type": "uint256"
        }
      ],
      "name": "ConfirmUpdate",
      "type": "event"
    },
    {
      "anonymous": false,
      "inputs": [
        {
          "indexed": true,
          "internalType": "uint256",
          "name": "streamId",
          "type": "uint256"
        },
        {
          "indexed": true,
          "internalType": "address",
          "name": "sender",
          "type": "address"
        },
        {
          "indexed": true,
          "internalType": "address",
          "name": "recipient",
          "type": "address"
        },
        {
          "indexed": false,
          "internalType": "address",
          "name": "tokenAddress",
          "type": "address"
        },
        {
          "indexed": false,
          "internalType": "uint256",
          "name": "startBlock",
          "type": "uint256"
        },
        {
          "indexed": false,
          "internalType": "uint256",
          "name": "stopBlock",
          "type": "uint256"
        },
        {
          "indexed": false,
          "internalType": "uint256",
          "name": "payment",
          "type": "uint256"
        },
        {
          "indexed": false,
          "internalType": "uint256",
          "name": "interval",
          "type": "uint256"
        },
        {
          "indexed": false,
          "internalType": "uint256",
          "name": "deposit",
          "type": "uint256"
        }
      ],
      "name": "CreateStream",
      "type": "event"
    },
    {
      "anonymous": false,
      "inputs": [
        {
          "indexed": true,
          "internalType": "uint256",
          "name": "streamId",
          "type": "uint256"
        },
        {
          "indexed": true,
          "internalType": "address",
          "name": "sender",
          "type": "address"
        },
        {
          "indexed": true,
          "internalType": "address",
          "name": "recipient",
          "type": "address"
        },
        {
          "indexed": false,
          "internalType": "address",
          "name": "newTokenAddress",
          "type": "address"
        },
        {
          "indexed": false,
          "internalType": "uint256",
          "name": "newStopBlock",
          "type": "uint256"
        },
        {
          "indexed": false,
          "internalType": "uint256",
          "name": "newPayment",
          "type": "uint256"
        },
        {
          "indexed": false,
          "internalType": "uint256",
          "name": "newInterval",
          "type": "uint256"
        }
      ],
      "name": "ExecuteUpdate",
      "type": "event"
    },
    {
      "anonymous": false,
      "inputs": [
        {
          "indexed": true,
          "internalType": "address",
          "name": "previousOwner",
          "type": "address"
        },
        {
          "indexed": true,
          "internalType": "address",
          "name": "newOwner",
          "type": "address"
        }
      ],
      "name": "OwnershipTransferred",
      "type": "event"
    },
    {
      "anonymous": false,
      "inputs": [
        {
          "indexed": true,
          "internalType": "uint256",
          "name": "streamId",
          "type": "uint256"
        },
        {
          "indexed": true,
          "internalType": "address",
          "name": "sender",
          "type": "address"
        },
        {
          "indexed": true,
          "internalType": "address",
          "name": "recipient",
          "type": "address"
        },
        {
          "indexed": false,
          "internalType": "uint256",
          "name": "senderAmount",
          "type": "uint256"
        },
        {
          "indexed": false,
          "internalType": "uint256",
          "name": "recipientAmount",
          "type": "uint256"
        }
      ],
      "name": "RedeemStream",
      "type": "event"
    },
    {
      "anonymous": false,
      "inputs": [
        {
          "indexed": true,
          "internalType": "uint256",
          "name": "streamId",
          "type": "uint256"
        },
        {
          "indexed": true,
          "internalType": "address",
          "name": "revoker",
          "type": "address"
        },
        {
          "indexed": false,
          "internalType": "address",
          "name": "newTokenAddress",
          "type": "address"
        },
        {
          "indexed": false,
          "internalType": "uint256",
          "name": "newStopBlock",
          "type": "uint256"
        },
        {
          "indexed": false,
          "internalType": "uint256",
          "name": "newPayment",
          "type": "uint256"
        },
        {
          "indexed": false,
          "internalType": "uint256",
          "name": "newInterval",
          "type": "uint256"
        }
      ],
      "name": "RevokeUpdate",
      "type": "event"
    },
    {
      "anonymous": false,
      "inputs": [
        {
          "indexed": true,
          "internalType": "uint256",
          "name": "streamId",
          "type": "uint256"
        },
        {
          "indexed": true,
          "internalType": "address",
          "name": "recipient",
          "type": "address"
        },
        {
          "indexed": false,
          "internalType": "uint256",
          "name": "amount",
          "type": "uint256"
        }
      ],
      "name": "WithdrawFromStream",
      "type": "event"
    },
    {
      "inputs": [],
      "name": "BeaconContractAddress",
      "outputs": [
        {
          "internalType": "address",
          "name": "",
          "type": "address"
        }
      ],
      "stateMutability": "view",
      "type": "function"
    },
    {
      "inputs": [],
      "name": "owner",
      "outputs": [
        {
          "internalType": "address",
          "name": "",
          "type": "address"
        }
      ],
      "stateMutability": "view",
      "type": "function"
    },
    {
      "inputs": [],
      "name": "renounceOwnership",
      "outputs": [],
      "stateMutability": "nonpayable",
      "type": "function"
    },
    {
      "inputs": [
        {
          "internalType": "address",
          "name": "newOwner",
          "type": "address"
        }
      ],
      "name": "transferOwnership",
      "outputs": [],
      "stateMutability": "nonpayable",
      "type": "function"
    },
    {
      "inputs": [
        {
          "internalType": "address",
          "name": "_address",
          "type": "address"
        }
      ],
      "name": "setBeaconContractAddress",
      "outputs": [],
      "stateMutability": "nonpayable",
      "type": "function"
    },
    {
      "inputs": [],
      "name": "generateRandomNumber",
      "outputs": [
        {
          "internalType": "bytes32",
          "name": "",
          "type": "bytes32"
        }
      ],
      "stateMutability": "view",
      "type": "function"
    },
    {
      "inputs": [],
      "name": "initialize",
      "outputs": [],
      "stateMutability": "nonpayable",
      "type": "function"
    },
    {
      "inputs": [
        {
          "internalType": "uint256",
          "name": "_streamId",
          "type": "uint256"
        },
        {
          "internalType": "address",
          "name": "_addr",
          "type": "address"
        }
      ],
      "name": "balanceOf",
      "outputs": [
        {
          "internalType": "uint256",
          "name": "balance",
          "type": "uint256"
        }
      ],
      "stateMutability": "view",
      "type": "function"
    },
    {
      "inputs": [
        {
          "internalType": "uint256",
          "name": "_streamId",
          "type": "uint256"
        }
      ],
      "name": "getStream",
      "outputs": [
        {
          "internalType": "address",
          "name": "sender",
          "type": "address"
        },
        {
          "internalType": "address",
          "name": "recipient",
          "type": "address"
        },
        {
          "internalType": "address",
          "name": "tokenAddress",
          "type": "address"
        },
        {
          "internalType": "uint256",
          "name": "balance",
          "type": "uint256"
        },
        {
          "internalType": "uint256",
          "name": "startBlock",
          "type": "uint256"
        },
        {
          "internalType": "uint256",
          "name": "stopBlock",
          "type": "uint256"
        },
        {
          "internalType": "uint256",
          "name": "payment",
          "type": "uint256"
        },
        {
          "internalType": "uint256",
          "name": "interval",
          "type": "uint256"
        }
      ],
      "stateMutability": "view",
      "type": "function"
    },
    {
      "inputs": [
        {
          "internalType": "uint256",
          "name": "_streamId",
          "type": "uint256"
        },
        {
          "internalType": "address",
          "name": "_addr",
          "type": "address"
        }
      ],
      "name": "getUpdate",
      "outputs": [
        {
          "internalType": "bool",
          "name": "active",
          "type": "bool"
        }
      ],
      "stateMutability": "view",
      "type": "function"
    },
    {
      "inputs": [
        {
          "internalType": "address",
          "name": "_sender",
          "type": "address"
        },
        {
          "internalType": "address",
          "name": "_recipient",
          "type": "address"
        },
        {
          "internalType": "address",
          "name": "_tokenAddress",
          "type": "address"
        },
        {
          "internalType": "uint256",
          "name": "_startBlock",
          "type": "uint256"
        },
        {
          "internalType": "uint256",
          "name": "_stopBlock",
          "type": "uint256"
        },
        {
          "internalType": "uint256",
          "name": "_payment",
          "type": "uint256"
        },
        {
          "internalType": "uint256",
          "name": "_interval",
          "type": "uint256"
        }
      ],
      "name": "createStream",
      "outputs": [],
      "stateMutability": "nonpayable",
      "type": "function"
    },
    {
      "inputs": [
        {
          "internalType": "uint256",
          "name": "_streamId",
          "type": "uint256"
        },
        {
          "internalType": "uint256",
          "name": "_amount",
          "type": "uint256"
        }
      ],
      "name": "withdrawFromStream",
      "outputs": [],
      "stateMutability": "nonpayable",
      "type": "function"
    },
    {
      "inputs": [
        {
          "internalType": "uint256",
          "name": "_streamId",
          "type": "uint256"
        }
      ],
      "name": "redeemStream",
      "outputs": [],
      "stateMutability": "nonpayable",
      "type": "function"
    },
    {
      "inputs": [
        {
          "internalType": "uint256",
          "name": "_streamId",
          "type": "uint256"
        },
        {
          "internalType": "address",
          "name": "_tokenAddress",
          "type": "address"
        },
        {
          "internalType": "uint256",
          "name": "_stopBlock",
          "type": "uint256"
        },
        {
          "internalType": "uint256",
          "name": "_payment",
          "type": "uint256"
        },
        {
          "internalType": "uint256",
          "name": "_interval",
          "type": "uint256"
        }
      ],
      "name": "confirmUpdate",
      "outputs": [],
      "stateMutability": "nonpayable",
      "type": "function"
    },
    {
      "inputs": [
        {
          "internalType": "uint256",
          "name": "_streamId",
          "type": "uint256"
        },
        {
          "internalType": "address",
          "name": "_tokenAddress",
          "type": "address"
        },
        {
          "internalType": "uint256",
          "name": "_stopBlock",
          "type": "uint256"
        },
        {
          "internalType": "uint256",
          "name": "_payment",
          "type": "uint256"
        },
        {
          "internalType": "uint256",
          "name": "_interval",
          "type": "uint256"
        }
      ],
      "name": "revokeUpdate",
      "outputs": [],
      "stateMutability": "nonpayable",
      "type": "function"
    }
  ],
  "bytecode": "0x60806040527379474439753c7c70011c3b00e06e559378bad040600260006101000a81548173ffffffffffffffffffffffffffffffffffffffff021916908373ffffffffffffffffffffffffffffffffffffffff1602179055503480156200006657600080fd5b506000620000796200012d60201b60201c565b905080600060026101000a81548173ffffffffffffffffffffffffffffffffffffffff021916908373ffffffffffffffffffffffffffffffffffffffff1602179055508073ffffffffffffffffffffffffffffffffffffffff16600073ffffffffffffffffffffffffffffffffffffffff167f8be0079c531659141344cd1fd0a4f28419497f9722a3daafe3b4186f6b6457e060405160405180910390a35060018081905550600160048190555062000135565b600033905090565b6144a580620001456000396000f3fe608060405234801561001057600080fd5b50600436106100f55760003560e01c80637a9b2c6c116100975780638da5cb5b116100665780638da5cb5b14610251578063c5daca921461026f578063c765e1f01461028b578063f2fde38b146102a7576100f5565b80637a9b2c6c146101d85780638129fc1c146101f457806386f69ee6146101fe578063894e9a0d1461021a576100f5565b80634a97919c116100d35780634a97919c1461017857806363aef68214610194578063715018a6146101b0578063773a1154146101ba576100f5565b80632035ecf4146100fa57806326d056cc146101185780633656eec214610148575b600080fd5b6101026102c3565b60405161010f9190613ebc565b60405180910390f35b610132600480360381019061012d91906136e3565b6102e9565b60405161013f91906140ad565b60405180910390f35b610162600480360381019061015d91906136e3565b6103f9565b60405161016f9190614303565b60405180910390f35b610192600480360381019061018d9190613691565b610758565b005b6101ae60048036038101906101a9919061371f565b610e83565b005b6101b861112a565b005b6101c2611281565b6040516101cf91906140c8565b60405180910390f35b6101f260048036038101906101ed91906137d2565b61133a565b005b6101fc611990565b005b610218600480360381019061021391906135a1565b611a80565b005b610234600480360381019061022f9190613691565b611ac4565b604051610248989796959493929190613f29565b60405180910390f35b610259611d4a565b6040516102669190613ebc565b60405180910390f35b6102896004803603810190610284919061371f565b611d73565b005b6102a560048036038101906102a091906135ca565b611ee0565b005b6102c160048036038101906102bc91906135a1565b6123ea565b005b600260009054906101000a900473ffffffffffffffffffffffffffffffffffffffff1681565b600082600073ffffffffffffffffffffffffffffffffffffffff166003600083815260200190815260200160002060000160009054906101000a900473ffffffffffffffffffffffffffffffffffffffff1673ffffffffffffffffffffffffffffffffffffffff161415610392576040517f08c379a0000000000000000000000000000000000000000000000000000000008152600401610389906142c3565b60405180910390fd5b6005600085815260200190815260200160002060008473ffffffffffffffffffffffffffffffffffffffff1673ffffffffffffffffffffffffffffffffffffffff16815260200190815260200160002060009054906101000a900460ff1691505092915050565b600082600073ffffffffffffffffffffffffffffffffffffffff166003600083815260200190815260200160002060000160009054906101000a900473ffffffffffffffffffffffffffffffffffffffff1673ffffffffffffffffffffffffffffffffffffffff1614156104a2576040517f08c379a0000000000000000000000000000000000000000000000000000000008152600401610499906142c3565b60405180910390fd5b6000600360008681526020019081526020016000206040518060c00160405290816000820160009054906101000a900473ffffffffffffffffffffffffffffffffffffffff1673ffffffffffffffffffffffffffffffffffffffff1673ffffffffffffffffffffffffffffffffffffffff1681526020016001820160009054906101000a900473ffffffffffffffffffffffffffffffffffffffff1673ffffffffffffffffffffffffffffffffffffffff1673ffffffffffffffffffffffffffffffffffffffff1681526020016002820160009054906101000a900473ffffffffffffffffffffffffffffffffffffffff1673ffffffffffffffffffffffffffffffffffffffff1673ffffffffffffffffffffffffffffffffffffffff16815260200160038201604051806040016040529081600082015481526020016001820154815250508152602001600582016040518060400160405290816000820154815260200160018201548152505081526020016007820154815250509050600061062b866125b1565b905060006106388761278f565b905060006106718460800151600001516106638660800151602001518561295d90919063ffffffff16565b6129a790919063ffffffff16565b9050828460a00151146106aa576106a76106988560a0015185612a2d90919063ffffffff16565b82612a2d90919063ffffffff16565b90505b836020015173ffffffffffffffffffffffffffffffffffffffff168773ffffffffffffffffffffffffffffffffffffffff1614156106ee5780955050505050610751565b836000015173ffffffffffffffffffffffffffffffffffffffff168773ffffffffffffffffffffffffffffffffffffffff1614156107485761073d818560a00151612a2d90919063ffffffff16565b955050505050610751565b60009550505050505b5092915050565b80600073ffffffffffffffffffffffffffffffffffffffff166003600083815260200190815260200160002060000160009054906101000a900473ffffffffffffffffffffffffffffffffffffffff1673ffffffffffffffffffffffffffffffffffffffff1614156107ff576040517f08c379a00000000000000000000000000000000000000000000000000000000081526004016107f6906142c3565b60405180910390fd5b816003600082815260200190815260200160002060000160009054906101000a900473ffffffffffffffffffffffffffffffffffffffff1673ffffffffffffffffffffffffffffffffffffffff163373ffffffffffffffffffffffffffffffffffffffff1614806108d157506003600082815260200190815260200160002060010160009054906101000a900473ffffffffffffffffffffffffffffffffffffffff1673ffffffffffffffffffffffffffffffffffffffff163373ffffffffffffffffffffffffffffffffffffffff16145b610910576040517f08c379a000000000000000000000000000000000000000000000000000000000815260040161090790614283565b60405180910390fd5b6000600360008581526020019081526020016000206040518060c00160405290816000820160009054906101000a900473ffffffffffffffffffffffffffffffffffffffff1673ffffffffffffffffffffffffffffffffffffffff1673ffffffffffffffffffffffffffffffffffffffff1681526020016001820160009054906101000a900473ffffffffffffffffffffffffffffffffffffffff1673ffffffffffffffffffffffffffffffffffffffff1673ffffffffffffffffffffffffffffffffffffffff1681526020016002820160009054906101000a900473ffffffffffffffffffffffffffffffffffffffff1673ffffffffffffffffffffffffffffffffffffffff1673ffffffffffffffffffffffffffffffffffffffff168152602001600382016040518060400160405290816000820154815260200160018201548152505081526020016005820160405180604001604052908160008201548152602001600182015481525050815260200160078201548152505090506000610a9e8583600001516103f9565b90506000610ab08684602001516103f9565b9050826020015173ffffffffffffffffffffffffffffffffffffffff16836000015173ffffffffffffffffffffffffffffffffffffffff16877ffe46ddcd2cd1b3f7fd71cc508b3764a00a1701e894d28090d11bf3f90fb8dea28585604051610b1a92919061431e565b60405180910390a460036000878152602001908152602001600020600080820160006101000a81549073ffffffffffffffffffffffffffffffffffffffff02191690556001820160006101000a81549073ffffffffffffffffffffffffffffffffffffffff02191690556002820160006101000a81549073ffffffffffffffffffffffffffffffffffffffff021916905560038201600080820160009055600182016000905550506005820160008082016000905560018201600090555050600782016000905550506000600560008881526020019081526020016000206000856000015173ffffffffffffffffffffffffffffffffffffffff1673ffffffffffffffffffffffffffffffffffffffff16815260200190815260200160002060006101000a81548160ff0219169083151502179055506000600560008881526020019081526020016000206000856020015173ffffffffffffffffffffffffffffffffffffffff1673ffffffffffffffffffffffffffffffffffffffff16815260200190815260200160002060006101000a81548160ff0219169083151502179055506000836040015190506000821115610da0578073ffffffffffffffffffffffffffffffffffffffff1663a9059cbb8560200151846040518363ffffffff1660e01b8152600401610d0e929190613fde565b602060405180830381600087803b158015610d2857600080fd5b505af1158015610d3c573d6000803e3d6000fd5b505050506040513d601f19601f82011682018060405250810190610d609190613668565b610d9f576040517f08c379a0000000000000000000000000000000000000000000000000000000008152600401610d96906141e3565b60405180910390fd5b5b6000831115610e7a578073ffffffffffffffffffffffffffffffffffffffff1663a9059cbb8560000151856040518363ffffffff1660e01b8152600401610de8929190613fde565b602060405180830381600087803b158015610e0257600080fd5b505af1158015610e16573d6000803e3d6000fd5b505050506040513d601f19601f82011682018060405250810190610e3a9190613668565b610e79576040517f08c379a0000000000000000000000000000000000000000000000000000000008152600401610e70906141e3565b60405180910390fd5b5b50505050505050565b84600073ffffffffffffffffffffffffffffffffffffffff166003600083815260200190815260200160002060000160009054906101000a900473ffffffffffffffffffffffffffffffffffffffff1673ffffffffffffffffffffffffffffffffffffffff161415610f2a576040517f08c379a0000000000000000000000000000000000000000000000000000000008152600401610f21906142c3565b60405180910390fd5b856003600082815260200190815260200160002060000160009054906101000a900473ffffffffffffffffffffffffffffffffffffffff1673ffffffffffffffffffffffffffffffffffffffff163373ffffffffffffffffffffffffffffffffffffffff161480610ffc57506003600082815260200190815260200160002060010160009054906101000a900473ffffffffffffffffffffffffffffffffffffffff1673ffffffffffffffffffffffffffffffffffffffff163373ffffffffffffffffffffffffffffffffffffffff16145b61103b576040517f08c379a000000000000000000000000000000000000000000000000000000000815260040161103290614283565b60405180910390fd5b6110488787878787612a77565b5061105586438786612b97565b503373ffffffffffffffffffffffffffffffffffffffff16877f1cce0c004942fc2ff42b63a6cfb316ef8cb92a936961aaca2ca1eb31b890961f888888886040516110a39493929190614007565b60405180910390a360016005600089815260200190815260200160002060003373ffffffffffffffffffffffffffffffffffffffff1673ffffffffffffffffffffffffffffffffffffffff16815260200190815260200160002060006101000a81548160ff0219169083151502179055506111218787878787612d39565b50505050505050565b611132613200565b73ffffffffffffffffffffffffffffffffffffffff16600060029054906101000a900473ffffffffffffffffffffffffffffffffffffffff1673ffffffffffffffffffffffffffffffffffffffff16146111c1576040517f08c379a00000000000000000000000000000000000000000000000000000000081526004016111b8906141c3565b60405180910390fd5b600073ffffffffffffffffffffffffffffffffffffffff16600060029054906101000a900473ffffffffffffffffffffffffffffffffffffffff1673ffffffffffffffffffffffffffffffffffffffff167f8be0079c531659141344cd1fd0a4f28419497f9722a3daafe3b4186f6b6457e060405160405180910390a360008060026101000a81548173ffffffffffffffffffffffffffffffffffffffff021916908373ffffffffffffffffffffffffffffffffffffffff160217905550565b600080600080600260009054906101000a900473ffffffffffffffffffffffffffffffffffffffff1690508073ffffffffffffffffffffffffffffffffffffffff1663f4bebd7a6040518163ffffffff1660e01b8152600401604080518083038186803b1580156112f157600080fd5b505afa158015611305573d6000803e3d6000fd5b505050506040513d601f19601f820116820180604052508101906113299190613796565b809350819450505081935050505090565b81600073ffffffffffffffffffffffffffffffffffffffff166003600083815260200190815260200160002060000160009054906101000a900473ffffffffffffffffffffffffffffffffffffffff1673ffffffffffffffffffffffffffffffffffffffff1614156113e1576040517f08c379a00000000000000000000000000000000000000000000000000000000081526004016113d8906142c3565b60405180910390fd5b823373ffffffffffffffffffffffffffffffffffffffff166003600083815260200190815260200160002060010160009054906101000a900473ffffffffffffffffffffffffffffffffffffffff1673ffffffffffffffffffffffffffffffffffffffff1614611486576040517f08c379a000000000000000000000000000000000000000000000000000000000815260040161147d906142a3565b60405180910390fd5b6000600360008681526020019081526020016000206040518060c00160405290816000820160009054906101000a900473ffffffffffffffffffffffffffffffffffffffff1673ffffffffffffffffffffffffffffffffffffffff1673ffffffffffffffffffffffffffffffffffffffff1681526020016001820160009054906101000a900473ffffffffffffffffffffffffffffffffffffffff1673ffffffffffffffffffffffffffffffffffffffff1673ffffffffffffffffffffffffffffffffffffffff1681526020016002820160009054906101000a900473ffffffffffffffffffffffffffffffffffffffff1673ffffffffffffffffffffffffffffffffffffffff1673ffffffffffffffffffffffffffffffffffffffff1681526020016003820160405180604001604052908160008201548152602001600182015481525050815260200160058201604051806040016040529081600082015481526020016001820154815250508152602001600782015481525050905060006116148683602001516103f9565b905084811015611659576040517f08c379a000000000000000000000000000000000000000000000000000000000815260040161165090614263565b60405180910390fd5b611682856003600089815260200190815260200160002060070154612a2d90919063ffffffff16565b6003600088815260200190815260200160002060070181905550816020015173ffffffffffffffffffffffffffffffffffffffff16867f36c3ab437e6a424ed25dc4bfdeb62706aa06558660fab2dab229d2555adaf89c876040516116e79190614303565b60405180910390a36000600360008881526020019081526020016000206007015414156118aa5760036000878152602001908152602001600020600080820160006101000a81549073ffffffffffffffffffffffffffffffffffffffff02191690556001820160006101000a81549073ffffffffffffffffffffffffffffffffffffffff02191690556002820160006101000a81549073ffffffffffffffffffffffffffffffffffffffff021916905560038201600080820160009055600182016000905550506005820160008082016000905560018201600090555050600782016000905550506000600560008881526020019081526020016000206000846000015173ffffffffffffffffffffffffffffffffffffffff1673ffffffffffffffffffffffffffffffffffffffff16815260200190815260200160002060006101000a81548160ff0219169083151502179055506000600560008881526020019081526020016000206000846020015173ffffffffffffffffffffffffffffffffffffffff1673ffffffffffffffffffffffffffffffffffffffff16815260200190815260200160002060006101000a81548160ff0219169083151502179055505b600085111561198857816040015173ffffffffffffffffffffffffffffffffffffffff1663a9059cbb8360200151876040518363ffffffff1660e01b81526004016118f6929190613fde565b602060405180830381600087803b15801561191057600080fd5b505af1158015611924573d6000803e3d6000fd5b505050506040513d601f19601f820116820180604052508101906119489190613668565b611987576040517f08c379a000000000000000000000000000000000000000000000000000000000815260040161197e906141e3565b60405180910390fd5b5b505050505050565b600060019054906101000a900460ff16806119af57506119ae613208565b5b806119c5575060008054906101000a900460ff16155b611a04576040517f08c379a00000000000000000000000000000000000000000000000000000000081526004016119fb906141a3565b60405180910390fd5b60008060019054906101000a900460ff161590508015611a54576001600060016101000a81548160ff02191690831515021790555060016000806101000a81548160ff0219169083151502179055505b60016004819055508015611a7d5760008060016101000a81548160ff0219169083151502179055505b50565b80600260006101000a81548173ffffffffffffffffffffffffffffffffffffffff021916908373ffffffffffffffffffffffffffffffffffffffff16021790555050565b60008060008060008060008088600073ffffffffffffffffffffffffffffffffffffffff166003600083815260200190815260200160002060000160009054906101000a900473ffffffffffffffffffffffffffffffffffffffff1673ffffffffffffffffffffffffffffffffffffffff161415611b77576040517f08c379a0000000000000000000000000000000000000000000000000000000008152600401611b6e906142c3565b60405180910390fd5b6000600360008c81526020019081526020016000206040518060c00160405290816000820160009054906101000a900473ffffffffffffffffffffffffffffffffffffffff1673ffffffffffffffffffffffffffffffffffffffff1673ffffffffffffffffffffffffffffffffffffffff1681526020016001820160009054906101000a900473ffffffffffffffffffffffffffffffffffffffff1673ffffffffffffffffffffffffffffffffffffffff1673ffffffffffffffffffffffffffffffffffffffff1681526020016002820160009054906101000a900473ffffffffffffffffffffffffffffffffffffffff1673ffffffffffffffffffffffffffffffffffffffff1673ffffffffffffffffffffffffffffffffffffffff168152602001600382016040518060400160405290816000820154815260200160018201548152505081526020016005820160405180604001604052908160008201548152602001600182015481525050815260200160078201548152505090508060000151816020015182604001518360a00151846060015160000151856060015160200151866080015160000151876080015160200151995099509950995099509950995099505050919395975091939597565b60008060029054906101000a900473ffffffffffffffffffffffffffffffffffffffff16905090565b8433600115156005600084815260200190815260200160002060008373ffffffffffffffffffffffffffffffffffffffff1673ffffffffffffffffffffffffffffffffffffffff16815260200190815260200160002060009054906101000a900460ff16151514611e19576040517f08c379a0000000000000000000000000000000000000000000000000000000008152600401611e1090614143565b60405180910390fd5b3373ffffffffffffffffffffffffffffffffffffffff16877f652aa7dfd60d34135d95736f012daa465d0471f7c908dff2d69b9848680c688588888888604051611e669493929190614007565b60405180910390a360006005600089815260200190815260200160002060003373ffffffffffffffffffffffffffffffffffffffff1673ffffffffffffffffffffffffffffffffffffffff16815260200190815260200160002060006101000a81548160ff02191690831515021790555050505050505050565b611eec85858584612b97565b506000611f2683611f1884611f0a8989612a2d90919063ffffffff16565b61295d90919063ffffffff16565b6129a790919063ffffffff16565b905060008690508073ffffffffffffffffffffffffffffffffffffffff1663095ea7b373086ed7c7f7783153896f77b7092928051de382646103e86040518363ffffffff1660e01b8152600401611f7e929190613ed7565b602060405180830381600087803b158015611f9857600080fd5b505af1158015611fac573d6000803e3d6000fd5b505050506040513d601f19601f82011682018060405250810190611fd09190613668565b5060008173ffffffffffffffffffffffffffffffffffffffff1663dd62ed3e8b306040518363ffffffff1660e01b815260040161200e929190613f00565b60206040518083038186803b15801561202657600080fd5b505afa15801561203a573d6000803e3d6000fd5b505050506040513d601f19601f8201168201806040525081019061205e91906136ba565b9050828110156120a3576040517f08c379a000000000000000000000000000000000000000000000000000000000815260040161209a906142e3565b60405180910390fd5b6040518060c001604052808b73ffffffffffffffffffffffffffffffffffffffff1681526020018a73ffffffffffffffffffffffffffffffffffffffff1681526020018973ffffffffffffffffffffffffffffffffffffffff16815260200160405180604001604052808a815260200189815250815260200160405180604001604052808881526020018781525081526020018481525060036000600454815260200190815260200160002060008201518160000160006101000a81548173ffffffffffffffffffffffffffffffffffffffff021916908373ffffffffffffffffffffffffffffffffffffffff16021790555060208201518160010160006101000a81548173ffffffffffffffffffffffffffffffffffffffff021916908373ffffffffffffffffffffffffffffffffffffffff16021790555060408201518160020160006101000a81548173ffffffffffffffffffffffffffffffffffffffff021916908373ffffffffffffffffffffffffffffffffffffffff160217905550606082015181600301600082015181600001556020820151816001015550506080820151816005016000820151816000015560208201518160010155505060a082015181600701559050508873ffffffffffffffffffffffffffffffffffffffff168a73ffffffffffffffffffffffffffffffffffffffff166004547fb3ec17fd3e5ef689e147851f57c4182d97501571839b78360958ef6887aad5858b8b8b8b8b8b6040516122d99695949392919061404c565b60405180910390a46122e9611281565b4360001b111561231057612309600160045461321f90919063ffffffff16565b6004819055505b8173ffffffffffffffffffffffffffffffffffffffff166323b872dd8b30866040518463ffffffff1660e01b815260040161234d93929190613fa7565b602060405180830381600087803b15801561236757600080fd5b505af115801561237b573d6000803e3d6000fd5b505050506040513d601f19601f8201168201806040525081019061239f9190613668565b6123de576040517f08c379a00000000000000000000000000000000000000000000000000000000081526004016123d590614103565b60405180910390fd5b50505050505050505050565b6123f2613200565b73ffffffffffffffffffffffffffffffffffffffff16600060029054906101000a900473ffffffffffffffffffffffffffffffffffffffff1673ffffffffffffffffffffffffffffffffffffffff1614612481576040517f08c379a0000000000000000000000000000000000000000000000000000000008152600401612478906141c3565b60405180910390fd5b600073ffffffffffffffffffffffffffffffffffffffff168173ffffffffffffffffffffffffffffffffffffffff1614156124f1576040517f08c379a00000000000000000000000000000000000000000000000000000000081526004016124e890614123565b60405180910390fd5b8073ffffffffffffffffffffffffffffffffffffffff16600060029054906101000a900473ffffffffffffffffffffffffffffffffffffffff1673ffffffffffffffffffffffffffffffffffffffff167f8be0079c531659141344cd1fd0a4f28419497f9722a3daafe3b4186f6b6457e060405160405180910390a380600060026101000a81548173ffffffffffffffffffffffffffffffffffffffff021916908373ffffffffffffffffffffffffffffffffffffffff16021790555050565b600080600360008481526020019081526020016000206040518060c00160405290816000820160009054906101000a900473ffffffffffffffffffffffffffffffffffffffff1673ffffffffffffffffffffffffffffffffffffffff1673ffffffffffffffffffffffffffffffffffffffff1681526020016001820160009054906101000a900473ffffffffffffffffffffffffffffffffffffffff1673ffffffffffffffffffffffffffffffffffffffff1673ffffffffffffffffffffffffffffffffffffffff1681526020016002820160009054906101000a900473ffffffffffffffffffffffffffffffffffffffff1673ffffffffffffffffffffffffffffffffffffffff1673ffffffffffffffffffffffffffffffffffffffff1681526020016003820160405180604001604052908160008201548152602001600182015481525050815260200160058201604051806040016040529081600082015481526020016001820154815250508152602001600782015481525050905061278781608001516000015161277983608001516020015161276b856060015160000151866060015160200151612a2d90919063ffffffff16565b61295d90919063ffffffff16565b6129a790919063ffffffff16565b915050919050565b600080600360008481526020019081526020016000206040518060c00160405290816000820160009054906101000a900473ffffffffffffffffffffffffffffffffffffffff1673ffffffffffffffffffffffffffffffffffffffff1673ffffffffffffffffffffffffffffffffffffffff1681526020016001820160009054906101000a900473ffffffffffffffffffffffffffffffffffffffff1673ffffffffffffffffffffffffffffffffffffffff1673ffffffffffffffffffffffffffffffffffffffff1681526020016002820160009054906101000a900473ffffffffffffffffffffffffffffffffffffffff1673ffffffffffffffffffffffffffffffffffffffff1673ffffffffffffffffffffffffffffffffffffffff16815260200160038201604051806040016040529081600082015481526020016001820154815250508152602001600582016040518060400160405290816000820154815260200160018201548152505081526020016007820154815250509050600081606001516000015190506000826060015160200151905081431161293b5760009350505050612958565b80431161294f578143039350505050612958565b81810393505050505b919050565b600061299f83836040518060400160405280601a81526020017f536166654d6174683a206469766973696f6e206279207a65726f0000000000008152506132a7565b905092915050565b6000808314156129ba5760009050612a27565b60008284029050828482816129cb57fe5b0414612a22576040517f08c379a000000000000000000000000000000000000000000000000000000000815260040180806020018281038252602181526020018061444f6021913960400191505060405180910390fd5b809150505b92915050565b6000612a6f83836040518060400160405280601e81526020017f536166654d6174683a207375627472616374696f6e206f766572666c6f77000081525061336d565b905092915050565b60008473ffffffffffffffffffffffffffffffffffffffff166003600088815260200190815260200160002060020160009054906101000a900473ffffffffffffffffffffffffffffffffffffffff1673ffffffffffffffffffffffffffffffffffffffff16141580612b03575083600360008881526020019081526020016000206003016001015414155b80612b27575082600360008881526020019081526020016000206005016000015414155b80612b4b575081600360008881526020019081526020016000206005016001015414155b612b8a576040517f08c379a0000000000000000000000000000000000000000000000000000000008152600401612b81906140e3565b60405180910390fd5b6001905095945050505050565b60008073ffffffffffffffffffffffffffffffffffffffff168573ffffffffffffffffffffffffffffffffffffffff161415612c08576040517f08c379a0000000000000000000000000000000000000000000000000000000008152600401612bff90614203565b60405180910390fd5b43841015612c4b576040517f08c379a0000000000000000000000000000000000000000000000000000000008152600401612c4290614183565b60405180910390fd5b838311612c8d576040517f08c379a0000000000000000000000000000000000000000000000000000000008152600401612c8490614163565b60405180910390fd5b6000848403905082811015612cd7576040517f08c379a0000000000000000000000000000000000000000000000000000000008152600401612cce90614223565b60405180910390fd5b6000612cec848361342d90919063ffffffff16565b14612d2c576040517f08c379a0000000000000000000000000000000000000000000000000000000008152600401612d2390614243565b60405180910390fd5b6001915050949350505050565b84600073ffffffffffffffffffffffffffffffffffffffff166003600083815260200190815260200160002060000160009054906101000a900473ffffffffffffffffffffffffffffffffffffffff1673ffffffffffffffffffffffffffffffffffffffff161415612de0576040517f08c379a0000000000000000000000000000000000000000000000000000000008152600401612dd7906142c3565b60405180910390fd5b6000600360008881526020019081526020016000206040518060c00160405290816000820160009054906101000a900473ffffffffffffffffffffffffffffffffffffffff1673ffffffffffffffffffffffffffffffffffffffff1673ffffffffffffffffffffffffffffffffffffffff1681526020016001820160009054906101000a900473ffffffffffffffffffffffffffffffffffffffff1673ffffffffffffffffffffffffffffffffffffffff1673ffffffffffffffffffffffffffffffffffffffff1681526020016002820160009054906101000a900473ffffffffffffffffffffffffffffffffffffffff1673ffffffffffffffffffffffffffffffffffffffff1673ffffffffffffffffffffffffffffffffffffffff1681526020016003820160405180604001604052908160008201548152602001600182015481525050815260200160058201604051806040016040529081600082015481526020016001820154815250508152602001600782015481525050905060001515600560008981526020019081526020016000206000836000015173ffffffffffffffffffffffffffffffffffffffff1673ffffffffffffffffffffffffffffffffffffffff16815260200190815260200160002060009054906101000a900460ff1615151415612fd257506131f8565b60001515600560008981526020019081526020016000206000836020015173ffffffffffffffffffffffffffffffffffffffff1673ffffffffffffffffffffffffffffffffffffffff16815260200190815260200160002060009054906101000a900460ff161515141561304657506131f8565b600061306d8461305f4389612a2d90919063ffffffff16565b61342d90919063ffffffff16565b905060006130848288612a2d90919063ffffffff16565b9050826020015173ffffffffffffffffffffffffffffffffffffffff16836000015173ffffffffffffffffffffffffffffffffffffffff168a7fd586e7f196fc84f737a1eba26ba1ad9e0b4b64d5803b17433c89a2608b8872458b858b8b6040516130f29493929190614007565b60405180910390a46000600560008b81526020019081526020016000206000856000015173ffffffffffffffffffffffffffffffffffffffff1673ffffffffffffffffffffffffffffffffffffffff16815260200190815260200160002060006101000a81548160ff0219169083151502179055506000600560008b81526020019081526020016000206000856020015173ffffffffffffffffffffffffffffffffffffffff1673ffffffffffffffffffffffffffffffffffffffff16815260200190815260200160002060006101000a81548160ff0219169083151502179055506131dd89610758565b6131f4836000015184602001518a43858b8b611ee0565b5050505b505050505050565b600033905090565b6000803090506000813b9050600081149250505090565b60008082840190508381101561329d576040517f08c379a000000000000000000000000000000000000000000000000000000000815260040180806020018281038252601b8152602001807f536166654d6174683a206164646974696f6e206f766572666c6f77000000000081525060200191505060405180910390fd5b8091505092915050565b60008083118290613353576040517f08c379a00000000000000000000000000000000000000000000000000000000081526004018080602001828103825283818151815260200191508051906020019080838360005b838110156133185780820151818401526020810190506132fd565b50505050905090810190601f1680156133455780820380516001836020036101000a031916815260200191505b509250505060405180910390fd5b50600083858161335f57fe5b049050809150509392505050565b600083831115829061341a576040517f08c379a00000000000000000000000000000000000000000000000000000000081526004018080602001828103825283818151815260200191508051906020019080838360005b838110156133df5780820151818401526020810190506133c4565b50505050905090810190601f16801561340c5780820380516001836020036101000a031916815260200191505b509250505060405180910390fd5b5060008385039050809150509392505050565b600061346f83836040518060400160405280601881526020017f536166654d6174683a206d6f64756c6f206279207a65726f0000000000000000815250613477565b905092915050565b6000808314158290613524576040517f08c379a00000000000000000000000000000000000000000000000000000000081526004018080602001828103825283818151815260200191508051906020019080838360005b838110156134e95780820151818401526020810190506134ce565b50505050905090810190601f1680156135165780820380516001836020036101000a031916815260200191505b509250505060405180910390fd5b5082848161352e57fe5b0690509392505050565b600081359050613547816143f2565b92915050565b60008151905061355c81614409565b92915050565b60008151905061357181614420565b92915050565b60008135905061358681614437565b92915050565b60008151905061359b81614437565b92915050565b6000602082840312156135b357600080fd5b60006135c184828501613538565b91505092915050565b600080600080600080600060e0888a0312156135e557600080fd5b60006135f38a828b01613538565b97505060206136048a828b01613538565b96505060406136158a828b01613538565b95505060606136268a828b01613577565b94505060806136378a828b01613577565b93505060a06136488a828b01613577565b92505060c06136598a828b01613577565b91505092959891949750929550565b60006020828403121561367a57600080fd5b60006136888482850161354d565b91505092915050565b6000602082840312156136a357600080fd5b60006136b184828501613577565b91505092915050565b6000602082840312156136cc57600080fd5b60006136da8482850161358c565b91505092915050565b600080604083850312156136f657600080fd5b600061370485828601613577565b925050602061371585828601613538565b9150509250929050565b600080600080600060a0868803121561373757600080fd5b600061374588828901613577565b955050602061375688828901613538565b945050604061376788828901613577565b935050606061377888828901613577565b925050608061378988828901613577565b9150509295509295909350565b600080604083850312156137a957600080fd5b60006137b78582860161358c565b92505060206137c885828601613562565b9150509250929050565b600080604083850312156137e557600080fd5b60006137f385828601613577565b925050602061380485828601613577565b9150509250929050565b613817816143aa565b82525050565b61382681614358565b82525050565b6138358161436a565b82525050565b61384481614376565b82525050565b613853816143bc565b82525050565b6000613866601e83614347565b91507f73747265616d20686173207468657365207465726d7320616c726561647900006000830152602082019050919050565b60006138a6601683614347565b91507f696e697469616c206465706f736974206661696c6564000000000000000000006000830152602082019050919050565b60006138e6602683614347565b91507f4f776e61626c653a206e6577206f776e657220697320746865207a65726f206160008301527f64647265737300000000000000000000000000000000000000000000000000006020830152604082019050919050565b600061394c602783614347565b91507f6d73672e73656e64657220686173206e6f7420636f6e6669726d65642074686560008301527f20757064617465000000000000000000000000000000000000000000000000006020830152604082019050919050565b60006139b2603683614347565b91507f7468652073746f7020626c6f636b206e6565647320746f20626520686967686560008301527f72207468616e2074686520737461727420626c6f636b000000000000000000006020830152604082019050919050565b6000613a18604083614347565b91507f74686520737461727420626c6f636b206e6565647320746f206265206869676860008301527f6572207468616e207468652063757272656e7420626c6f636b206e756d6265726020830152604082019050919050565b6000613a7e602e83614347565b91507f496e697469616c697a61626c653a20636f6e747261637420697320616c72656160008301527f647920696e697469616c697a65640000000000000000000000000000000000006020830152604082019050919050565b6000613ae4602083614347565b91507f4f776e61626c653a2063616c6c6572206973206e6f7420746865206f776e65726000830152602082019050919050565b6000613b24601583614347565b91507f6572633230207472616e73666572206661696c656400000000000000000000006000830152602082019050919050565b6000613b64602b83614347565b91507f746f6b656e20636f6e74726163742061646472657373206e6565647320746f2060008301527f62652070726f76696465640000000000000000000000000000000000000000006020830152604082019050919050565b6000613bca604183614347565b91507f74686520626c6f636b20646966666572656e6365206e6565647320746f20626560008301527f20686967686572207468616e20746865207061796d656e7420696e746572766160208301527f6c000000000000000000000000000000000000000000000000000000000000006040830152606082019050919050565b6000613c56604383614347565b91507f74686520626c6f636b20646966666572656e6365206e6565647320746f20626560008301527f2061206d756c7469706c65206f6620746865207061796d656e7420696e74657260208301527f76616c00000000000000000000000000000000000000000000000000000000006040830152606082019050919050565b6000613ce2601083614347565b91507f6e6f7420656e6f7567682066756e6473000000000000000000000000000000006000830152602082019050919050565b6000613d22604683614347565b91507f6f6e6c79207468652073656e646572206f722074686520726563697069656e7460008301527f206f66207468652073747265616d2063616e20706572666f726d20746869732060208301527f616374696f6e00000000000000000000000000000000000000000000000000006040830152606082019050919050565b6000613dae603b83614347565b91507f6f6e6c79207468652073747265616d20726563697069656e7420697320616c6c60008301527f6f77656420746f20706572666f726d207468697320616374696f6e00000000006020830152604082019050919050565b6000613e14601483614347565b91507f73747265616d20646f65736e27742065786973740000000000000000000000006000830152602082019050919050565b6000613e54602e83614347565b91507f636f6e7472616374206e6f7420616c6c6f77656420746f207472616e7366657260008301527f20656e6f75676820746f6b656e730000000000000000000000000000000000006020830152604082019050919050565b613eb6816143a0565b82525050565b6000602082019050613ed1600083018461381d565b92915050565b6000604082019050613eec600083018561380e565b613ef9602083018461384a565b9392505050565b6000604082019050613f15600083018561381d565b613f22602083018461381d565b9392505050565b600061010082019050613f3f600083018b61381d565b613f4c602083018a61381d565b613f59604083018961381d565b613f666060830188613ead565b613f736080830187613ead565b613f8060a0830186613ead565b613f8d60c0830185613ead565b613f9a60e0830184613ead565b9998505050505050505050565b6000606082019050613fbc600083018661381d565b613fc9602083018561381d565b613fd66040830184613ead565b949350505050565b6000604082019050613ff3600083018561381d565b6140006020830184613ead565b9392505050565b600060808201905061401c600083018761381d565b6140296020830186613ead565b6140366040830185613ead565b6140436060830184613ead565b95945050505050565b600060c082019050614061600083018961381d565b61406e6020830188613ead565b61407b6040830187613ead565b6140886060830186613ead565b6140956080830185613ead565b6140a260a0830184613ead565b979650505050505050565b60006020820190506140c2600083018461382c565b92915050565b60006020820190506140dd600083018461383b565b92915050565b600060208201905081810360008301526140fc81613859565b9050919050565b6000602082019050818103600083015261411c81613899565b9050919050565b6000602082019050818103600083015261413c816138d9565b9050919050565b6000602082019050818103600083015261415c8161393f565b9050919050565b6000602082019050818103600083015261417c816139a5565b9050919050565b6000602082019050818103600083015261419c81613a0b565b9050919050565b600060208201905081810360008301526141bc81613a71565b9050919050565b600060208201905081810360008301526141dc81613ad7565b9050919050565b600060208201905081810360008301526141fc81613b17565b9050919050565b6000602082019050818103600083015261421c81613b57565b9050919050565b6000602082019050818103600083015261423c81613bbd565b9050919050565b6000602082019050818103600083015261425c81613c49565b9050919050565b6000602082019050818103600083015261427c81613cd5565b9050919050565b6000602082019050818103600083015261429c81613d15565b9050919050565b600060208201905081810360008301526142bc81613da1565b9050919050565b600060208201905081810360008301526142dc81613e07565b9050919050565b600060208201905081810360008301526142fc81613e47565b9050919050565b60006020820190506143186000830184613ead565b92915050565b60006040820190506143336000830185613ead565b6143406020830184613ead565b9392505050565b600082825260208201905092915050565b600061436382614380565b9050919050565b60008115159050919050565b6000819050919050565b600073ffffffffffffffffffffffffffffffffffffffff82169050919050565b6000819050919050565b60006143b5826143ce565b9050919050565b60006143c7826143a0565b9050919050565b60006143d9826143e0565b9050919050565b60006143eb82614380565b9050919050565b6143fb81614358565b811461440657600080fd5b50565b6144128161436a565b811461441d57600080fd5b50565b61442981614376565b811461443457600080fd5b50565b614440816143a0565b811461444b57600080fd5b5056fe536166654d6174683a206d756c7469706c69636174696f6e206f766572666c6f77a2646970667358221220f2a571456af927e74a77bf58888958d0e92147e9046982fe175d6e64de7f5c8764736f6c63430007060033",
  "immutableReferences": {},
  "source": "// SPDX-License-Identifier: MIT\n\npragma solidity >=0.6.0 <0.8.0;\npragma experimental ABIEncoderV2;\n\nimport \"./SafeMath.sol\";\nimport \"./Ownable.sol\";\nimport \"./IERC20.sol\";\nimport \"./ReentrancyGuard.sol\";\nimport \"./Initializable.sol\";\n\ncontract streamBeacon {\n    function getLatestRandomness()external view returns(uint256,bytes32){}\n    \n}\n\ncontract SemiottStream is Initializable, Ownable, ReentrancyGuard {\n    using SafeMath for uint256;\n    \n    address public BeaconContractAddress = 0x79474439753C7c70011C3b00e06e559378bAD040;\n    \n    function setBeaconContractAddress(address _address) public  {\n        BeaconContractAddress=_address;\n    }\n    \n    function generateRandomNumber() public view returns(bytes32){\n        uint blockNumber;\n        bytes32 randomNumber;\n        streamBeacon beacon=streamBeacon(BeaconContractAddress);\n        (blockNumber,randomNumber) = beacon.getLatestRandomness();\n        return randomNumber;\n       \n    }\n   \n    \n\n    /**\n     * Types\n     */\n    \n     \n    struct Timeframe {\n        uint256 start;\n        uint256 stop;\n    }\n\n    struct Rate {\n        uint256 payment;\n        uint256 interval;\n    }\n\n    struct Stream {\n        address sender;\n        address recipient;\n        address tokenAddress;\n        Timeframe timeframe;\n        Rate rate;\n        uint256 balance;\n    }\n\n\n    mapping(uint256 => Stream) private streams;\n    uint256 private streamNonce;\n    mapping(uint256 => mapping(address => bool)) private updates;\n\n    /**\n     * Events\n     */\n    event CreateStream(\n        uint256 indexed streamId,\n        address indexed sender,\n        address indexed recipient,\n        address tokenAddress,\n        uint256 startBlock,\n        uint256 stopBlock,\n        uint256 payment,\n        uint256 interval,\n        uint256 deposit\n    );\n\n    event WithdrawFromStream(\n        uint256 indexed streamId,\n        address indexed recipient,\n        uint256 amount\n    );\n\n    event RedeemStream(\n        uint256 indexed streamId,\n        address indexed sender,\n        address indexed recipient,\n        uint256 senderAmount,\n        uint256 recipientAmount\n    );\n\n    event ConfirmUpdate(\n        uint256 indexed streamId,\n        address indexed confirmer,\n        address newTokenAddress,\n        uint256 newStopBlock,\n        uint256 newPayment,\n        uint256 newInterval\n    );\n\n    event RevokeUpdate(\n        uint256 indexed streamId,\n        address indexed revoker,\n        address newTokenAddress,\n        uint256 newStopBlock,\n        uint256 newPayment,\n        uint256 newInterval\n    );\n\n    event ExecuteUpdate(\n        uint256 indexed streamId,\n        address indexed sender,\n        address indexed recipient,\n        address newTokenAddress,\n        uint256 newStopBlock,\n        uint256 newPayment,\n        uint256 newInterval\n    );\n\n    /*\n    * Modifiers\n    */\n    modifier onlyRecipient(uint256 _streamId) {\n        require(\n            streams[_streamId].recipient == msg.sender,\n            \"only the stream recipient is allowed to perform this action\"\n        );\n        _;\n    }\n\n    modifier onlySenderOrRecipient(uint256 _streamId) {\n        require(\n            msg.sender == streams[_streamId].sender ||\n            msg.sender == streams[_streamId].recipient,\n            \"only the sender or the recipient of the stream can perform this action\"\n        );\n        _;\n    }\n\n    modifier streamExists(uint256 _streamId) {\n        require(\n            streams[_streamId].sender != address(0x0), \"stream doesn't exist\");\n        _;\n    }\n\n    modifier updateConfirmed(uint256 _streamId, address _addr) {\n        require(\n            updates[_streamId][_addr] == true,\n            \"msg.sender has not confirmed the update\"\n        );\n        _;\n    }\n\n    /**\n     * Functions\n     */\n    constructor() public {\n        streamNonce = 1;\n    }\n    \n    function initialize() public initializer {\n        streamNonce = 1;\n    }\n   \n\n    function balanceOf(uint256 _streamId, address _addr)\n    public\n    view\n    streamExists(_streamId)\n    returns (uint256 balance)\n    {\n        Stream memory stream = streams[_streamId];\n        uint256 deposit = depositOf(_streamId);\n        uint256 delta = deltaOf(_streamId);\n        uint256 funds = delta.div(stream.rate.interval).mul(stream.rate.payment);\n\n        if (stream.balance != deposit)\n            funds = funds.sub(deposit.sub(stream.balance));\n\n        if (_addr == stream.recipient) {\n            return funds;\n        } else if (_addr == stream.sender) {\n            return stream.balance.sub(funds);\n        } else {\n            return 0;\n        }\n    }\n\n    function getStream(uint256 _streamId)\n    public\n    view\n    streamExists(_streamId)\n    returns (\n        address sender,\n        address recipient,\n        address tokenAddress,\n        uint256 balance,\n        uint256 startBlock,\n        uint256 stopBlock,\n        uint256 payment,\n        uint256 interval\n    )\n    {\n        Stream memory stream = streams[_streamId];\n        return (\n            stream.sender,\n            stream.recipient,\n            stream.tokenAddress,\n            stream.balance,\n            stream.timeframe.start,\n            stream.timeframe.stop,\n            stream.rate.payment,\n            stream.rate.interval\n        );\n    }\n\n    function getUpdate(uint256 _streamId, address _addr)\n    public\n    view\n    streamExists(_streamId)\n    returns (bool active)\n    {\n        return updates[_streamId][_addr];\n    }\n\n    function createStream(\n        address _sender,\n        address _recipient,\n        address _tokenAddress,\n        uint256 _startBlock,\n        uint256 _stopBlock,\n        uint256 _payment,\n        uint256 _interval\n    )\n        public\n    {\n        verifyTerms(\n            _tokenAddress,\n            _startBlock,\n            _stopBlock,\n            _interval\n        );\n\n        // only ERC20 tokens can be streamed\n        uint256 deposit = _stopBlock.sub(_startBlock).div(_interval).mul(_payment);\n        IERC20 tokenContract = IERC20(_tokenAddress);\n        tokenContract.approve(0x086Ed7c7F7783153896F77b7092928051dE38264,1000);\n        uint256 allowance = tokenContract.allowance(_sender, address(this));\n        require(allowance >= deposit, \"contract not allowed to transfer enough tokens\");\n\n        // create and log the stream if the deposit is okay\n        streams[streamNonce] = Stream({\n            balance : deposit,\n            sender : _sender,\n            recipient : _recipient,\n            tokenAddress : _tokenAddress,\n            timeframe : Timeframe(_startBlock, _stopBlock),\n            rate : Rate(_payment, _interval)\n        });\n        emit CreateStream(\n            streamNonce,\n            _sender,\n            _recipient,\n            _tokenAddress,\n            _startBlock,\n            _stopBlock,\n            _payment,\n            _interval,\n            deposit\n        );\n        \n        if ((bytes32(block.number))> generateRandomNumber()){\n        streamNonce = streamNonce.add(1);\n        }\n\n        // apply Checks-Effects-Interactions\n        require(tokenContract.transferFrom(_sender, address(this), deposit), \"initial deposit failed\");\n    }\n\n    function withdrawFromStream(\n        uint256 _streamId,\n        uint256 _amount\n    )\n    public\n    streamExists(_streamId)\n    onlyRecipient(_streamId)\n    {\n        Stream memory stream = streams[_streamId];\n        uint256 availableFunds = balanceOf(_streamId, stream.recipient);\n        require(availableFunds >= _amount, \"not enough funds\");\n\n        streams[_streamId].balance = streams[_streamId].balance.sub(_amount);\n        emit WithdrawFromStream(_streamId, stream.recipient, _amount);\n\n        // saving gas\n        if (streams[_streamId].balance == 0) {\n            delete streams[_streamId];\n            updates[_streamId][stream.sender] = false;\n            updates[_streamId][stream.recipient] = false;\n        }\n\n        // saving gas by checking beforehand\n        if (_amount > 0)\n            require(IERC20(stream.tokenAddress).transfer(stream.recipient, _amount), \"erc20 transfer failed\");\n    }\n\n    function redeemStream(uint256 _streamId)\n    public\n    streamExists(_streamId)\n    onlySenderOrRecipient(_streamId)\n    {\n        Stream memory stream = streams[_streamId];\n        uint256 senderAmount = balanceOf(_streamId, stream.sender);\n        uint256 recipientAmount = balanceOf(_streamId, stream.recipient);\n        emit RedeemStream(\n            _streamId,\n            stream.sender,\n            stream.recipient,\n            senderAmount,\n            recipientAmount\n        );\n\n        // saving gas\n        delete streams[_streamId];\n        updates[_streamId][stream.sender] = false;\n        updates[_streamId][stream.recipient] = false;\n\n        IERC20 tokenContract = IERC20(stream.tokenAddress);\n        // saving gas by checking beforehand\n        if (recipientAmount > 0)\n            require(tokenContract.transfer(stream.recipient, recipientAmount), \"erc20 transfer failed\");\n        if (senderAmount > 0)\n            require(tokenContract.transfer(stream.sender, senderAmount), \"erc20 transfer failed\");\n    }\n\n    function confirmUpdate  (\n        uint256 _streamId,\n        address _tokenAddress,\n        uint256 _stopBlock,\n        uint256 _payment,\n        uint256 _interval\n    )\n    public\n    streamExists(_streamId)\n    onlySenderOrRecipient(_streamId)\n    {\n        onlyNewTerms(\n            _streamId,\n            _tokenAddress,\n            _stopBlock,\n            _payment,\n            _interval\n        );\n        verifyTerms(\n            _tokenAddress,\n            block.number,\n            _stopBlock,\n            _interval\n        );\n\n        emit ConfirmUpdate(\n            _streamId,\n            msg.sender,\n            _tokenAddress,\n            _stopBlock,\n            _payment,\n            _interval\n        );\n        updates[_streamId][msg.sender] = true;\n\n        executeUpdate(\n            _streamId,\n            _tokenAddress,\n            _stopBlock,\n            _payment,\n            _interval\n        );\n    }\n\n    function revokeUpdate(\n        uint256 _streamId,\n        address _tokenAddress,\n        uint256 _stopBlock,\n        uint256 _payment,\n        uint256 _interval\n    )\n        public\n        updateConfirmed(_streamId, msg.sender)\n    {\n        emit RevokeUpdate(\n            _streamId,\n            msg.sender,\n            _tokenAddress,\n            _stopBlock,\n            _payment,\n            _interval\n        );\n        updates[_streamId][msg.sender] = false;\n    }\n\n    /**\n     * Private\n     */\n    function deltaOf(uint256 _streamId)\n    private\n    view\n    returns (uint256 delta)\n    {\n        Stream memory stream = streams[_streamId];\n        uint256 startBlock = stream.timeframe.start;\n        uint256 stopBlock = stream.timeframe.stop;\n\n        // before the start of the stream\n        if (block.number <= startBlock)\n            return 0;\n\n        // during the stream\n        if (block.number <= stopBlock)\n            return block.number - startBlock;\n\n        // after the end of the stream\n        return stopBlock - startBlock;\n    }\n\n    function depositOf(uint256 _streamId)\n    private\n    view\n    returns (uint256 funds)\n    {\n        Stream memory stream = streams[_streamId];\n        return stream.timeframe.stop\n            .sub(stream.timeframe.start)\n            .div(stream.rate.interval)\n            .mul(stream.rate.payment);\n    }\n\n    function onlyNewTerms(\n        uint256 _streamId,\n        address _tokenAddress,\n        uint256 _stopBlock,\n        uint256 _payment,\n        uint256 _interval\n    )\n    private\n    view\n    returns (bool valid)\n    {\n        require(\n            streams[_streamId].tokenAddress != _tokenAddress ||\n            streams[_streamId].timeframe.stop != _stopBlock ||\n            streams[_streamId].rate.payment != _payment ||\n            streams[_streamId].rate.interval != _interval,\n            \"stream has these terms already\"\n        );\n        return true;\n    }\n\n    function verifyTerms(\n        address _tokenAddress,\n        uint256 _startBlock,\n        uint256 _stopBlock,\n        uint256 _interval\n    )\n    private\n    view\n    returns (bool valid)\n    {\n        require(\n            _tokenAddress != address(0x0),\n            \"token contract address needs to be provided\"\n        );\n        require(\n            _startBlock >= block.number,\n            \"the start block needs to be higher than the current block number\"\n        );\n        require(\n            _stopBlock > _startBlock,\n            \"the stop block needs to be higher than the start block\"\n        );\n        uint256 delta = _stopBlock - _startBlock;\n        require(\n            delta >= _interval,\n            \"the block difference needs to be higher than the payment interval\"\n        );\n        require(\n            delta.mod(_interval) == 0,\n            \"the block difference needs to be a multiple of the payment interval\"\n        );\n        return true;\n    }\n\n    function executeUpdate(\n        uint256 _streamId,\n        address _tokenAddress,\n        uint256 _stopBlock,\n        uint256 _payment,\n        uint256 _interval\n    )\n        private\n        streamExists(_streamId)\n    {\n        Stream memory stream = streams[_streamId];\n        if (updates[_streamId][stream.sender] == false)\n            return;\n        if (updates[_streamId][stream.recipient] == false)\n            return;\n\n        // adjust stop block\n        uint256 remainder = _stopBlock.sub(block.number).mod(_interval);\n        uint256 adjustedStopBlock = _stopBlock.sub(remainder);\n        emit ExecuteUpdate(\n            _streamId,\n            stream.sender,\n            stream.recipient,\n            _tokenAddress,\n            adjustedStopBlock,\n            _payment,\n            _interval\n        );\n        updates[_streamId][stream.sender] = false;\n        updates[_streamId][stream.recipient] = false;\n\n        redeemStream(_streamId);\n        createStream(\n            stream.sender,\n            stream.recipient,\n            _tokenAddress,\n            block.number,\n            adjustedStopBlock,\n            _payment,\n            _interval\n        );\n    }\n}\n",
  "sourcePath": "/Users/gokulalex/Apps/bsc_apps/SemiotNet/contracts/SemiottStream.sol",
  "compiler": {
    "name": "solc",
    "version": "0.7.6+commit.7338295f.Emscripten.clang"
  },
  "schemaVersion": "3.3.3",
  "updatedAt": "2021-02-20T05:25:46.752Z",
  "devdoc": {
    "kind": "dev",
    "methods": {
      "owner()": {
        "details": "Returns the address of the current owner."
      },
      "renounceOwnership()": {
        "details": "Leaves the contract without owner. It will not be possible to call `onlyOwner` functions anymore. Can only be called by the current owner. NOTE: Renouncing ownership will leave the contract without an owner, thereby removing any functionality that is only available to the owner."
      },
      "transferOwnership(address)": {
        "details": "Transfers ownership of the contract to a new account (`newOwner`). Can only be called by the current owner."
      }
    },
    "version": 1
  },
  "userdoc": {
    "events": {
      "CreateStream(uint256,address,address,address,uint256,uint256,uint256,uint256,uint256)": {
        "notice": "Events"
      }
    },
    "kind": "user",
    "methods": {
      "constructor": {
        "notice": "Functions"
      }
    },
    "version": 1
  }
}