{
  "contractName": "SemiottCurve",
  "abi": [
    {
      "inputs": [
        {
          "internalType": "address",
          "name": "_tokenAddress",
          "type": "address"
        }
      ],
      "stateMutability": "nonpayable",
      "type": "constructor"
    },
    {
      "anonymous": false,
      "inputs": [
        {
          "indexed": true,
          "internalType": "address",
          "name": "previousOwner",
          "type": "address"
        },
        {
          "indexed": true,
          "internalType": "address",
          "name": "newOwner",
          "type": "address"
        }
      ],
      "name": "OwnershipTransferred",
      "type": "event"
    },
    {
      "inputs": [
        {
          "internalType": "uint256",
          "name": "",
          "type": "uint256"
        }
      ],
      "name": "arrayHolders",
      "outputs": [
        {
          "internalType": "address",
          "name": "",
          "type": "address"
        }
      ],
      "stateMutability": "view",
      "type": "function"
    },
    {
      "inputs": [
        {
          "internalType": "uint256",
          "name": "_supply",
          "type": "uint256"
        },
        {
          "internalType": "uint256",
          "name": "_reserveBalance",
          "type": "uint256"
        },
        {
          "internalType": "uint32",
          "name": "_reserveRatio",
          "type": "uint32"
        },
        {
          "internalType": "uint256",
          "name": "_depositAmount",
          "type": "uint256"
        }
      ],
      "name": "calculatePurchaseReturn",
      "outputs": [
        {
          "internalType": "uint256",
          "name": "",
          "type": "uint256"
        }
      ],
      "stateMutability": "view",
      "type": "function"
    },
    {
      "inputs": [
        {
          "internalType": "uint256",
          "name": "_supply",
          "type": "uint256"
        },
        {
          "internalType": "uint256",
          "name": "_reserveBalance",
          "type": "uint256"
        },
        {
          "internalType": "uint32",
          "name": "_reserveRatio",
          "type": "uint32"
        },
        {
          "internalType": "uint256",
          "name": "_sellAmount",
          "type": "uint256"
        }
      ],
      "name": "calculateSaleReturn",
      "outputs": [
        {
          "internalType": "uint256",
          "name": "",
          "type": "uint256"
        }
      ],
      "stateMutability": "view",
      "type": "function"
    },
    {
      "inputs": [],
      "name": "curSoldPrice",
      "outputs": [
        {
          "internalType": "uint256",
          "name": "",
          "type": "uint256"
        }
      ],
      "stateMutability": "view",
      "type": "function"
    },
    {
      "inputs": [],
      "name": "initPrice",
      "outputs": [
        {
          "internalType": "uint256",
          "name": "",
          "type": "uint256"
        }
      ],
      "stateMutability": "view",
      "type": "function"
    },
    {
      "inputs": [
        {
          "internalType": "address",
          "name": "",
          "type": "address"
        }
      ],
      "name": "mHolders",
      "outputs": [
        {
          "internalType": "address",
          "name": "holder",
          "type": "address"
        },
        {
          "internalType": "uint256",
          "name": "ntoken",
          "type": "uint256"
        },
        {
          "internalType": "uint256",
          "name": "target",
          "type": "uint256"
        }
      ],
      "stateMutability": "view",
      "type": "function"
    },
    {
      "inputs": [],
      "name": "mToken",
      "outputs": [
        {
          "internalType": "contract SemiottToken",
          "name": "",
          "type": "address"
        }
      ],
      "stateMutability": "view",
      "type": "function"
    },
    {
      "inputs": [],
      "name": "owner",
      "outputs": [
        {
          "internalType": "address",
          "name": "",
          "type": "address"
        }
      ],
      "stateMutability": "view",
      "type": "function"
    },
    {
      "inputs": [],
      "name": "renounceOwnership",
      "outputs": [],
      "stateMutability": "nonpayable",
      "type": "function"
    },
    {
      "inputs": [],
      "name": "reserveRatio",
      "outputs": [
        {
          "internalType": "uint32",
          "name": "",
          "type": "uint32"
        }
      ],
      "stateMutability": "view",
      "type": "function"
    },
    {
      "inputs": [],
      "name": "supply",
      "outputs": [
        {
          "internalType": "uint256",
          "name": "",
          "type": "uint256"
        }
      ],
      "stateMutability": "view",
      "type": "function"
    },
    {
      "inputs": [
        {
          "internalType": "address",
          "name": "newOwner",
          "type": "address"
        }
      ],
      "name": "transferOwnership",
      "outputs": [],
      "stateMutability": "nonpayable",
      "type": "function"
    },
    {
      "inputs": [],
      "name": "version",
      "outputs": [
        {
          "internalType": "string",
          "name": "",
          "type": "string"
        }
      ],
      "stateMutability": "view",
      "type": "function"
    },
    {
      "inputs": [
        {
          "internalType": "uint256",
          "name": "_ntoken",
          "type": "uint256"
        },
        {
          "internalType": "uint256",
          "name": "_target",
          "type": "uint256"
        }
      ],
      "name": "buyTokens",
      "outputs": [
        {
          "internalType": "bool",
          "name": "",
          "type": "bool"
        }
      ],
      "stateMutability": "nonpayable",
      "type": "function"
    },
    {
      "inputs": [
        {
          "internalType": "uint256",
          "name": "amount",
          "type": "uint256"
        }
      ],
      "name": "sellTokens",
      "outputs": [
        {
          "internalType": "bool",
          "name": "",
          "type": "bool"
        }
      ],
      "stateMutability": "nonpayable",
      "type": "function"
    },
    {
      "inputs": [
        {
          "internalType": "uint256",
          "name": "_price",
          "type": "uint256"
        }
      ],
      "name": "changeTargetPrice",
      "outputs": [
        {
          "internalType": "bool",
          "name": "",
          "type": "bool"
        }
      ],
      "stateMutability": "nonpayable",
      "type": "function"
    },
    {
      "inputs": [],
      "name": "queryNextPrice",
      "outputs": [
        {
          "internalType": "uint256",
          "name": "",
          "type": "uint256"
        }
      ],
      "stateMutability": "view",
      "type": "function"
    },
    {
      "inputs": [],
      "name": "getTokenSupply",
      "outputs": [
        {
          "internalType": "uint256",
          "name": "",
          "type": "uint256"
        }
      ],
      "stateMutability": "view",
      "type": "function"
    },
    {
      "inputs": [],
      "name": "getTokenBalance",
      "outputs": [
        {
          "internalType": "uint256",
          "name": "",
          "type": "uint256"
        }
      ],
      "stateMutability": "view",
      "type": "function"
    }
  ],
  "bytecode": "0x60806040526040518060400160405280600381526020017f302e330000000000000000000000000000000000000000000000000000000000815250600290805190602001906200005192919062001007565b503480156200005f57600080fd5b506040516200486b3803806200486b8339818101604052810190620000859190620010d4565b60006200009762000fff60201b60201c565b9050806000806101000a81548173ffffffffffffffffffffffffffffffffffffffff021916908373ffffffffffffffffffffffffffffffffffffffff1602179055508073ffffffffffffffffffffffffffffffffffffffff16600073ffffffffffffffffffffffffffffffffffffffff167f8be0079c531659141344cd1fd0a4f28419497f9722a3daafe3b4186f6b6457e060405160405180910390a35060018081905550701c35fedd14ffffffffffffffffffffffff60036020608081106200015d57fe5b0181905550701b0ce43b323fffffffffffffffffffffff60036021608081106200018357fe5b01819055507019f0028ec1ffffffffffffffffffffffff6003602260808110620001a957fe5b01819055507018ded91f0e7fffffffffffffffffffffff6003602360808110620001cf57fe5b01819055507017d8ec7f0417ffffffffffffffffffffff6003602460808110620001f557fe5b01819055507016ddc6556cdbffffffffffffffffffffff60036025608081106200021b57fe5b01819055507015ecf52776a1ffffffffffffffffffffff60036026608081106200024157fe5b01819055507015060c256cb2ffffffffffffffffffffff60036027608081106200026757fe5b0181905550701428a2f98d72ffffffffffffffffffffff60036028608081106200028d57fe5b01819055507013545598e5c23fffffffffffffffffffff6003602960808110620002b357fe5b0181905550701288c4161ce1dfffffffffffffffffffff6003602a60808110620002d957fe5b01819055507011c592761c666fffffffffffffffffffff6003602b60808110620002ff57fe5b018190555070110a688680a757ffffffffffffffffffff6003602c608081106200032557fe5b0181905550701056f1b5bedf77ffffffffffffffffffff6003602d608081106200034b57fe5b0181905550700faadceceeff8bffffffffffffffffffff6003602e608081106200037157fe5b0181905550700f05dc6b27edadffffffffffffffffffff6003602f608081106200039757fe5b0181905550700e67a5a25da4107fffffffffffffffffff6003603060808110620003bd57fe5b0181905550700dcff115b14eedffffffffffffffffffff6003603160808110620003e357fe5b0181905550700d3e7a392431239fffffffffffffffffff60036032608081106200040957fe5b0181905550700cb2ff529eb71e4fffffffffffffffffff60036033608081106200042f57fe5b0181905550700c2d415c3db974afffffffffffffffffff60036034608081106200045557fe5b0181905550700bad03e7d883f69bffffffffffffffffff60036035608081106200047b57fe5b0181905550700b320d03b2c343d5ffffffffffffffffff6003603660808110620004a157fe5b0181905550700abc25204e02828dffffffffffffffffff6003603760808110620004c757fe5b0181905550700a4b16f74ee4bb207fffffffffffffffff6003603860808110620004ed57fe5b01819055507009deaf736ac1f569ffffffffffffffffff60036039608081106200051357fe5b0181905550700976bd9952c7aa957fffffffffffffffff6003603a608081106200053957fe5b01819055507009131271922eaa606fffffffffffffffff6003603b608081106200055f57fe5b01819055507008b380f3558668c46fffffffffffffffff6003603c608081106200058557fe5b0181905550700857ddf0117efa215bffffffffffffffff6003603d60808110620005ab57fe5b01819055507007ffffffffffffffffffffffffffffffff6003603e60808110620005d157fe5b01819055507007abbf6f6abb9d087fffffffffffffffff6003603f60808110620005f757fe5b018190555070075af62cbac95f7dfa7fffffffffffffff60036040608081106200061d57fe5b018190555070070d7fb7452e187ac13fffffffffffffff60036041608081106200064357fe5b01819055507006c3390ecc8af379295fffffffffffffff60036042608081106200066957fe5b018190555070067c00a3b07ffc01fd6fffffffffffffff60036043608081106200068f57fe5b0181905550700637b647c39cbb9d3d27ffffffffffffff6003604460808110620006b557fe5b01819055507005f63b1fc104dbd39587ffffffffffffff6003604560808110620006db57fe5b01819055507005b771955b36e12f7235ffffffffffffff60036046608081106200070157fe5b018190555070057b3d49dda84556d6f6ffffffffffffff60036047608081106200072757fe5b018190555070054183095b2c8ececf30ffffffffffffff60036048608081106200074d57fe5b018190555070050a28be635ca2b888f77fffffffffffff60036049608081106200077357fe5b01819055507004d5156639708c9db33c3fffffffffffff6003604a608081106200079957fe5b01819055507004a23105873875bd52dfdfffffffffffff6003604b60808110620007bf57fe5b0181905550700471649d87199aa990756fffffffffffff6003604c60808110620007e557fe5b01819055507004429a21a029d4c1457cfbffffffffffff6003604d608081106200080b57fe5b0181905550700415bc6d6fb7dd71af2cb3ffffffffffff6003604e608081106200083157fe5b01819055507003eab73b3bbfe282243ce1ffffffffffff6003604f608081106200085757fe5b01819055507003c1771ac9fb6b4c18e229ffffffffffff60036050608081106200087d57fe5b0181905550700399e96897690418f785257fffffffffff6003605160808110620008a357fe5b0181905550700373fc456c53bb779bf0ea9fffffffffff6003605260808110620008c957fe5b018190555070034f9e8e490c48e67e6ab8bfffffffffff6003605360808110620008ef57fe5b018190555070032cbfd4a7adc790560b3337ffffffffff60036054608081106200091557fe5b018190555070030b50570f6e5d2acca94613ffffffffff60036055608081106200093b57fe5b01819055507002eb40f9f620fda6b56c2861ffffffffff60036056608081106200096157fe5b01819055507002cc8340ecb0d0f520a6af58ffffffffff60036057608081106200098757fe5b01819055507002af09481380a0a35cf1ba02ffffffffff6003605860808110620009ad57fe5b0181905550700292c5bdd3b92ec810287b1b3fffffffff6003605960808110620009d357fe5b0181905550700277abdcdab07d5a77ac6d6b9fffffffff6003605a60808110620009f957fe5b018190555070025daf6654b1eaa55fd64df5efffffffff6003605b6080811062000a1f57fe5b0181905550700244c49c648baa98192dce88b7ffffffff6003605c6080811062000a4557fe5b018190555070022ce03cd5619a311b2471268bffffffff6003605d6080811062000a6b57fe5b0181905550700215f77c045fbe885654a44a0fffffffff6003605e6080811062000a9157fe5b01819055507001ffffffffffffffffffffffffffffffff6003605f6080811062000ab757fe5b01819055507001eaefdbdaaee7421fc4d3ede5ffffffff600360606080811062000add57fe5b01819055507001d6bd8b2eb257df7e8ca57b09bfffffff600360616080811062000b0357fe5b01819055507001c35fedd14b861eb0443f7f133fffffff600360626080811062000b2957fe5b01819055507001b0ce43b322bcde4a56e8ada5afffffff600360636080811062000b4f57fe5b018190555070019f0028ec1fff007f5a195a39dfffffff600360646080811062000b7557fe5b018190555070018ded91f0e72ee74f49b15ba527ffffff600360656080811062000b9b57fe5b018190555070017d8ec7f04136f4e5615fd41a63ffffff600360666080811062000bc157fe5b018190555070016ddc6556cdb84bdc8d12d22e6fffffff600360676080811062000be757fe5b018190555070015ecf52776a1155b5bd8395814f7fffff600360686080811062000c0d57fe5b018190555070015060c256cb23b3b3cc3754cf40ffffff600360696080811062000c3357fe5b01819055507001428a2f98d728ae223ddab715be3fffff6003606a6080811062000c5957fe5b018190555070013545598e5c23276ccf0ede68034fffff6003606b6080811062000c7f57fe5b01819055507001288c4161ce1d6f54b7f61081194fffff6003606c6080811062000ca557fe5b018190555070011c592761c666aa641d5a01a40f17ffff6003606d6080811062000ccb57fe5b0181905550700110a688680a7530515f3e6e6cfdcdffff6003606e6080811062000cf157fe5b01819055507001056f1b5bedf75c6bcb2ce8aed428ffff6003606f6080811062000d1757fe5b01819055506ffaadceceeff8a0890f3875f008277fff600360706080811062000d3c57fe5b01819055506ff05dc6b27edad306388a600f6ba0bfff600360716080811062000d6157fe5b01819055506fe67a5a25da41063de1495d5b18cdbfff600360726080811062000d8657fe5b01819055506fdcff115b14eedde6fc3aa5353f2e4fff600360736080811062000dab57fe5b01819055506fd3e7a3924312399f9aae2e0f868f8fff600360746080811062000dd057fe5b01819055506fcb2ff529eb71e41582cccd5a1ee26fff600360756080811062000df557fe5b01819055506fc2d415c3db974ab32a51840c0b67edff600360766080811062000e1a57fe5b01819055506fbad03e7d883f69ad5b0a186184e06bff600360776080811062000e3f57fe5b01819055506fb320d03b2c343d4829abd6075f0cc5ff600360786080811062000e6457fe5b01819055506fabc25204e02828d73c6e80bcdb1a95bf600360796080811062000e8957fe5b01819055506fa4b16f74ee4bb2040a1ec6c15fbbf2df6003607a6080811062000eae57fe5b01819055506f9deaf736ac1f569deb1b5ae3f36c130f6003607b6080811062000ed357fe5b01819055506f976bd9952c7aa957f5937d790ef650376003607c6080811062000ef857fe5b01819055506f9131271922eaa6064b73a22d0bd4f2bf6003607d6080811062000f1d57fe5b01819055506f8b380f3558668c46c91c49a2f8e967b96003607e6080811062000f4257fe5b01819055506f857ddf0117efa215952912839f6473e66003607f6080811062000f6757fe5b0181905550600073ffffffffffffffffffffffffffffffffffffffff168173ffffffffffffffffffffffffffffffffffffffff16141562000fa757600080fd5b80608360006101000a81548173ffffffffffffffffffffffffffffffffffffffff021916908373ffffffffffffffffffffffffffffffffffffffff16021790555060646087819055506001608881905550506200114e565b600033905090565b828054600181600116156101000203166002900490600052602060002090601f0160209004810192826200103f57600085556200108b565b82601f106200105a57805160ff19168380011785556200108b565b828001600101855582156200108b579182015b828111156200108a5782518255916020019190600101906200106d565b5b5090506200109a91906200109e565b5090565b5b80821115620010b95760008160009055506001016200109f565b5090565b600081519050620010ce8162001134565b92915050565b600060208284031215620010e757600080fd5b6000620010f784828501620010bd565b91505092915050565b60006200110d8262001114565b9050919050565b600073ffffffffffffffffffffffffffffffffffffffff82169050919050565b6200113f8162001100565b81146200114b57600080fd5b50565b61370d806200115e6000396000f3fe608060405234801561001057600080fd5b50600436106101215760003560e01c80636c11bcd3116100ad578063ad974f4c11610071578063ad974f4c14610324578063b6add0f414610342578063c3b6f93914610360578063f2fde38b1461037e578063fddbcc7a1461039a57610121565b80636c11bcd31461027e578063715018a6146102ae5780637975ce28146102b857806382b2e257146102e85780638da5cb5b1461030657610121565b806329a00e7c116100f457806329a00e7c146101b25780634644d17e146101e257806349f9b0f7146102125780634ad685f91461024257806354fd4d501461026057610121565b8063047fc9aa146101265780630c7d5cd81461014457806314fc35de1461016257806324eee4ca14610180575b600080fd5b61012e6103ca565b60405161013b9190613533565b60405180910390f35b61014c6103d0565b604051610159919061354e565b60405180910390f35b61016a6103e6565b6040516101779190613533565b60405180910390f35b61019a60048036038101906101959190612f67565b61045c565b6040516101a9939291906133c4565b60405180910390f35b6101cc60048036038101906101c79190613047565b6104a6565b6040516101d99190613533565b60405180910390f35b6101fc60048036038101906101f79190612fb9565b6105e8565b60405161020991906133fb565b60405180910390f35b61022c60048036038101906102279190613047565b6106d5565b6040516102399190613533565b60405180910390f35b61024a61084b565b6040516102579190613533565b60405180910390f35b610268610851565b6040516102759190613431565b60405180910390f35b61029860048036038101906102939190612fb9565b6108ef565b6040516102a591906133fb565b60405180910390f35b6102b6610c23565b005b6102d260048036038101906102cd919061300b565b610d76565b6040516102df91906133fb565b60405180910390f35b6102f06114df565b6040516102fd9190613533565b60405180910390f35b61030e6115c4565b60405161031b9190613349565b60405180910390f35b61032c6115ed565b6040516103399190613533565b60405180910390f35b61034a6115f7565b6040516103579190613533565b60405180910390f35b6103686115fd565b6040516103759190613416565b60405180910390f35b61039860048036038101906103939190612f67565b611623565b005b6103b460048036038101906103af9190612fb9565b6117e5565b6040516103c19190613349565b60405180910390f35b60875481565b608360149054906101000a900463ffffffff1681565b60008060875411156103fc576088549050610459565b600060875414156104585760846000610413611824565b73ffffffffffffffffffffffffffffffffffffffff1673ffffffffffffffffffffffffffffffffffffffff168152602001908152602001600020600201549050610459565b5b90565b60846020528060005260406000206000915090508060000160009054906101000a900473ffffffffffffffffffffffffffffffffffffffff16908060010154908060020154905083565b600080851180156104b75750600084115b80156104c9575060008363ffffffff16115b80156104e45750620f424063ffffffff168363ffffffff1611155b610523576040517f08c379a000000000000000000000000000000000000000000000000000000000815260040161051a90613513565b60405180910390fd5b600082141561053557600090506105e0565b620f424063ffffffff168363ffffffff16141561057857610571846105638488611a6f90919063ffffffff16565b611adf90919063ffffffff16565b90506105e0565b60008060006105908786611b2990919063ffffffff16565b90506105a1818888620f4240611b7e565b809350819450505060008260ff166105c2858b611a6f90919063ffffffff16565b901c90506105d98982611cec90919063ffffffff16565b9450505050505b949350505050565b60008073ffffffffffffffffffffffffffffffffffffffff16608460003373ffffffffffffffffffffffffffffffffffffffff1673ffffffffffffffffffffffffffffffffffffffff16815260200190815260200160002060000160009054906101000a900473ffffffffffffffffffffffffffffffffffffffff1673ffffffffffffffffffffffffffffffffffffffff16141561068557600080fd5b81608460003373ffffffffffffffffffffffffffffffffffffffff1673ffffffffffffffffffffffffffffffffffffffff1681526020019081526020016000206002018190555060019050919050565b600080851180156106e65750600084115b80156106f8575060008363ffffffff16115b80156107135750620f424063ffffffff168363ffffffff1611155b801561071f5750848211155b61075e576040517f08c379a000000000000000000000000000000000000000000000000000000000815260040161075590613513565b60405180910390fd5b60008214156107705760009050610843565b8482141561078057839050610843565b620f424063ffffffff168363ffffffff1614156107c3576107bc856107ae8487611a6f90919063ffffffff16565b611adf90919063ffffffff16565b9050610843565b60008060006107db8589611cec90919063ffffffff16565b90506107ec8882620f424089611b7e565b809350819450505060006108098489611a6f90919063ffffffff16565b905060008360ff1689901b905061083b8561082d8385611cec90919063ffffffff16565b611adf90919063ffffffff16565b955050505050505b949350505050565b60865481565b60028054600181600116156101000203166002900480601f0160208091040260200160405190810160405280929190818152602001828054600181600116156101000203166002900480156108e75780601f106108bc576101008083540402835291602001916108e7565b820191906000526020600020905b8154815290600101906020018083116108ca57829003601f168201915b505050505081565b60008073ffffffffffffffffffffffffffffffffffffffff16608460003373ffffffffffffffffffffffffffffffffffffffff1673ffffffffffffffffffffffffffffffffffffffff16815260200190815260200160002060000160009054906101000a900473ffffffffffffffffffffffffffffffffffffffff1673ffffffffffffffffffffffffffffffffffffffff16141561098c57600080fd5b81608460003373ffffffffffffffffffffffffffffffffffffffff1673ffffffffffffffffffffffffffffffffffffffff1681526020019081526020016000206001015410156109db57600080fd5b60006109f260885484611a6f90919063ffffffff16565b905080608360009054906101000a900473ffffffffffffffffffffffffffffffffffffffff1673ffffffffffffffffffffffffffffffffffffffff166370a08231306040518263ffffffff1660e01b8152600401610a509190613349565b60206040518083038186803b158015610a6857600080fd5b505afa158015610a7c573d6000803e3d6000fd5b505050506040513d601f19601f82011682018060405250810190610aa09190612fe2565b1015610aab57600080fd5b608360009054906101000a900473ffffffffffffffffffffffffffffffffffffffff1673ffffffffffffffffffffffffffffffffffffffff1663a9059cbb33836040518363ffffffff1660e01b8152600401610b0892919061339b565b602060405180830381600087803b158015610b2257600080fd5b505af1158015610b36573d6000803e3d6000fd5b505050506040513d601f19601f82011682018060405250810190610b5a9190612f90565b610b6357600080fd5b610bb883608460003373ffffffffffffffffffffffffffffffffffffffff1673ffffffffffffffffffffffffffffffffffffffff16815260200190815260200160002060010154611cec90919063ffffffff16565b608460003373ffffffffffffffffffffffffffffffffffffffff1673ffffffffffffffffffffffffffffffffffffffff16815260200190815260200160002060010181905550610c1383608754611b2990919063ffffffff16565b6087819055506001915050919050565b610c2b611d36565b73ffffffffffffffffffffffffffffffffffffffff1660008054906101000a900473ffffffffffffffffffffffffffffffffffffffff1673ffffffffffffffffffffffffffffffffffffffff1614610cb8576040517f08c379a0000000000000000000000000000000000000000000000000000000008152600401610caf906134b3565b60405180910390fd5b600073ffffffffffffffffffffffffffffffffffffffff1660008054906101000a900473ffffffffffffffffffffffffffffffffffffffff1673ffffffffffffffffffffffffffffffffffffffff167f8be0079c531659141344cd1fd0a4f28419497f9722a3daafe3b4186f6b6457e060405160405180910390a360008060006101000a81548173ffffffffffffffffffffffffffffffffffffffff021916908373ffffffffffffffffffffffffffffffffffffffff160217905550565b60008073ffffffffffffffffffffffffffffffffffffffff16608460003373ffffffffffffffffffffffffffffffffffffffff1673ffffffffffffffffffffffffffffffffffffffff16815260200190815260200160002060000160009054906101000a900473ffffffffffffffffffffffffffffffffffffffff1673ffffffffffffffffffffffffffffffffffffffff161415610f425760405180606001604052803373ffffffffffffffffffffffffffffffffffffffff168152602001600081526020016000815250608460003373ffffffffffffffffffffffffffffffffffffffff1673ffffffffffffffffffffffffffffffffffffffff16815260200190815260200160002060008201518160000160006101000a81548173ffffffffffffffffffffffffffffffffffffffff021916908373ffffffffffffffffffffffffffffffffffffffff16021790555060208201518160010155604082015181600201559050506085339080600181540180825580915050600190039060005260206000200160009091909190916101000a81548173ffffffffffffffffffffffffffffffffffffffff021916908373ffffffffffffffffffffffffffffffffffffffff1602179055505b600060875411156111315760006087548411610f5e5783610f62565b6087545b9050608360009054906101000a900473ffffffffffffffffffffffffffffffffffffffff1673ffffffffffffffffffffffffffffffffffffffff166323b872dd3330610fb960885486611a6f90919063ffffffff16565b6040518463ffffffff1660e01b8152600401610fd793929190613364565b602060405180830381600087803b158015610ff157600080fd5b505af1158015611005573d6000803e3d6000fd5b505050506040513d601f19601f820116820180604052508101906110299190612f90565b61103257600080fd5b61108781608460003373ffffffffffffffffffffffffffffffffffffffff1673ffffffffffffffffffffffffffffffffffffffff16815260200190815260200160002060010154611b2990919063ffffffff16565b608460003373ffffffffffffffffffffffffffffffffffffffff1673ffffffffffffffffffffffffffffffffffffffff168152602001908152602001600020600101819055506110e281608754611cec90919063ffffffff16565b60878190555082608460003373ffffffffffffffffffffffffffffffffffffffff1673ffffffffffffffffffffffffffffffffffffffff16815260200190815260200160002060020181905550505b600060875414156114d5576000611146611824565b90506000608460008373ffffffffffffffffffffffffffffffffffffffff1673ffffffffffffffffffffffffffffffffffffffff16815260200190815260200160002060010154851161119957846111dd565b608460008373ffffffffffffffffffffffffffffffffffffffff1673ffffffffffffffffffffffffffffffffffffffff168152602001908152602001600020600101545b90506000611236608460008573ffffffffffffffffffffffffffffffffffffffff1673ffffffffffffffffffffffffffffffffffffffff1681526020019081526020016000206002015483611a6f90919063ffffffff16565b9050608360009054906101000a900473ffffffffffffffffffffffffffffffffffffffff1673ffffffffffffffffffffffffffffffffffffffff166323b872dd33608460008773ffffffffffffffffffffffffffffffffffffffff1673ffffffffffffffffffffffffffffffffffffffff16815260200190815260200160002060000160009054906101000a900473ffffffffffffffffffffffffffffffffffffffff16846040518463ffffffff1660e01b81526004016112f993929190613364565b602060405180830381600087803b15801561131357600080fd5b505af1158015611327573d6000803e3d6000fd5b505050506040513d601f19601f8201168201806040525081019061134b9190612f90565b61135457600080fd5b6113a982608460008673ffffffffffffffffffffffffffffffffffffffff1673ffffffffffffffffffffffffffffffffffffffff16815260200190815260200160002060010154611cec90919063ffffffff16565b608460008573ffffffffffffffffffffffffffffffffffffffff1673ffffffffffffffffffffffffffffffffffffffff1681526020019081526020016000206001018190555061144482608460003373ffffffffffffffffffffffffffffffffffffffff1673ffffffffffffffffffffffffffffffffffffffff16815260200190815260200160002060010154611b2990919063ffffffff16565b608460003373ffffffffffffffffffffffffffffffffffffffff1673ffffffffffffffffffffffffffffffffffffffff1681526020019081526020016000206001018190555084608460003373ffffffffffffffffffffffffffffffffffffffff1673ffffffffffffffffffffffffffffffffffffffff168152602001908152602001600020600201819055505050505b6001905092915050565b60008073ffffffffffffffffffffffffffffffffffffffff16608460003373ffffffffffffffffffffffffffffffffffffffff1673ffffffffffffffffffffffffffffffffffffffff16815260200190815260200160002060000160009054906101000a900473ffffffffffffffffffffffffffffffffffffffff1673ffffffffffffffffffffffffffffffffffffffff16141561157c57600080fd5b608460003373ffffffffffffffffffffffffffffffffffffffff1673ffffffffffffffffffffffffffffffffffffffff16815260200190815260200160002060010154905090565b60008060009054906101000a900473ffffffffffffffffffffffffffffffffffffffff16905090565b6000608754905090565b60885481565b608360009054906101000a900473ffffffffffffffffffffffffffffffffffffffff1681565b61162b611d36565b73ffffffffffffffffffffffffffffffffffffffff1660008054906101000a900473ffffffffffffffffffffffffffffffffffffffff1673ffffffffffffffffffffffffffffffffffffffff16146116b8576040517f08c379a00000000000000000000000000000000000000000000000000000000081526004016116af906134b3565b60405180910390fd5b600073ffffffffffffffffffffffffffffffffffffffff168173ffffffffffffffffffffffffffffffffffffffff161415611728576040517f08c379a000000000000000000000000000000000000000000000000000000000815260040161171f90613453565b60405180910390fd5b8073ffffffffffffffffffffffffffffffffffffffff1660008054906101000a900473ffffffffffffffffffffffffffffffffffffffff1673ffffffffffffffffffffffffffffffffffffffff167f8be0079c531659141344cd1fd0a4f28419497f9722a3daafe3b4186f6b6457e060405160405180910390a3806000806101000a81548173ffffffffffffffffffffffffffffffffffffffff021916908373ffffffffffffffffffffffffffffffffffffffff16021790555050565b608581815481106117f557600080fd5b906000526020600020016000915054906101000a900473ffffffffffffffffffffffffffffffffffffffff1681565b6000806000905060005b6085805490508110156119ce576000608460006085848154811061184e57fe5b9060005260206000200160009054906101000a900473ffffffffffffffffffffffffffffffffffffffff1673ffffffffffffffffffffffffffffffffffffffff1673ffffffffffffffffffffffffffffffffffffffff1681526020019081526020016000206001015414156118c2576119c1565b60846000608584815481106118d357fe5b9060005260206000200160009054906101000a900473ffffffffffffffffffffffffffffffffffffffff1673ffffffffffffffffffffffffffffffffffffffff1673ffffffffffffffffffffffffffffffffffffffff16815260200190815260200160002060020154608460006085848154811061194d57fe5b9060005260206000200160009054906101000a900473ffffffffffffffffffffffffffffffffffffffff1673ffffffffffffffffffffffffffffffffffffffff1673ffffffffffffffffffffffffffffffffffffffff1681526020019081526020016000206002015411156119c0578091505b5b808060010191505061182e565b5060846000608583815481106119e057fe5b9060005260206000200160009054906101000a900473ffffffffffffffffffffffffffffffffffffffff1673ffffffffffffffffffffffffffffffffffffffff1673ffffffffffffffffffffffffffffffffffffffff16815260200190815260200160002060000160009054906101000a900473ffffffffffffffffffffffffffffffffffffffff1691505090565b600080831415611a825760009050611ad9565b6000828402905082848281611a9357fe5b0414611ad4576040517f08c379a0000000000000000000000000000000000000000000000000000000008152600401611acb90613493565b60405180910390fd5b809150505b92915050565b6000611b2183836040518060400160405280601a81526020017f536166654d6174683a206469766973696f6e206279207a65726f000000000000815250611d3e565b905092915050565b600080828401905083811015611b74576040517f08c379a0000000000000000000000000000000000000000000000000000000008152600401611b6b90613473565b60405180910390fd5b8091505092915050565b6000807002000000000000000000000000000000008610611bd4576040517f08c379a0000000000000000000000000000000000000000000000000000000008152600401611bcb906134f3565b60405180910390fd5b84861015611c17576040517f08c379a0000000000000000000000000000000000000000000000000000000008152600401611c0e906134d3565b60405180910390fd5b600080866f80000000000000000000000000000000890281611c3557fe5b04905070015bf0a8b1457695355fb8ac404e7a79e3811015611c6157611c5a81611d9f565b9150611c6d565b611c6a8161232f565b91505b60008563ffffffff168763ffffffff16840281611c8657fe5b049050700800000000000000000000000000000000811015611cb957611cab81612457565b607f94509450505050611ce3565b6000611cc4826129d1565b9050611cd981607f0360ff1683901c82612a86565b8195509550505050505b94509492505050565b6000611d2e83836040518060400160405280601e81526020017f536166654d6174683a207375627472616374696f6e206f766572666c6f770000815250612e21565b905092915050565b600033905090565b60008083118290611d85576040517f08c379a0000000000000000000000000000000000000000000000000000000008152600401611d7c9190613431565b60405180910390fd5b506000838581611d9157fe5b049050809150509392505050565b6000806000905060008060006fd3094c70f034de4b96ff7d5b6f99fcd88610611e06576f40000000000000000000000000000000840193506fd3094c70f034de4b96ff7d5b6f99fcd86f80000000000000000000000000000000870281611e0257fe5b0495505b6fa45af1e1f40c333b3de1db4dd55f29a78610611e61576f20000000000000000000000000000000840193506fa45af1e1f40c333b3de1db4dd55f29a76f80000000000000000000000000000000870281611e5d57fe5b0495505b6f910b022db7ae67ce76b441c27035c6a18610611ebc576f10000000000000000000000000000000840193506f910b022db7ae67ce76b441c27035c6a16f80000000000000000000000000000000870281611eb857fe5b0495505b6f88415abbe9a76bead8d00cf112e4d4a88610611f17576f08000000000000000000000000000000840193506f88415abbe9a76bead8d00cf112e4d4a86f80000000000000000000000000000000870281611f1357fe5b0495505b6f84102b00893f64c705e841d5d4064bd38610611f72576f04000000000000000000000000000000840193506f84102b00893f64c705e841d5d4064bd36f80000000000000000000000000000000870281611f6e57fe5b0495505b6f8204055aaef1c8bd5c3259f4822735a28610611fcd576f02000000000000000000000000000000840193506f8204055aaef1c8bd5c3259f4822735a26f80000000000000000000000000000000870281611fc957fe5b0495505b6f810100ab00222d861931c15e39b44e998610612028576f01000000000000000000000000000000840193506f810100ab00222d861931c15e39b44e996f8000000000000000000000000000000087028161202457fe5b0495505b6f808040155aabbbe9451521693554f7338610612082576e800000000000000000000000000000840193506f808040155aabbbe9451521693554f7336f8000000000000000000000000000000087028161207e57fe5b0495505b6f80000000000000000000000000000000860392508291506f80000000000000000000000000000000838402816120b557fe5b04905070010000000000000000000000000000000083700100000000000000000000000000000000038302816120e757fe5b04840193506f800000000000000000000000000000008183028161210757fe5b049150700200000000000000000000000000000000836faaaaaaaaaaaaaaaaaaaaaaaaaaaaaaaa0383028161213857fe5b04840193506f800000000000000000000000000000008183028161215857fe5b049150700300000000000000000000000000000000836f999999999999999999999999999999990383028161218957fe5b04840193506f80000000000000000000000000000000818302816121a957fe5b049150700400000000000000000000000000000000836f92492492492492492492492492492492038302816121da57fe5b04840193506f80000000000000000000000000000000818302816121fa57fe5b049150700500000000000000000000000000000000836f8e38e38e38e38e38e38e38e38e38e38e0383028161222b57fe5b04840193506f800000000000000000000000000000008183028161224b57fe5b049150700600000000000000000000000000000000836f8ba2e8ba2e8ba2e8ba2e8ba2e8ba2e8b0383028161227c57fe5b04840193506f800000000000000000000000000000008183028161229c57fe5b049150700700000000000000000000000000000000836f89d89d89d89d89d89d89d89d89d89d89038302816122cd57fe5b04840193506f80000000000000000000000000000000818302816122ed57fe5b049150700800000000000000000000000000000000836f888888888888888888888888888888880383028161231e57fe5b048401935083945050505050919050565b600080600090506000839050700100000000000000000000000000000000811061239c5760006123776f80000000000000000000000000000000838161237157fe5b04612e7c565b90508060ff1682901c91506f800000000000000000000000000000008160ff16029250505b6f80000000000000000000000000000000811115612422576000607f90505b60008160ff161115612420576f80000000000000000000000000000000828302816123e257fe5b049150700100000000000000000000000000000000821061241457600182901c91506001810360ff166001901b830192505b806001900390506123bb565b505b6f05b9de1d10bf4103d647b0955897ba806f03f80fe03f80fe03f80fe03f80fe03f883028161244d57fe5b0492505050919050565b600080600090506000806f10000000000000000000000000000000858161247a57fe5b0691508190506f800000000000000000000000000000008282028161249b57fe5b0490506710e1b3be415a00008102830192506f80000000000000000000000000000000828202816124c857fe5b0490506705a0913f6b1e00008102830192506f80000000000000000000000000000000828202816124f557fe5b049050670168244fdac780008102830192506f800000000000000000000000000000008282028161252257fe5b049050664807432bc180008102830192506f800000000000000000000000000000008282028161254e57fe5b049050660c0135dca040008102830192506f800000000000000000000000000000008282028161257a57fe5b0490506601b707b1cdc0008102830192506f80000000000000000000000000000000828202816125a657fe5b0490506536e0f639b8008102830192506f80000000000000000000000000000000828202816125d157fe5b049050650618fee9f8008102830192506f80000000000000000000000000000000828202816125fc57fe5b049050649c197dcc008102830192506f800000000000000000000000000000008282028161262657fe5b049050640e30dce4008102830192506f800000000000000000000000000000008282028161265057fe5b04905064012ebd13008102830192506f800000000000000000000000000000008282028161267a57fe5b0490506317499f008102830192506f80000000000000000000000000000000828202816126a357fe5b0490506301a9d4808102830192506f80000000000000000000000000000000828202816126cc57fe5b049050621c63808102830192506f80000000000000000000000000000000828202816126f457fe5b0490506201c6388102830192506f800000000000000000000000000000008282028161271c57fe5b049050611ab88102830192506f800000000000000000000000000000008282028161274357fe5b04905061017c8102830192506f800000000000000000000000000000008282028161276a57fe5b04905060148102830192506f800000000000000000000000000000008282028161279057fe5b04905060018102830192506f80000000000000000000000000000000826721c3677c82b4000085816127be57fe5b040101925060006f1000000000000000000000000000000086161461280e5770018ebef9eac820ae8682b9793ac6d1e7767001c3d6a24ed82218787d624d3e5eba95f984028161280a57fe5b0492505b60006f20000000000000000000000000000000861614612859577001368b2fc6f9609fe7aceb46aa619baed470018ebef9eac820ae8682b9793ac6d1e77884028161285557fe5b0492505b60006f400000000000000000000000000000008616146128a3576fbc5ab1b16779be3575bd8f0520a9f21f7001368b2fc6f9609fe7aceb46aa619baed584028161289f57fe5b0492505b60006f800000000000000000000000000000008616146128ec576f454aaa8efe072e7f6ddbab84b40a55c96fbc5ab1b16779be3575bd8f0520a9f21e8402816128e857fe5b0492505b6000700100000000000000000000000000000000861614612936576f0960aadc109e7a3bf4578099615711ea6f454aaa8efe072e7f6ddbab84b40a55c584028161293257fe5b0492505b600070020000000000000000000000000000000086161461297f576e2bf84208204f5977f9a8cf01fdce3d6f0960aadc109e7a3bf4578099615711d784028161297b57fe5b0492505b60007004000000000000000000000000000000008616146129c6576d03c6ab775dd0b95b4cbee7e65d116e2bf84208204f5977f9a8cf01fdc3078402816129c257fe5b0492505b829350505050919050565b600080602090506000607f90505b8060ff166001830160ff161015612a2e576000600282840160ff1681612a0157fe5b0490508460038260ff1660808110612a1557fe5b015410612a2457809250612a28565b8091505b506129df565b8360038260ff1660808110612a3f57fe5b015410612a50578092505050612a81565b8360038360ff1660808110612a6157fe5b015410612a72578192505050612a81565b6000612a7a57fe5b6000925050505b919050565b60008083905060008360ff16858302901c91506f03442c4e6074a82f1797f72ac00000008202810190508360ff16858302901c91506f0116b96f757c380fb287fd0e400000008202810190508360ff16858302901c91506e45ae5bdd5f0e03eca1ff43900000008202810190508360ff16858302901c91506e0defabf91302cd95b9ffda500000008202810190508360ff16858302901c91506e02529ca9832b22439efff9b80000008202810190508360ff16858302901c91506d54f1cf12bd04e516b6da880000008202810190508360ff16858302901c91506d0a9e39e257a09ca2d6db510000008202810190508360ff16858302901c91506d012e066e7b839fa050c3090000008202810190508360ff16858302901c91506c1e33d7d926c329a1ad1a8000008202810190508360ff16858302901c91506c02bee513bdb4a6b19b5f8000008202810190508360ff16858302901c91506b3a9316fa79b88eccf2a000008202810190508360ff16858302901c91506b048177ebe1fa8123752000008202810190508360ff16858302901c91506a5263fe90242dcbacf000008202810190508360ff16858302901c91506a057e22099c030d941000008202810190508360ff16858302901c91506957e22099c030d94100008202810190508360ff16858302901c915069052b6b545699763100008202810190508360ff16858302901c9150684985f67696bf7480008202810190508360ff16858302901c91506803dea12ea99e4980008202810190508360ff16858302901c91506731880f2214b6e0008202810190508360ff16858302901c915067025bcff56eb360008202810190508360ff16858302901c9150661b722e10ab10008202810190508360ff16858302901c91506601317c700770008202810190508360ff16858302901c9150650cba84aafa008202810190508360ff16858302901c91506482573a0a008202810190508360ff16858302901c91506405035ad9008202810190508360ff16858302901c9150632f881b008202810190508360ff16858302901c91506301b293408202810190508360ff16858302901c9150620efc408202810190508360ff16858302901c9150617fe08202810190508360ff16858302901c91506104208202810190508360ff16858302901c915060218202810190508360ff16858302901c915060018202810190508360ff166001901b856f0688589cc0e9505e2f2fee55800000008381612e1457fe5b0401019250505092915050565b6000838311158290612e69576040517f08c379a0000000000000000000000000000000000000000000000000000000008152600401612e609190613431565b60405180910390fd5b5060008385039050809150509392505050565b600080600090506000839050610100811015612eb3575b6001811115612eae57600181901c9050600182019150612e93565b612ef4565b6000608090505b60008160ff161115612ef2578060ff166001901b8210612ee3578060ff1682901c915080831792505b60018160ff16901c9050612eba565b505b8192505050919050565b600081359050612f0d8161367b565b92915050565b600081519050612f2281613692565b92915050565b600081359050612f37816136a9565b92915050565b600081519050612f4c816136a9565b92915050565b600081359050612f61816136c0565b92915050565b600060208284031215612f7957600080fd5b6000612f8784828501612efe565b91505092915050565b600060208284031215612fa257600080fd5b6000612fb084828501612f13565b91505092915050565b600060208284031215612fcb57600080fd5b6000612fd984828501612f28565b91505092915050565b600060208284031215612ff457600080fd5b600061300284828501612f3d565b91505092915050565b6000806040838503121561301e57600080fd5b600061302c85828601612f28565b925050602061303d85828601612f28565b9150509250929050565b6000806000806080858703121561305d57600080fd5b600061306b87828801612f28565b945050602061307c87828801612f28565b935050604061308d87828801612f52565b925050606061309e87828801612f28565b91505092959194509250565b6130b3816135dd565b82525050565b6130c281613585565b82525050565b6130d181613597565b82525050565b6130e0816135ef565b82525050565b60006130f182613569565b6130fb8185613574565b935061310b818560208601613637565b6131148161366a565b840191505092915050565b600061312c602683613574565b91507f4f776e61626c653a206e6577206f776e657220697320746865207a65726f206160008301527f64647265737300000000000000000000000000000000000000000000000000006020830152604082019050919050565b6000613192601b83613574565b91507f536166654d6174683a206164646974696f6e206f766572666c6f7700000000006000830152602082019050919050565b60006131d2602183613574565b91507f536166654d6174683a206d756c7469706c69636174696f6e206f766572666c6f60008301527f77000000000000000000000000000000000000000000000000000000000000006020830152604082019050919050565b6000613238602083613574565b91507f4f776e61626c653a2063616c6c6572206973206e6f7420746865206f776e65726000830152602082019050919050565b6000613278601c83613574565b91507f4261736573203c203120617265206e6f7420737570706f727465642e000000006000830152602082019050919050565b60006132b8601883613574565b91507f626173654e2065786365656473206d61782076616c75652e00000000000000006000830152602082019050919050565b60006132f8600f83613574565b91507f496e76616c696420696e707574732e00000000000000000000000000000000006000830152602082019050919050565b613334816135c3565b82525050565b613343816135cd565b82525050565b600060208201905061335e60008301846130b9565b92915050565b600060608201905061337960008301866130aa565b61338660208301856130b9565b613393604083018461332b565b949350505050565b60006040820190506133b060008301856130aa565b6133bd602083018461332b565b9392505050565b60006060820190506133d960008301866130b9565b6133e6602083018561332b565b6133f3604083018461332b565b949350505050565b600060208201905061341060008301846130c8565b92915050565b600060208201905061342b60008301846130d7565b92915050565b6000602082019050818103600083015261344b81846130e6565b905092915050565b6000602082019050818103600083015261346c8161311f565b9050919050565b6000602082019050818103600083015261348c81613185565b9050919050565b600060208201905081810360008301526134ac816131c5565b9050919050565b600060208201905081810360008301526134cc8161322b565b9050919050565b600060208201905081810360008301526134ec8161326b565b9050919050565b6000602082019050818103600083015261350c816132ab565b9050919050565b6000602082019050818103600083015261352c816132eb565b9050919050565b6000602082019050613548600083018461332b565b92915050565b6000602082019050613563600083018461333a565b92915050565b600081519050919050565b600082825260208201905092915050565b6000613590826135a3565b9050919050565b60008115159050919050565b600073ffffffffffffffffffffffffffffffffffffffff82169050919050565b6000819050919050565b600063ffffffff82169050919050565b60006135e882613613565b9050919050565b60006135fa82613601565b9050919050565b600061360c826135a3565b9050919050565b600061361e82613625565b9050919050565b6000613630826135a3565b9050919050565b60005b8381101561365557808201518184015260208101905061363a565b83811115613664576000848401525b50505050565b6000601f19601f8301169050919050565b61368481613585565b811461368f57600080fd5b50565b61369b81613597565b81146136a657600080fd5b50565b6136b2816135c3565b81146136bd57600080fd5b50565b6136c9816135cd565b81146136d457600080fd5b5056fea26469706673582212203499f7501dc7d5e29c017294796ff13eed568c3095a663b2b596b566b47bd25364736f6c63430007060033",
  "immutableReferences": {},
  "source": "// SPDX-License-Identifier: Apache License 2.0\n\npragma solidity >=0.6.0 <0.8.0;\npragma experimental ABIEncoderV2;\n\n\n/**\n * @title Bonding Curve\n * @dev Bonding curve contract based on Bacor formula\n * inspired by bancor protocol and simondlr\n * https://github.com/bancorprotocol/contracts\n * https://github.com/ConsenSys/curationmarkets/blob/master/CurationMarkets.sol\n */\n\nimport './SafeMath.sol';\nimport \"./Ownable.sol\";\nimport \"./ReentrancyGuard.sol\";\n\nimport \"./IBondingCurve.sol\";\nimport \"./BancorFormula.sol\";\n\nimport \"./SemiottToken.sol\";\n\ncontract SemiottCurve is Ownable, ReentrancyGuard, BancorFormula {\n\n  using SafeMath for uint256;\n\n  SemiottToken public mToken;\n  \n      /*\n        reserve ratio, represented in ppm, 1-1000000\n        1/3 corresponds to y= multiple * x^2\n        1/2 corresponds to y= multiple * x\n        2/3 corresponds to y= multiple * x^1/2\n    */\n    \n    uint32 public reserveRatio;\n    \n      constructor(address _tokenAddress) public {\n      \n      require(_tokenAddress != address(0));\n      // instantiate deployed Ocean token contract\n      mToken = SemiottToken(_tokenAddress);\n      // initial available supply of bonded token\n      supply = 100;\n      // inital price for bonded token\n      initPrice = 1;\n    }\n\n  struct Holder {\n    address   holder;   // holder address\n    uint256   ntoken;   // number of bonded token\n    uint256   target;    // the target sell price\n  }\n  // mapping address to associated holder struct\n  mapping (address => Holder) public mHolders;\n  // the holder array used to find highest target sell price\n  address[] public arrayHolders;\n\n  // latest sold price\n  uint256 public  curSoldPrice;\n\n  // the number of remaining bonded tokens\n  uint256 public  supply;\n  uint256 public  initPrice;\n\n  modifier validHolder() {\n    require(mHolders[msg.sender].holder != address(0));\n    _;\n  }\n\n  function buyTokens(uint256 _ntoken, uint256 _target) public returns (bool) {\n    // first check whether the holder exist, if not, create holder struct\n    if (mHolders[msg.sender].holder == address(0)){\n        mHolders[msg.sender] = Holder(msg.sender, 0, 0);\n        arrayHolders.push(msg.sender);\n    }\n\n    // if supply is available, buy bonded token upto available balance with fixed price\n    if(supply > 0) {\n      uint256 amount = (_ntoken > supply) ? supply : _ntoken;\n      // make payment\n      require(mToken.transferFrom(msg.sender, address(this), amount.mul(initPrice)));\n      // update balance\n      mHolders[msg.sender].ntoken = mHolders[msg.sender].ntoken.add(amount);\n      // update supply\n      supply = supply.sub(amount);\n      // update target price\n      mHolders[msg.sender].target = _target;\n    }\n\n    // if all bonded tokens are sold out, buy from another holders\n    // buy the tokens with target price from the nextSeller\n    // for time being, we limit the buy amount equals to balance of nextSeller\n    // we will improve this to buy more in the next available sellers in the future\n    if(supply == 0){\n      // find next seller\n      address seller = findNextHolder();\n      // calculate amount of tokens to buy\n      uint256 num =  (_ntoken > mHolders[seller].ntoken) ? mHolders[seller].ntoken : _ntoken;\n      // calculate cost\n      uint256 cost = num.mul(mHolders[seller].target);\n      // make payment\n      require(mToken.transferFrom(msg.sender, mHolders[seller].holder, cost));\n      // update seller balance\n      mHolders[seller].ntoken = mHolders[seller].ntoken.sub(num);\n      // update buyer balance\n      mHolders[msg.sender].ntoken = mHolders[msg.sender].ntoken.add(num);\n      // there is no change in total supply\n      mHolders[msg.sender].target = _target;\n    }\n    return true;\n  }\n\n  function sellTokens(uint256 amount) public validHolder returns (bool) {\n    // holder shall have enough bonded token to sell\n    require(mHolders[msg.sender].ntoken >= amount);\n    // calculate payout of reserved token\n    uint256 payout = amount.mul(initPrice);\n    // ensure the contract has enough reserved token to pay out\n    require(mToken.balanceOf(address(this)) >= payout);\n    // transfer reserved token to holder\n    require(mToken.transfer(msg.sender, payout));\n    // decrease the balance of bonded token for seller\n    mHolders[msg.sender].ntoken = mHolders[msg.sender].ntoken.sub(amount);\n    // update supply\n    supply = supply.add(amount);\n    return true;\n  }\n\n  function changeTargetPrice(uint256 _price) public validHolder returns (bool) {\n    // change his target sell price\n    mHolders[msg.sender].target = _price;\n    return true;\n  }\n\n  // query the next available sell price\n  function queryNextPrice() public view returns(uint256) {\n    //check remaining supply\n    if(supply > 0){\n      return initPrice;\n    } else if (supply == 0){\n      return mHolders[findNextHolder()].target;\n    }\n  }\n\n\n  function getTokenSupply() public view returns (uint256) {\n    return supply;\n  }\n\n  // query balance of bonded token\n  function getTokenBalance() public view validHolder returns (uint256) {\n    return mHolders[msg.sender].ntoken;\n  }\n\n  function findNextHolder() internal view returns(address) {\n    uint256 maximal = 0;\n    for(uint256 i; i < arrayHolders.length; i++){\n        // skip holders with zero token balance\n        if(mHolders[arrayHolders[i]].ntoken == 0){\n          continue;\n        }\n        // find the holder with highest target sell price\n        if(mHolders[arrayHolders[i]].target > mHolders[arrayHolders[maximal]].target){\n            maximal = i;\n        }\n    }\n\n    return mHolders[arrayHolders[maximal]].holder;\n  }\n\n}\n",
  "sourcePath": "/Users/gokulalex/Apps/bsc_apps/SemiotNet/contracts/SemiottCurve.sol",
  "compiler": {
    "name": "solc",
    "version": "0.7.6+commit.7338295f.Emscripten.clang"
  },
  "schemaVersion": "3.3.3",
  "updatedAt": "2021-02-20T12:16:30.501Z",
  "devdoc": {
    "kind": "dev",
    "methods": {
      "calculatePurchaseReturn(uint256,uint256,uint32,uint256)": {
        "details": "given a continuous token supply, reserve token balance, reserve ratio, and a deposit amount (in the reserve token), calculates the return for a given conversion (in the continuous token) Formula: Return = _supply * ((1 + _depositAmount / _reserveBalance) ^ (_reserveRatio / MAX_RESERVE_RATIO) - 1)",
        "params": {
          "_depositAmount": "deposit amount, in reserve token",
          "_reserveBalance": "total reserve token balance",
          "_reserveRatio": "reserve ratio, represented in ppm, 1-1000000",
          "_supply": "continuous token total supply"
        },
        "returns": {
          "_0": "purchase return amount"
        }
      },
      "calculateSaleReturn(uint256,uint256,uint32,uint256)": {
        "details": "given a continuous token supply, reserve token balance, reserve ratio and a sell amount (in the continuous token), calculates the return for a given conversion (in the reserve token) Formula: Return = _reserveBalance * (1 - (1 - _sellAmount / _supply) ^ (1 / (_reserveRatio / MAX_RESERVE_RATIO)))",
        "params": {
          "_reserveBalance": "total reserve token balance",
          "_reserveRatio": "constant reserve ratio, represented in ppm, 1-1000000",
          "_sellAmount": "sell amount, in the continuous token itself",
          "_supply": "continuous token total supply"
        },
        "returns": {
          "_0": "sale return amount"
        }
      },
      "owner()": {
        "details": "Returns the address of the current owner."
      },
      "renounceOwnership()": {
        "details": "Leaves the contract without owner. It will not be possible to call `onlyOwner` functions anymore. Can only be called by the current owner. NOTE: Renouncing ownership will leave the contract without an owner, thereby removing any functionality that is only available to the owner."
      },
      "transferOwnership(address)": {
        "details": "Transfers ownership of the contract to a new account (`newOwner`). Can only be called by the current owner."
      }
    },
    "version": 1
  },
  "userdoc": {
    "kind": "user",
    "methods": {},
    "version": 1
  }
}