{
  "contractName": "ZSC",
  "abi": [
    {
      "inputs": [
        {
          "internalType": "address",
          "name": "_coin",
          "type": "address"
        },
        {
          "internalType": "address",
          "name": "_zether",
          "type": "address"
        },
        {
          "internalType": "address",
          "name": "_burn",
          "type": "address"
        },
        {
          "internalType": "uint256",
          "name": "_epochLength",
          "type": "uint256"
        }
      ],
      "stateMutability": "nonpayable",
      "type": "constructor"
    },
    {
      "anonymous": false,
      "inputs": [
        {
          "components": [
            {
              "internalType": "bytes32",
              "name": "x",
              "type": "bytes32"
            },
            {
              "internalType": "bytes32",
              "name": "y",
              "type": "bytes32"
            }
          ],
          "indexed": false,
          "internalType": "struct Utils.G1Point[]",
          "name": "parties",
          "type": "tuple[]"
        },
        {
          "components": [
            {
              "internalType": "bytes32",
              "name": "x",
              "type": "bytes32"
            },
            {
              "internalType": "bytes32",
              "name": "y",
              "type": "bytes32"
            }
          ],
          "indexed": false,
          "internalType": "struct Utils.G1Point",
          "name": "beneficiary",
          "type": "tuple"
        }
      ],
      "name": "TransferOccurred",
      "type": "event"
    },
    {
      "inputs": [],
      "name": "epochLength",
      "outputs": [
        {
          "internalType": "uint256",
          "name": "",
          "type": "uint256"
        }
      ],
      "stateMutability": "view",
      "type": "function"
    },
    {
      "inputs": [],
      "name": "fee",
      "outputs": [
        {
          "internalType": "uint256",
          "name": "",
          "type": "uint256"
        }
      ],
      "stateMutability": "view",
      "type": "function"
    },
    {
      "inputs": [
        {
          "components": [
            {
              "internalType": "bytes32",
              "name": "x",
              "type": "bytes32"
            },
            {
              "internalType": "bytes32",
              "name": "y",
              "type": "bytes32"
            }
          ],
          "internalType": "struct Utils.G1Point[]",
          "name": "y",
          "type": "tuple[]"
        },
        {
          "internalType": "uint256",
          "name": "epoch",
          "type": "uint256"
        }
      ],
      "name": "simulateAccounts",
      "outputs": [
        {
          "components": [
            {
              "internalType": "bytes32",
              "name": "x",
              "type": "bytes32"
            },
            {
              "internalType": "bytes32",
              "name": "y",
              "type": "bytes32"
            }
          ],
          "internalType": "struct Utils.G1Point[2][]",
          "name": "accounts",
          "type": "tuple[2][]"
        }
      ],
      "stateMutability": "view",
      "type": "function"
    },
    {
      "inputs": [
        {
          "components": [
            {
              "internalType": "bytes32",
              "name": "x",
              "type": "bytes32"
            },
            {
              "internalType": "bytes32",
              "name": "y",
              "type": "bytes32"
            }
          ],
          "internalType": "struct Utils.G1Point",
          "name": "y",
          "type": "tuple"
        },
        {
          "internalType": "uint256",
          "name": "c",
          "type": "uint256"
        },
        {
          "internalType": "uint256",
          "name": "s",
          "type": "uint256"
        }
      ],
      "name": "register",
      "outputs": [],
      "stateMutability": "nonpayable",
      "type": "function"
    },
    {
      "inputs": [
        {
          "components": [
            {
              "internalType": "bytes32",
              "name": "x",
              "type": "bytes32"
            },
            {
              "internalType": "bytes32",
              "name": "y",
              "type": "bytes32"
            }
          ],
          "internalType": "struct Utils.G1Point",
          "name": "y",
          "type": "tuple"
        },
        {
          "internalType": "uint256",
          "name": "bTransfer",
          "type": "uint256"
        }
      ],
      "name": "fund",
      "outputs": [],
      "stateMutability": "nonpayable",
      "type": "function"
    },
    {
      "inputs": [
        {
          "components": [
            {
              "internalType": "bytes32",
              "name": "x",
              "type": "bytes32"
            },
            {
              "internalType": "bytes32",
              "name": "y",
              "type": "bytes32"
            }
          ],
          "internalType": "struct Utils.G1Point[]",
          "name": "C",
          "type": "tuple[]"
        },
        {
          "components": [
            {
              "internalType": "bytes32",
              "name": "x",
              "type": "bytes32"
            },
            {
              "internalType": "bytes32",
              "name": "y",
              "type": "bytes32"
            }
          ],
          "internalType": "struct Utils.G1Point",
          "name": "D",
          "type": "tuple"
        },
        {
          "components": [
            {
              "internalType": "bytes32",
              "name": "x",
              "type": "bytes32"
            },
            {
              "internalType": "bytes32",
              "name": "y",
              "type": "bytes32"
            }
          ],
          "internalType": "struct Utils.G1Point[]",
          "name": "y",
          "type": "tuple[]"
        },
        {
          "components": [
            {
              "internalType": "bytes32",
              "name": "x",
              "type": "bytes32"
            },
            {
              "internalType": "bytes32",
              "name": "y",
              "type": "bytes32"
            }
          ],
          "internalType": "struct Utils.G1Point",
          "name": "u",
          "type": "tuple"
        },
        {
          "internalType": "bytes",
          "name": "proof",
          "type": "bytes"
        },
        {
          "components": [
            {
              "internalType": "bytes32",
              "name": "x",
              "type": "bytes32"
            },
            {
              "internalType": "bytes32",
              "name": "y",
              "type": "bytes32"
            }
          ],
          "internalType": "struct Utils.G1Point",
          "name": "beneficiary",
          "type": "tuple"
        }
      ],
      "name": "transfer",
      "outputs": [],
      "stateMutability": "nonpayable",
      "type": "function"
    },
    {
      "inputs": [
        {
          "components": [
            {
              "internalType": "bytes32",
              "name": "x",
              "type": "bytes32"
            },
            {
              "internalType": "bytes32",
              "name": "y",
              "type": "bytes32"
            }
          ],
          "internalType": "struct Utils.G1Point",
          "name": "y",
          "type": "tuple"
        },
        {
          "internalType": "uint256",
          "name": "bTransfer",
          "type": "uint256"
        },
        {
          "components": [
            {
              "internalType": "bytes32",
              "name": "x",
              "type": "bytes32"
            },
            {
              "internalType": "bytes32",
              "name": "y",
              "type": "bytes32"
            }
          ],
          "internalType": "struct Utils.G1Point",
          "name": "u",
          "type": "tuple"
        },
        {
          "internalType": "bytes",
          "name": "proof",
          "type": "bytes"
        }
      ],
      "name": "burn",
      "outputs": [],
      "stateMutability": "nonpayable",
      "type": "function"
    }
  ],
  "bytecode": "0x608060405260006009553480156200001657600080fd5b50604051620031663803806200316683398181016040528101906200003c9190620002f4565b836000806101000a81548173ffffffffffffffffffffffffffffffffffffffff021916908373ffffffffffffffffffffffffffffffffffffffff16021790555082600160006101000a81548173ffffffffffffffffffffffffffffffffffffffff021916908373ffffffffffffffffffffffffffffffffffffffff16021790555081600260006101000a81548173ffffffffffffffffffffffffffffffffffffffff021916908373ffffffffffffffffffffffffffffffffffffffff16021790555080600381905550600160009054906101000a900473ffffffffffffffffffffffffffffffffffffffff1673ffffffffffffffffffffffffffffffffffffffff1663ddca3f436040518163ffffffff1660e01b815260040160206040518083038186803b1580156200016e57600080fd5b505afa15801562000183573d6000803e3d6000fd5b505050506040513d601f19601f82011682018060405250810190620001a9919062000360565b600481905550620001b9620002a6565b620001ce6200023c60201b620015851760201c565b6006600083604051602001620001e59190620003d0565b6040516020818303038152906040528051906020012081526020019081526020016000206001600281106200021657fe5b600202016000820151816000015560208201518160010155905050505050505062000469565b62000246620002a6565b60405180604001604052807f077da99d806abd13c9f15ece5398525119d11e11e9836b2ee7d23f6159ad87d460001b81526020017f01485efa927f2ad41bff567eec88f32fb0a0f706588b4e41a8d587d008b7f87560001b815250905090565b604051806040016040528060008019168152602001600080191681525090565b600081519050620002d78162000435565b92915050565b600081519050620002ee816200044f565b92915050565b600080600080608085870312156200030b57600080fd5b60006200031b87828801620002c6565b94505060206200032e87828801620002c6565b93505060406200034187828801620002c6565b92505060606200035487828801620002dd565b91505092959194509250565b6000602082840312156200037357600080fd5b60006200038384828501620002dd565b91505092915050565b620003978162000401565b82525050565b604082016000820151620003b560008501826200038c565b506020820151620003ca60208501826200038c565b50505050565b6000604082019050620003e760008301846200039d565b92915050565b6000620003fa826200040b565b9050919050565b6000819050919050565b600073ffffffffffffffffffffffffffffffffffffffff82169050919050565b6000819050919050565b6200044081620003ed565b81146200044c57600080fd5b50565b6200045a816200042b565b81146200046657600080fd5b50565b612ced80620004796000396000f3fe608060405234801561001057600080fd5b506004361061007d5760003560e01c80637284cd301161005b5780637284cd30146100d857806379e543d0146100f45780639b0d85d314610124578063ddca3f43146101405761007d565b8063312a526c1461008257806357d775f81461009e578063599c1a93146100bc575b600080fd5b61009c60048036038101906100979190611f66565b61015e565b005b6100a66106bc565b6040516100b39190612a21565b60405180910390f35b6100d660048036038101906100d19190611f2a565b6106c2565b005b6100f260048036038101906100ed9190611ddb565b610a17565b005b61010e60048036038101906101099190611ead565b611119565b60405161011b91906126f9565b60405180910390f35b61013e60048036038101906101399190611fe1565b6113c0565b005b61014861157f565b6040516101559190612a21565b60405180910390f35b600084604051602001610171919061298d565b604051602081830303815290604052805190602001209050610192816115ed565b6101d1576040517f08c379a00000000000000000000000000000000000000000000000000000000081526004016101c89061294d565b60405180910390fd5b6101da816117ee565b836000111580156101ef575063ffffffff8411155b61022e576040517f08c379a0000000000000000000000000000000000000000000000000000000008152600401610225906128ad565b60405180910390fd5b600060066000838152602001908152602001600020600280602002604051908101604052809291906000905b8282101561029657838260020201604051806040016040529081600082015481526020016001820154815250508152602001906001019061025a565b5050505090506102e16102c16102ab87611a83565b6102b3611585565b611aaf90919063ffffffff16565b826000600281106102ce57fe5b6020020151611ae890919063ffffffff16565b6006600084815260200190815260200160002060006002811061030057fe5b60020201600082015181600001556020820151816001015590505060056000838152602001908152602001600020600280602002604051908101604052809291906000905b82821015610381578382600202016040518060400160405290816000820154815260200160018201548152505081526020019060010190610345565b5050505090506103cc6103ac61039687611a83565b61039e611585565b611aaf90919063ffffffff16565b826000600281106103b957fe5b6020020151611ae890919063ffffffff16565b816000600281106103d957fe5b60200201819052506000846040516020016103f4919061298d565b60405160208183030381529060405280519060200120905060005b60088054905081101561048357816008828154811061042a57fe5b90600052602060002001541415610476576040517f08c379a000000000000000000000000000000000000000000000000000000000815260040161046d9061284d565b60405180910390fd5b808060010191505061040f565b506008819080600181540180825580915050600190039060005260206000200160009091909190915055600260009054906101000a900473ffffffffffffffffffffffffffffffffffffffff1673ffffffffffffffffffffffffffffffffffffffff166391d16ac8836000600281106104f857fe5b60200201518460016002811061050a57fe5b60200201518a6009548a338b6040518863ffffffff1660e01b815260040161053897969594939291906129a8565b60206040518083038186803b15801561055057600080fd5b505afa158015610564573d6000803e3d6000fd5b505050506040513d601f19601f820116820180604052508101906105889190611f01565b6105c7576040517f08c379a00000000000000000000000000000000000000000000000000000000081526004016105be9061296d565b60405180910390fd5b60008054906101000a900473ffffffffffffffffffffffffffffffffffffffff1673ffffffffffffffffffffffffffffffffffffffff1663a9059cbb33886040518363ffffffff1660e01b8152600401610622929190612699565b602060405180830381600087803b15801561063c57600080fd5b505af1158015610650573d6000803e3d6000fd5b505050506040513d601f19601f820116820180604052508101906106749190611f01565b6106b3576040517f08c379a00000000000000000000000000000000000000000000000000000000081526004016106aa9061292d565b60405180910390fd5b50505050505050565b60035481565b6000826040516020016106d5919061298d565b6040516020818303038152906040528051906020012090506106f6816115ed565b610735576040517f08c379a000000000000000000000000000000000000000000000000000000000815260040161072c9061294d565b60405180910390fd5b61073e816117ee565b63ffffffff821115610785576040517f08c379a000000000000000000000000000000000000000000000000000000000815260040161077c9061286d565b60405180910390fd5b6000600660008381526020019081526020016000206000600281106107a657fe5b600202016040518060400160405290816000820154815260200160018201548152505090506107f76107e8846107da611585565b611aaf90919063ffffffff16565b82611ae890919063ffffffff16565b9050806006600084815260200190815260200160002060006002811061081957fe5b60020201600082015181600001556020820151816001015590505060008054906101000a900473ffffffffffffffffffffffffffffffffffffffff1673ffffffffffffffffffffffffffffffffffffffff166323b872dd3330866040518463ffffffff1660e01b815260040161089193929190612662565b602060405180830381600087803b1580156108ab57600080fd5b505af11580156108bf573d6000803e3d6000fd5b505050506040513d601f19601f820116820180604052508101906108e39190611f01565b610922576040517f08c379a0000000000000000000000000000000000000000000000000000000008152600401610919906128ed565b60405180910390fd5b63ffffffff60008054906101000a900473ffffffffffffffffffffffffffffffffffffffff1673ffffffffffffffffffffffffffffffffffffffff166370a08231306040518263ffffffff1660e01b81526004016109809190612647565b60206040518083038186803b15801561099857600080fd5b505afa1580156109ac573d6000803e3d6000fd5b505050506040513d601f19601f820116820180604052508101906109d09190612030565b1115610a11576040517f08c379a0000000000000000000000000000000000000000000000000000000008152600401610a089061288d565b60405180910390fd5b50505050565b60008451905060008167ffffffffffffffff81118015610a3657600080fd5b50604051908082528060200260200182016040528015610a7057816020015b610a5d611b87565b815260200190600190039081610a555790505b50905060008267ffffffffffffffff81118015610a8c57600080fd5b50604051908082528060200260200182016040528015610ac657816020015b610ab3611b87565b815260200190600190039081610aab5790505b50905082895114610b0c576040517f08c379a0000000000000000000000000000000000000000000000000000000008152600401610b03906127ed565b60405180910390fd5b600084604051602001610b1f919061298d565b604051602081830303815290604052805190602001209050610b40816115ed565b610b7f576040517f08c379a0000000000000000000000000000000000000000000000000000000008152600401610b769061282d565b60405180910390fd5b610b88816117ee565b610bf7610ba7600454610b99611585565b611aaf90919063ffffffff16565b60066000848152602001908152602001600020600060028110610bc657fe5b6002020160405180604001604052908160008201548152602001600182015481525050611ae890919063ffffffff16565b60066000838152602001908152602001600020600060028110610c1657fe5b60020201600082015181600001556020820151816001015590505060005b84811015610f0c576000898281518110610c4a57fe5b6020026020010151604051602001610c62919061298d565b604051602081830303815290604052805190602001209050610c83816115ed565b610cc2576040517f08c379a0000000000000000000000000000000000000000000000000000000008152600401610cb99061294d565b60405180910390fd5b610ccb816117ee565b600060066000838152602001908152602001600020600280602002604051908101604052809291906000905b82821015610d33578382600202016040518060400160405290816000820154815260200160018201548152505081526020019060010190610cf7565b505050509050610d708d8481518110610d4857fe5b602002602001015182600060028110610d5d57fe5b6020020151611ae890919063ffffffff16565b60066000848152602001908152602001600020600060028110610d8f57fe5b600202016000820151816000015560208201518160010155905050610dce8c82600160028110610dbb57fe5b6020020151611ae890919063ffffffff16565b60066000848152602001908152602001600020600160028110610ded57fe5b60020201600082015181600001556020820151816001015590505060056000838152602001908152602001600020600280602002604051908101604052809291906000905b82821015610e6e578382600202016040518060400160405290816000820154815260200160018201548152505081526020019060010190610e32565b505050509050610eab8d8481518110610e8357fe5b602002602001015182600060028110610e9857fe5b6020020151611ae890919063ffffffff16565b868481518110610eb757fe5b6020026020010181905250610ee68c82600160028110610ed357fe5b6020020151611ae890919063ffffffff16565b858481518110610ef257fe5b602002602001018190525050508080600101915050610c34565b50600087604051602001610f20919061298d565b60405160208183030381529060405280519060200120905060005b600880549050811015610faf578160088281548110610f5657fe5b90600052602060002001541415610fa2576040517f08c379a0000000000000000000000000000000000000000000000000000000008152600401610f999061284d565b60405180910390fd5b8080600101915050610f3b565b506008819080600181540180825580915050600190039060005260206000200160009091909190915055600160009054906101000a900473ffffffffffffffffffffffffffffffffffffffff1673ffffffffffffffffffffffffffffffffffffffff1663d2d5e70a85858e8e8e6009548f8f6040518963ffffffff1660e01b815260040161104498979695949392919061271b565b60206040518083038186803b15801561105c57600080fd5b505afa158015611070573d6000803e3d6000fd5b505050506040513d601f19601f820116820180604052508101906110949190611f01565b6110d3576040517f08c379a00000000000000000000000000000000000000000000000000000000081526004016110ca9061290d565b60405180910390fd5b7f306c363b04ebfc48d0bc8a89a5fb2e4230c37937d0530d50b8334d50eec63ef089876040516111049291906127bd565b60405180910390a15050505050505050505050565b60606000835190508067ffffffffffffffff8111801561113857600080fd5b5060405190808252806020026020018201604052801561117257816020015b61115f611ba7565b8152602001906001900390816111575790505b50915060005b818110156113b857600085828151811061118e57fe5b60200260200101516040516020016111a6919061298d565b60405160208183030381529060405280519060200120905060056000828152602001908152602001600020600280602002604051908101604052809291906000905b828210156112245783826002020160405180604001604052908160008201548152602001600182015481525050815260200190600101906111e8565b5050505084838151811061123457fe5b602002602001018190525084600760008381526020019081526020016000205410156113aa57600060066000838152602001908152602001600020600280602002604051908101604052809291906000905b828210156112c2578382600202016040518060400160405290816000820154815260200160018201548152505081526020019060010190611286565b505050509050611310816000600281106112d857fe5b60200201518685815181106112e957fe5b60200260200101516000600281106112fd57fe5b6020020151611ae890919063ffffffff16565b85848151811061131c57fe5b602002602001015160006002811061133057fe5b60200201819052506113808160016002811061134857fe5b602002015186858151811061135957fe5b602002602001015160016002811061136d57fe5b6020020151611ae890919063ffffffff16565b85848151811061138c57fe5b60200260200101516001600281106113a057fe5b6020020181905250505b508080600101915050611178565b505092915050565b60006114086113e06113d185611a83565b86611aaf90919063ffffffff16565b6113fa846113ec611585565b611aaf90919063ffffffff16565b611ae890919063ffffffff16565b90506000611442308684604051602001611424939291906126c2565b6040516020818303038152906040528051906020012060001c611b2c565b9050838114611486576040517f08c379a000000000000000000000000000000000000000000000000000000000815260040161147d906128cd565b60405180910390fd5b600085604051602001611499919061298d565b6040516020818303038152906040528051906020012090506114ba816115ed565b156114fa576040517f08c379a00000000000000000000000000000000000000000000000000000000081526004016114f19061280d565b60405180910390fd5b856006600083815260200190815260200160002060006002811061151a57fe5b60020201600082015181600001556020820151816001015590505061153d611585565b6006600083815260200190815260200160002060016002811061155c57fe5b600202016000820151816000015560208201518160010155905050505050505050565b60045481565b61158d611b87565b60405180604001604052807f077da99d806abd13c9f15ece5398525119d11e11e9836b2ee7d23f6159ad87d460001b81526020017f01485efa927f2ad41bff567eec88f32fb0a0f706588b4e41a8d587d008b7f87560001b815250905090565b60008060405180604001604052806000801b81526020016000801b81525090506000604051806040016040528060056000878152602001908152602001600020600280602002604051908101604052809291906000905b82821015611680578382600202016040518060400160405290816000820154815260200160018201548152505081526020019060010190611644565b50505050815260200160066000878152602001908152602001600020600280602002604051908101604052809291906000905b828210156116ef5783826002020160405180604001604052908160008201548152602001600182015481525050815260200190600101906116b3565b50505050815250905061172d828260006002811061170957fe5b602002015160006002811061171a57fe5b6020020151611b5f90919063ffffffff16565b801561176a5750611769828260006002811061174557fe5b602002015160016002811061175657fe5b6020020151611b5f90919063ffffffff16565b5b80156117a757506117a6828260016002811061178257fe5b602002015160006002811061179357fe5b6020020151611b5f90919063ffffffff16565b5b80156117e457506117e382826001600281106117bf57fe5b60200201516001600281106117d057fe5b6020020151611b5f90919063ffffffff16565b5b1592505050919050565b600060035442816117fb57fe5b0490508060076000848152602001908152602001600020541015611a5f576000604051806040016040528060056000868152602001908152602001600020600280602002604051908101604052809291906000905b8282101561188c578382600202016040518060400160405290816000820154815260200160018201548152505081526020019060010190611850565b50505050815260200160066000868152602001908152602001600020600280602002604051908101604052809291906000905b828210156118fb5783826002020160405180604001604052908160008201548152602001600182015481525050815260200190600101906118bf565b50505050815250905061195b8160016002811061191457fe5b602002015160006002811061192557fe5b60200201518260006002811061193757fe5b602002015160006002811061194857fe5b6020020151611ae890919063ffffffff16565b6005600085815260200190815260200160002060006002811061197a57fe5b6002020160008201518160000155602082015181600101559050506119ec816001600281106119a557fe5b60200201516001600281106119b657fe5b6020020151826000600281106119c857fe5b60200201516001600281106119d957fe5b6020020151611ae890919063ffffffff16565b60056000858152602001908152602001600020600160028110611a0b57fe5b600202016000820151816000015560208201518160010155905050600660008481526020019081526020016000206000611a459190611bd4565b816007600085815260200190815260200160002081905550505b806009541015611a7f578060098190555060086000611a7e9190611bff565b5b5050565b6000817f30644e72e131a029b85045b68181585d2833e84879b9709143e1f593f0000001039050919050565b611ab7611b87565b604051835181526020840151602082015282604082015260408260608360075afa611ae157600080fd5b5092915050565b611af0611b87565b6040518351815260208401516020820152825160408201526020830151606082015260408260808360065afa611b2557600080fd5b5092915050565b60007f30644e72e131a029b85045b68181585d2833e84879b9709143e1f593f00000018281611b5757fe5b069050919050565b600081600001518360000151148015611b7f575081602001518360200151145b905092915050565b604051806040016040528060008019168152602001600080191681525090565b60405180604001604052806002905b611bbe611b87565b815260200190600190039081611bb65790505090565b5060008082016000905560018201600090555060020160008082016000905560018201600090555050565b5080546000825590600052602060002090810190611c1d9190611c20565b50565b5b80821115611c39576000816000905550600101611c21565b5090565b6000611c50611c4b84612a6d565b612a3c565b90508083825260208201905082856040860282011115611c6f57600080fd5b60005b85811015611c9f5781611c858882611d65565b845260208401935060408301925050600181019050611c72565b5050509392505050565b6000611cbc611cb784612a99565b612a3c565b905082815260208101848484011115611cd457600080fd5b611cdf848285612c1d565b509392505050565b600082601f830112611cf857600080fd5b8135611d08848260208601611c3d565b91505092915050565b600081519050611d2081612c72565b92915050565b600081359050611d3581612c89565b92915050565b600082601f830112611d4c57600080fd5b8135611d5c848260208601611ca9565b91505092915050565b600060408284031215611d7757600080fd5b611d816040612a3c565b90506000611d9184828501611d26565b6000830152506020611da584828501611d26565b60208301525092915050565b600081359050611dc081612ca0565b92915050565b600081519050611dd581612ca0565b92915050565b6000806000806000806101208789031215611df557600080fd5b600087013567ffffffffffffffff811115611e0f57600080fd5b611e1b89828a01611ce7565b9650506020611e2c89828a01611d65565b955050606087013567ffffffffffffffff811115611e4957600080fd5b611e5589828a01611ce7565b9450506080611e6689828a01611d65565b93505060c087013567ffffffffffffffff811115611e8357600080fd5b611e8f89828a01611d3b565b92505060e0611ea089828a01611d65565b9150509295509295509295565b60008060408385031215611ec057600080fd5b600083013567ffffffffffffffff811115611eda57600080fd5b611ee685828601611ce7565b9250506020611ef785828601611db1565b9150509250929050565b600060208284031215611f1357600080fd5b6000611f2184828501611d11565b91505092915050565b60008060608385031215611f3d57600080fd5b6000611f4b85828601611d65565b9250506040611f5c85828601611db1565b9150509250929050565b60008060008060c08587031215611f7c57600080fd5b6000611f8a87828801611d65565b9450506040611f9b87828801611db1565b9350506060611fac87828801611d65565b92505060a085013567ffffffffffffffff811115611fc957600080fd5b611fd587828801611d3b565b91505092959194509250565b600080600060808486031215611ff657600080fd5b600061200486828701611d65565b935050604061201586828701611db1565b925050606061202686828701611db1565b9150509250925092565b60006020828403121561204257600080fd5b600061205084828501611dc6565b91505092915050565b60006120658383612105565b60808301905092915050565b600061207d83836125da565b60408301905092915050565b61209281612be7565b82525050565b6120a181612b95565b82525050565b60006120b282612af3565b6120bc8185612b46565b93506120c783612ac9565b8060005b838110156120f85781516120df8882612059565b97506120ea83612b1f565b9250506001810190506120cb565b5085935050505092915050565b61210e81612afe565b6121188184612b57565b925061212382612ad9565b8060005b8381101561215457815161213b8782612071565b965061214683612b2c565b925050600181019050612127565b505050505050565b600061216782612b09565b6121718185612b62565b935061217c83612ae3565b8060005b838110156121ad5781516121948882612071565b975061219f83612b39565b925050600181019050612180565b5085935050505092915050565b6121c381612bb3565b82525050565b60006121d482612b14565b6121de8185612b73565b93506121ee818560208601612c2c565b6121f781612c61565b840191505092915050565b600061220f601c83612b84565b91507f496e707574206172726179206c656e677468206d69736d6174636821000000006000830152602082019050919050565b600061224f601b83612b84565b91507f4163636f756e7420616c726561647920726567697374657265642100000000006000830152602082019050919050565b600061228f602683612b84565b91507f4d696e65722773206163636f756e74206973206e6f742079657420726567697360008301527f74657265642e00000000000000000000000000000000000000000000000000006020830152604082019050919050565b60006122f5601383612b84565b91507f4e6f6e636520616c7265616479207365656e21000000000000000000000000006000830152602082019050919050565b6000612335601c83612b84565b91507f4465706f73697420616d6f756e74206f7574206f662072616e67652e000000006000830152602082019050919050565b6000612375602883612b84565b91507f46756e642070757368657320636f6e74726163742070617374206d6178696d7560008301527f6d2076616c75652e0000000000000000000000000000000000000000000000006020830152604082019050919050565b60006123db601d83612b84565b91507f5472616e7366657220616d6f756e74206f7574206f662072616e67652e0000006000830152602082019050919050565b600061241b601f83612b84565b91507f496e76616c696420726567697374726174696f6e207369676e617475726521006000830152602082019050919050565b600061245b601c83612b84565b91507f5472616e736665722066726f6d2073656e646572206661696c65642e000000006000830152602082019050919050565b600061249b602383612b84565b91507f5472616e736665722070726f6f6620766572696669636174696f6e206661696c60008301527f65642100000000000000000000000000000000000000000000000000000000006020830152604082019050919050565b6000612501603583612b84565b91507f546869732073686f756c646e2774206661696c2e2e2e20536f6d657468696e6760008301527f2077656e74207365766572656c792077726f6e672e00000000000000000000006020830152604082019050919050565b6000612567601b83612b84565b91507f4163636f756e74206e6f742079657420726567697374657265642e00000000006000830152602082019050919050565b60006125a7601f83612b84565b91507f4275726e2070726f6f6620766572696669636174696f6e206661696c656421006000830152602082019050919050565b6040820160008201516125f060008501826121ba565b50602082015161260360208501826121ba565b50505050565b60408201600082015161261f60008501826121ba565b50602082015161263260208501826121ba565b50505050565b61264181612bdd565b82525050565b600060208201905061265c6000830184612098565b92915050565b60006060820190506126776000830186612089565b6126846020830185612098565b6126916040830184612638565b949350505050565b60006040820190506126ae6000830185612089565b6126bb6020830184612638565b9392505050565b600060a0820190506126d76000830186612098565b6126e46020830185612609565b6126f16060830184612609565b949350505050565b6000602082019050818103600083015261271381846120a7565b905092915050565b6000610140820190508181036000830152612736818b61215c565b9050818103602083015261274a818a61215c565b9050818103604083015261275e818961215c565b905061276d6060830188612609565b81810360a083015261277f818761215c565b905061278e60c0830186612638565b61279b60e0830185612609565b8181036101208301526127ae81846121c9565b90509998505050505050505050565b600060608201905081810360008301526127d7818561215c565b90506127e66020830184612609565b9392505050565b6000602082019050818103600083015261280681612202565b9050919050565b6000602082019050818103600083015261282681612242565b9050919050565b6000602082019050818103600083015261284681612282565b9050919050565b60006020820190508181036000830152612866816122e8565b9050919050565b6000602082019050818103600083015261288681612328565b9050919050565b600060208201905081810360008301526128a681612368565b9050919050565b600060208201905081810360008301526128c6816123ce565b9050919050565b600060208201905081810360008301526128e68161240e565b9050919050565b600060208201905081810360008301526129068161244e565b9050919050565b600060208201905081810360008301526129268161248e565b9050919050565b60006020820190508181036000830152612946816124f4565b9050919050565b600060208201905081810360008301526129668161255a565b9050919050565b600060208201905081810360008301526129868161259a565b9050919050565b60006040820190506129a26000830184612609565b92915050565b6000610160820190506129be600083018a612609565b6129cb6040830189612609565b6129d86080830188612609565b6129e560c0830187612638565b6129f260e0830186612609565b612a00610120830185612089565b818103610140830152612a1381846121c9565b905098975050505050505050565b6000602082019050612a366000830184612638565b92915050565b6000604051905081810181811067ffffffffffffffff82111715612a6357612a62612c5f565b5b8060405250919050565b600067ffffffffffffffff821115612a8857612a87612c5f565b5b602082029050602081019050919050565b600067ffffffffffffffff821115612ab457612ab3612c5f565b5b601f19601f8301169050602081019050919050565b6000819050602082019050919050565b6000819050919050565b6000819050602082019050919050565b600081519050919050565b600060029050919050565b600081519050919050565b600081519050919050565b6000602082019050919050565b6000602082019050919050565b6000602082019050919050565b600082825260208201905092915050565b600081905092915050565b600082825260208201905092915050565b600082825260208201905092915050565b600082825260208201905092915050565b6000612ba082612bbd565b9050919050565b60008115159050919050565b6000819050919050565b600073ffffffffffffffffffffffffffffffffffffffff82169050919050565b6000819050919050565b6000612bf282612bf9565b9050919050565b6000612c0482612c0b565b9050919050565b6000612c1682612bbd565b9050919050565b82818337600083830152505050565b60005b83811015612c4a578082015181840152602081019050612c2f565b83811115612c59576000848401525b50505050565bfe5b6000601f19601f8301169050919050565b612c7b81612ba7565b8114612c8657600080fd5b50565b612c9281612bb3565b8114612c9d57600080fd5b50565b612ca981612bdd565b8114612cb457600080fd5b5056fea2646970667358221220d553ba0c8447edbf2c6564fe928e0d55ebc9ee47c674c15eb3c0d6f15ca2004964736f6c63430007060033",
  "immutableReferences": {},
  "source": "// SPDX-License-Identifier: Apache License 2.0\n\npragma solidity >=0.6.0 <0.8.0;\npragma experimental ABIEncoderV2;\n\nimport \"./SemiottCoin.sol\";\nimport \"./Utils.sol\";\nimport \"./InnerProductVerifier.sol\";\nimport \"./ZetherVerifier.sol\";\nimport \"./BurnVerifier.sol\";\n\ncontract ZSC {\n    using Utils for uint256;\n    using Utils for Utils.G1Point;\n\n    SemiottCoin coin;\n    ZetherVerifier zetherVerifier;\n    BurnVerifier burnVerifier;\n    uint256 public epochLength;\n    uint256 public fee;\n\n    uint256 constant MAX = 4294967295; // 2^32 - 1 // no sload for constants...!\n    mapping(bytes32 => Utils.G1Point[2]) acc; // main account mapping\n    mapping(bytes32 => Utils.G1Point[2]) pending; // storage for pending transfers\n    mapping(bytes32 => uint256) lastRollOver;\n    bytes32[] nonceSet; // would be more natural to use a mapping, but they can't be deleted / reset!\n    uint256 lastGlobalUpdate = 0; // will be also used as a proxy for \"current epoch\", seeing as rollovers will be anticipated\n    // not implementing account locking for now...revisit\n\n    event TransferOccurred(Utils.G1Point[] parties, Utils.G1Point beneficiary);\n    // arg is still necessary for transfers---not even so much to know when you received a transfer, as to know when you got rolled over.\n\n    constructor(address _coin, address _zether, address _burn, uint256 _epochLength) { // visibiility won't be needed in 7.0\n        // epoch length, like block.time, is in _seconds_. 4 is the minimum!!! (To allow a withdrawal to go through.)\n        coin = SemiottCoin(_coin);\n        zetherVerifier = ZetherVerifier(_zether);\n        burnVerifier = BurnVerifier(_burn);\n        epochLength = _epochLength;\n        fee = zetherVerifier.fee();\n        Utils.G1Point memory empty;\n        pending[keccak256(abi.encode(empty))][1] = Utils.g(); // \"register\" the empty account...\n    }\n\n    function simulateAccounts(Utils.G1Point[] memory y, uint256 epoch) view public returns (Utils.G1Point[2][] memory accounts) {\n        // in this function and others, i have to use public + memory (and hence, a superfluous copy from calldata)\n        // only because calldata structs aren't yet supported by solidity. revisit this in the future.\n        uint256 size = y.length;\n        accounts = new Utils.G1Point[2][](size);\n        for (uint256 i = 0; i < size; i++) {\n            bytes32 yHash = keccak256(abi.encode(y[i]));\n            accounts[i] = acc[yHash];\n            if (lastRollOver[yHash] < epoch) {\n                Utils.G1Point[2] memory scratch = pending[yHash];\n                accounts[i][0] = accounts[i][0].add(scratch[0]);\n                accounts[i][1] = accounts[i][1].add(scratch[1]);\n            }\n        }\n    }\n\n    function rollOver(bytes32 yHash) internal {\n        uint256 e = block.timestamp / epochLength;\n        if (lastRollOver[yHash] < e) {\n            Utils.G1Point[2][2] memory scratch = [acc[yHash], pending[yHash]];\n            acc[yHash][0] = scratch[0][0].add(scratch[1][0]);\n            acc[yHash][1] = scratch[0][1].add(scratch[1][1]);\n            // acc[yHash] = scratch[0]; // can't do this---have to do the above instead (and spend 2 sloads / stores)---because \"not supported\". revisit\n            delete pending[yHash]; // pending[yHash] = [Utils.G1Point(0, 0), Utils.G1Point(0, 0)];\n            lastRollOver[yHash] = e;\n        }\n        if (lastGlobalUpdate < e) {\n            lastGlobalUpdate = e;\n            delete nonceSet;\n        }\n    }\n\n    function registered(bytes32 yHash) internal view returns (bool) {\n        Utils.G1Point memory zero = Utils.G1Point(0, 0);\n        Utils.G1Point[2][2] memory scratch = [acc[yHash], pending[yHash]];\n        return !(scratch[0][0].eq(zero) && scratch[0][1].eq(zero) && scratch[1][0].eq(zero) && scratch[1][1].eq(zero));\n    }\n\n    function register(Utils.G1Point memory y, uint256 c, uint256 s) public {\n        // allows y to participate. c, s should be a Schnorr signature on \"this\"\n        Utils.G1Point memory K = Utils.g().mul(s).add(y.mul(c.neg()));\n        uint256 challenge = uint256(keccak256(abi.encode(address(this), y, K))).mod();\n        require(challenge == c, \"Invalid registration signature!\");\n        bytes32 yHash = keccak256(abi.encode(y));\n        require(!registered(yHash), \"Account already registered!\");\n        // pending[yHash] = [y, Utils.g()]; // \"not supported\" yet, have to do the below\n        pending[yHash][0] = y;\n        pending[yHash][1] = Utils.g();\n    }\n\n    function fund(Utils.G1Point memory y, uint256 bTransfer) public {\n        bytes32 yHash = keccak256(abi.encode(y));\n        require(registered(yHash), \"Account not yet registered.\");\n        rollOver(yHash);\n\n        require(bTransfer <= MAX, \"Deposit amount out of range.\"); // uint, so other way not necessary?\n\n        Utils.G1Point memory scratch = pending[yHash][0];\n        scratch = scratch.add(Utils.g().mul(bTransfer));\n        pending[yHash][0] = scratch;\n        require(coin.transferFrom(msg.sender, address(this), bTransfer), \"Transfer from sender failed.\");\n        require(coin.balanceOf(address(this)) <= MAX, \"Fund pushes contract past maximum value.\");\n    }\n\n    function transfer(Utils.G1Point[] memory C, Utils.G1Point memory D, Utils.G1Point[] memory y, Utils.G1Point memory u, bytes memory proof, Utils.G1Point memory beneficiary) public {\n        uint256 size = y.length;\n        Utils.G1Point[] memory CLn = new Utils.G1Point[](size);\n        Utils.G1Point[] memory CRn = new Utils.G1Point[](size);\n        require(C.length == size, \"Input array length mismatch!\");\n\n        bytes32 beneficiaryHash = keccak256(abi.encode(beneficiary));\n        require(registered(beneficiaryHash), \"Miner's account is not yet registered.\"); // necessary so that receiving a fee can't \"backdoor\" you into registration.\n        rollOver(beneficiaryHash);\n        pending[beneficiaryHash][0] = pending[beneficiaryHash][0].add(Utils.g().mul(fee));\n\n        for (uint256 i = 0; i < size; i++) {\n            bytes32 yHash = keccak256(abi.encode(y[i]));\n            require(registered(yHash), \"Account not yet registered.\");\n            rollOver(yHash);\n            Utils.G1Point[2] memory scratch = pending[yHash];\n            pending[yHash][0] = scratch[0].add(C[i]);\n            pending[yHash][1] = scratch[1].add(D);\n            // pending[yHash] = scratch; // can't do this, so have to use 2 sstores _anyway_ (as in above)\n\n            scratch = acc[yHash]; // trying to save an sload, i guess.\n            CLn[i] = scratch[0].add(C[i]);\n            CRn[i] = scratch[1].add(D);\n        }\n\n        bytes32 uHash = keccak256(abi.encode(u));\n        for (uint256 i = 0; i < nonceSet.length; i++) {\n            require(nonceSet[i] != uHash, \"Nonce already seen!\");\n        }\n        nonceSet.push(uHash);\n\n        require(zetherVerifier.verifyTransfer(CLn, CRn, C, D, y, lastGlobalUpdate, u, proof), \"Transfer proof verification failed!\");\n\n        emit TransferOccurred(y, beneficiary);\n    }\n\n    function burn(Utils.G1Point memory y, uint256 bTransfer, Utils.G1Point memory u, bytes memory proof) public {\n        bytes32 yHash = keccak256(abi.encode(y));\n        require(registered(yHash), \"Account not yet registered.\");\n        rollOver(yHash);\n\n        require(0 <= bTransfer && bTransfer <= MAX, \"Transfer amount out of range.\");\n        Utils.G1Point[2] memory scratch = pending[yHash];\n        pending[yHash][0] = scratch[0].add(Utils.g().mul(bTransfer.neg()));\n\n        scratch = acc[yHash]; // simulate debit of acc---just for use in verification, won't be applied\n        scratch[0] = scratch[0].add(Utils.g().mul(bTransfer.neg()));\n        bytes32 uHash = keccak256(abi.encode(u));\n        for (uint256 i = 0; i < nonceSet.length; i++) {\n            require(nonceSet[i] != uHash, \"Nonce already seen!\");\n        }\n        nonceSet.push(uHash);\n\n        require(burnVerifier.verifyBurn(scratch[0], scratch[1], y, lastGlobalUpdate, u, msg.sender, proof), \"Burn proof verification failed!\");\n        require(coin.transfer(msg.sender, bTransfer), \"This shouldn't fail... Something went severely wrong.\");\n    }\n}\n",
  "sourcePath": "/Users/gokulalex/Apps/bsc_apps/SemiotNet/contracts/ZSC.sol",
  "compiler": {
    "name": "solc",
    "version": "0.7.6+commit.7338295f.Emscripten.clang"
  },
  "schemaVersion": "3.3.3",
  "updatedAt": "2021-02-20T12:16:30.729Z",
  "devdoc": {
    "kind": "dev",
    "methods": {},
    "version": 1
  },
  "userdoc": {
    "kind": "user",
    "methods": {},
    "version": 1
  }
}